:100000000C9446000C946F000C946F000C946F00DD
:100010000C946F000C946F000C94D1010C946F0041
:100020000C946F000C946F000C946F000C94EF050F
:100030000C946F000C946F000C9449040C946F00A6
:100040000C946F000C946F000C946F000C946F0074
:100050000C946F000C946F000C946F000C941106BC
:100060000C946F000C946F00F8044F056305940521
:100070009B057A059E05FC06ED07ED0705070807B9
:100080000B070D070F071107C207230711241FBE17
:10009000CFEFD8E0DEBFCDBF14BE0FB6F894A89561
:1000A00080916000886180936000109260000FBEB4
:1000B00011E0A0E0B1E0EEE7F7E102C005900D929B
:1000C000AC30B107D9F721E0ACE0B1E001C01D923E
:1000D000AA37B207E1F70E949F080C94BD0B0C945D
:1000E000000020911601309117012817390709F1F6
:1000F0009093170180931601009711F460E016C0E9
:100100008130910539F40E94F80160917801809165
:1001100077010DC0029731F40E94F80160E08091F0
:10012000790105C00E94F8016091650180E00C949E
:10013000F301089582E090E00C9471006091100149
:10014000709111016C3281E07807F4F40E94010291
:1001500090930D0180930C018F3F2FEF920771F365
:1001600020910E0130910F01820F931F90930F0188
:1001700080930E018091100190911101019690934E
:10018000110180931001DACF80910E0190910F013F
:100190000E94AA08CB0108958C3221E0920734F422
:1001A00081E00E94C50483E090E008C08935924058
:1001B0003CF080E10E94C50482E090E00C94710064
:1001C00084E00C94C5040E949E000C94CC00089519
:1001D00080E090E008950895DF92EF92FF920F93F0
:1001E0001F93CF93DF93F89414B817B81AB815B8C3
:1001F00018B81BB8529A5A9A14BC85E085BD8FEF87
:1002000087BD82E080936E00109280001092810082
:100210002FE83BE0309389002093880080936F00A3
:100220005398239891EA9093B0008093B100109274
:10023000B4001092B3008BE080BF83E080937F0016
:1002400086E080937C0083E880937A0080917A0036
:10025000806480937A0080917A0086FDFCCF1092B2
:100260007C0083EA80937A0081E080937B0081E0C8
:1002700090E00E94530B8F3F11F080936600109224
:100280004301C1E0C0931C01C093600110923A0188
:100290001092740180E990E00E94530B8093390121
:1002A00080913901887311F0C09339011092640173
:1002B000109263018FEF90E090936201809361014F
:1002C00010923F01109240011092410110924201A0
:1002D00081E080931B0182E49FE0909373018093FF
:1002E000720180EB90E00E94530BC82F81EB90E0ED
:1002F0000E94530B2C2F30E0382B30937601209343
:10030000750185E090E00E94530B8093790189E0AC
:1003100090E00E94530B809365018CE090E00E9476
:10032000530B8093770184E190E00E94530B8093FC
:10033000780104E411E05DE1E52E51E0F52EC0E224
:10034000D0E0CE010E94530BD82ECE0101960E9420
:10035000530B2D2D30E0322F2227282BF80121932B
:1003600031938F01CE01C0960E94530BD82ECE013F
:10037000C1960E94530B2D2D30E0322F2227282BBF
:10038000F701219331937F012296CC33D105C9F631
:100390007894DF91CF911F910F91FF90EF90DF90B4
:1003A00008951F920F920FB60F9211248F930FB6DC
:1003B000F894A89580916000886180936000109205
:1003C00060000FBE8F910F900FBE0F901F90189579
:1003D000009741F0EFECF7E03197F1F700C0000033
:1003E0000197F6CF08958093B3006093B400089509
:1003F0008FEF8093B3008093B4008FE090E00C9473
:10040000E8018091430181111EC0F89487E0809338
:100410007C0083E880937A0080917A0080648093E6
:100420007A0080917A0086FDFCCF809178009091CF
:10043000790010927C0023EA20937A0021E0209337
:100440007B00789408958FEF9FEF0895809143018A
:1004500081111EC0F89488EC80937C0087E880931B
:100460007A0080917A00806480937A0080917A008B
:1004700086FDFCCF809178009091790010927C00ED
:1004800023EA20937A0021E020937B00789408955A
:100490008FEF9FEF0895CF93DF9320E030E080E06F
:1004A000E3EAF1E0C6E0D3E8A1E0B0E090E0F89440
:1004B000C0937C00D0937A0040917A0040644093CE
:1004C0007A0040917A0046FDFCCF4091780050912F
:1004D0007900417050917A00506450937A005091A5
:1004E0007A0056FDFCCF60917800709179001092EF
:1004F0007C00E0937A00F0937B0078949F5F6170BA
:10050000461751F0442359F0AD01022E01C0440FAB
:100510000A94EAF7842B03C0903849F6F3CF2F5F93
:100520003F4F2830310509F0C1CFDF91CF910895B9
:100530008091000198E0899F9001112428279091D3
:10054000180181E0890F80931801822F829586958A
:100550008770282796959695822F8927809300018A
:10056000089580930001089580914301811116C080
:10057000F89486E080937C0083E880937A008091F1
:100580007A00806480937A0080917A0086FDFCCFA7
:100590008091780090917900789408958FEF9FEF83
:1005A00008952F923F924F925F926F927F928F9217
:1005B0009F92AF92BF92CF92DF92EF92FF920F93F2
:1005C0001F93CF93DF931C01FC01C281D381C438F8
:1005D000F3E0DF070CF07EC080911D0190911E01B9
:1005E0008C179D0708F46FC0EFE1F1E011E08191F5
:1005F00091918C179D0720F01F5F1E30C1F71DE001
:10060000812F90E0FC01EE0FFF1FE35EFE4FE080C4
:10061000F180880F991FFC01E55EFE4F808191817A
:10062000B701681B790B80E090E00E94FC099B01F8
:10063000AC010E94E8084B015C01BE010D2E000CCC
:10064000880B990B0E94FE092B013C01B70180E049
:1006500090E00E94FC096B017C01612F70E080E05A
:1006600090E00E94FC0920E030E040E05FE30E945F
:100670008A0A20E030E0A9010E94E808A50194015F
:100680000E948A0A9B01AC01C701B6010E94E708DB
:100690009B01AC01C301B2010E94E70820E030E0F9
:1006A00040E251E40E948A0A0E94C6097B01C5010A
:1006B000B4010E94C609AB01BC01C701BA010E9486
:1006C000AA08162F01C010E0CD3B82E0D8070CF439
:1006D000CAC001C01FEFF101C080D18080914401E8
:1006E000909145018C159D0588F0E6E4F1E081E0EC
:1006F00090E0382EE190F190EC14FD0408F458C01D
:1007000001968E309105A9F70AE501C000E01F3F70
:1007100009F44BC0BE01DD0F880B990B0E94FE0946
:100720006B017C01612F70E080E090E00E94FC0989
:100730004B015C01A701960160E070E081E694E462
:100740000E94E7089B01AC01C501B4010E948A0A1E
:100750004B015C01602F70E080E090E00E94FC099A
:100760002B013C0120E030E04FE254E4C701B60128
:100770000E94E7089B01AC01C301B2010E948A0AF2
:100780009B01AC01C501B4010E94E80820E030E003
:1007900048E453E40E94540920E030E044E052E48D
:1007A0000E94E8080E94CD0960C061E2600F5DC050
:1007B000880F991FFC01EE5BFE4F80819181B7018C
:1007C000681B790B80E090E00E94FC099B01AC0162
:1007D0000E94E8084B015C01B601DD0C880B990B07
:1007E0000E94FE092B013C01B70180E090E00E94CD
:1007F000FC096B017C01632D70E080E090E00E94B9
:10080000FC0920E030E040E05FE30E948A0A20E03B
:1008100030E0A9010E94E808A50194010E948A0A1B
:100820009B01AC01C701B6010E94E7089B01AC0126
:10083000C301B2010E94E70820E030E040E251E449
:100840000E948A0A0E94C6097B01C501B4010E9468
:10085000C609AB01BC01C701BA010E94AA08062F54
:100860006F3F09F054CF61E2610F862FDF91CF9186
:100870001F910F91FF90EF90DF90CF90BF90AF90BE
:100880009F908F907F906F905F904F903F902F90B0
:1008900008951F920F920FB60F9211242F933F933A
:1008A0004F935F936F937F938F939F93AF93BF9378
:1008B000EF93FF9320916301309164018091610176
:1008C00090916201820F931F909364018093630162
:1008D0008FEF90E090936201809361018FEF87BD6D
:1008E00080913F0190914001A0914101B09142015E
:1008F0000196A11DB11D80933F0190934001A093EB
:100900004101B09342018091430181112DC080913A
:1009100072019091730120916301309164018217FB
:10092000930710F580911B018430F1F4E0910301ED
:10093000F091040109950097B9F00E941C088823E2
:1009400051F0E0910101F0910201099510926401CA
:100950001092630109C00E94430B9C01332730931E
:1009600062012093610187BDFF91EF91BF91AF912B
:100970009F918F917F916F915F914F913F912F91B7
:100980000F900FBE0F901F90189580FF02C0559AD0
:1009900001C0559881FF02C0549A01C0549882FF4B
:1009A00002C03B9A01C03B9883FF02C03A9A01C043
:1009B0003A9884FF02C03D9A01C03D9885FF02C06D
:1009C0003C9A08953C9808958C017B01D0E0CFEFCC
:1009D00084E0D82E98E1C92E29E2B22EE0911B01C5
:1009E000F0E0E730F105D0F7EC5CFF4F0C94BE0867
:1009F000F89480B7877F80BF80917A008F7780934B
:100A00007A0014B817B81AB815B818B81BB80FB6CA
:100A1000F894A895C09260000FBEB09260008091DB
:100A2000600080648093600083B7817F846083BFAF
:100A3000F89483B7816083BF7894889583B78E7F5D
:100A400083BF789410924301529A5A9A80917A0007
:100A5000806880937A0087E592E00197F1F700C003
:100A6000000080B7886180BF8FE30E94C504EFE17A
:100A7000FEE43197F1F700C0000080914301882324
:100A800009F450C083E00E94C504FFEF20E782E034
:100A9000F15020408040E1F700C0000043C08CE0EE
:100AA0000E94C504EFECF7E03197F1F700C00000B9
:100AB00080E00E94C504FFEF21EE84E0F150204069
:100AC0008040E1F72CC00E94B4028B3AE2E09E071E
:100AD00024F08CE00E94C50481CF8938F2E09F07A2
:100AE00014F080E3F7CF8736924014F08FE0F2CF16
:100AF00083E0F0CF489916C081E00E94C5048FECD6
:100B000097E00197F1F700C0000080E00E94C50463
:100B10009FEFE1EEF4E09150E040F040E1F700C0DB
:100B200000005CCF80E0D6CFD11102C0F80109955A
:100B3000D0921B01D1E0F701099550CF80911901A6
:100B4000811107C01092B3001092B40010921A01E4
:100B500045CF9091190180911A01981709F43ECF61
:100B60008091190180931A0180911901813089F4D3
:100B7000C093B3001092B4008FE295E70197F1F7AC
:100B800000C00000809179018093B3001092B400FE
:100B900025CF809119011092B300C093B400823028
:100BA00059F4EFE2F5E73197F1F700C000008091CA
:100BB00065011092B30010C0C093B300C093B4009D
:100BC0008FE295E70197F1F700C00000809178016E
:100BD000909177019093B3008093B400FFCE1F9261
:100BE0000F920FB60F9211248F939F931092810052
:100BF000109285001092840081E080931C01809304
:100C000060011092430110927C0093EA90937A0065
:100C100080937B009F918F910F900FBE0F901F903C
:100C200018951F920F920FB60F9211240F931F93D6
:100C30002F933F934F935F936F937F938F939F93E4
:100C4000AF93BF93EF93FF93209184003091850081
:100C500041E04093430180911C01882321F11092CF
:100C600085001092840040938100109274011092CC
:100C70001C0180916001882309F4AFC180917A0042
:100C800086FDFCCF809178009091790090933E0191
:100C900080933D0181E080937C0093EA90937A00F9
:100CA00080937B009AC1C901875891098437994084
:100CB000A0F0109281001092850010928400409361
:100CC0001C01409360011092430110927C0083EA62
:100CD00080937A0040937B0080C126583109A4EFAD
:100CE000B0E00E94C4088C0122273327083060F44A
:100CF00081E090E001C0880F0A95EAF790917401B5
:100D0000892B8093740169C140931C01809160011B
:100D1000882341F180917A0086FDFCCF8091780094
:100D20009091790090933C0180933B0110927C005C
:100D300083EA80937A0081E080937B009091740134
:100D4000992359F01092810010928500109284002E
:100D5000809360011092430140C110926001109293
:100D60003A013BC180913A01E82FF0E0EA59FE4F89
:100D70009091740190838F5F80933A018C3009F0D9
:100D80002CC1109281001092850010928400409333
:100D9000600110924301009170011091710186E68B
:100DA00091E00E9400080817190709F016C1E091A8
:100DB0006F01E7FD0AC0E0910501F09106016BE3C8
:100DC00071E086E691E0099508C188E78E0F8330CF
:100DD00030F0539823981092B4001092B3008E2FE5
:100DE00090E0FC01E058F109EB30F10508F0F5C0A6
:100DF000E55CFF4F0C94BE0880916E008D7F809360
:100E00006E0016BCE0E0F0E702C0E0E0F0E009951B
:100E100010921B01E2C081E0B2C085E0B0C082E068
:100E2000AEC080911B01833009F4D7C080911B01B3
:100E3000843009F4D2C0539A239A1092B4001092CD
:100E4000B30083E09CC080916601823009F44BC0FE
:100E500080F48823A9F0813009F082C08091670175
:100E60009091680190937601809375011092190119
:100E700077C0833009F449C0843009F458C070C089
:100E800080911B01863009F06BC06091750180EB89
:100E900090E00E945B0B6091760181EB90E00E94F4
:100EA0005B0B6091790185E090E00E945B0B6091A3
:100EB000650189E090E00E945B0B609177018CE016
:100EC00090E00E945B0B6091780184E190E00E94C9
:100ED0005B0B539823981092B4001092B30081E0FA
:100EE00080931B013DC0909119018091690191305F
:100EF00021F490917901891799F110921A0191E0EA
:100F000090931901809379012BC0909119018091E0
:100F10006A01923021F490916501891709F11092CC
:100F20001A0192E0909319018093650119C02091F4
:100F3000190180916C0190916B01233041F4209153
:100F40007801821304C020917701921749F0109222
:100F50001A0123E02093190190937701809378017F
:100F6000809166018823C9F180911B018630A9F127
:100F7000539A239A1092B4001092B30086E08093A3
:100F80001B012BC080911B01863081F0539A239A5C
:100F90001092B4001092B30080E00E94C504109239
:100FA000190110921A0186E080931B0181E090E004
:100FB0000090660102C0880F991F0A94E2F7209101
:100FC00075013091760182239323892B21F081E0F2
:100FD0008093190102C010921901FF91EF91BF9106
:100FE000AF919F918F917F916F915F914F913F91C1
:100FF0002F911F910F910F900FBE0F901F9018957A
:10100000FC019C01265F3F4F8FEF9FEF41918427AA
:10101000082E8295807F8025092E982F82958F70CB
:101020000826869598278927880F880F880F80259E
:10103000E217F30759F708950FB6F894A4B1209179
:1010400039012A2B24B921E030913901203029F0CF
:10105000000025B1232B25B904C0000000000000CA
:1010600000C0000000000000309525B1232325B901
:101070002EEA2A95F1F72BEE30B735FF0AC0A4B956
:1010800030913901309525B1232325B90FBE80E079
:10109000089500002A9581F721E030913901203030
:1010A00029F0000025B1232B25B904C00000000061
:1010B000000000C0000000000000309525B123238F
:1010C00025B9000024E52A95F1F7FC018CE0619137
:1010D00070E0660F771F616072609AE041E050E057
:1010E0009A0126233723232B30913901203029F010
:1010F000000025B1232B25B904C00000000000002A
:1011000000C0000000000000309525B1232325B960
:10111000000021E52A95F1F7440F551F9A9501F734
:101120008A95A9F620B7206120BFA4B93091390172
:10113000309525B1232325B90FBE81E008950E9483
:10114000EC0063EE70E08AE990E00E94E40480E045
:1011500090E0089597FB072E16F4009407D077FDD2
:1011600009D00E94D30807FC05D03EF490958195E4
:101170009F4F0895709561957F4F0895EE0FFF1F63
:101180000590F491E02D0994A29FB001B39FC00196
:10119000A39F700D811D1124911DB29F700D811DA3
:1011A0001124911D0895AA1BBB1B51E107C0AA1F62
:1011B000BB1FA617B70710F0A61BB70B881F991FF8
:1011C0005A95A9F780959095BC01CD010895505886
:1011D000BB27AA270E94FF080C94500A0E94420ACB
:1011E00038F00E94490A20F039F49F3F19F426F4A0
:1011F0000C943F0A0EF4E095E7FB0C94390AE92FB2
:101200000E94610A58F3BA176207730784079507AB
:1012100020F079F4A6F50C94830A0EF4E0950B2ED9
:10122000BA2FA02D0B01B90190010C01CA01A00138
:101230001124FF27591B99F0593F50F4503E68F193
:101240001A16F040A22F232F342F4427585FF3CFD4
:10125000469537952795A795F0405395C9F77EF4A5
:101260001F16BA0B620B730B840BBAF09150A1F0EE
:10127000FF0FBB1F661F771F881FC2F70EC0BA0F74
:10128000621F731F841F48F4879577956795B795FC
:10129000F7959E3F08F0B0CF9395880F08F09927F7
:1012A000EE0F9795879508950E9468090C94500A4F
:1012B0000E94490A58F00E94420A40F029F45F3F18
:1012C00029F00C94390A51110C94840A0C943F0AA9
:1012D0000E94610A68F39923B1F3552391F3951B9A
:1012E000550BBB27AA2762177307840738F09F5F47
:1012F0005F4F220F331F441FAA1FA9F335D00E2EB4
:101300003AF0E0E832D091505040E695001CCAF720
:101310002BD0FE2F29D0660F771F881FBB1F2617E3
:1013200037074807AB07B0E809F0BB0B802DBF01BA
:10133000FF2793585F4F3AF09E3F510578F00C9489
:10134000390A0C94840A5F3FE4F3983ED4F38695FF
:1013500077956795B795F7959F5FC9F7880F911DAA
:101360009695879597F90895E1E0660F771F881F96
:10137000BB1F621773078407BA0720F0621B730B49
:10138000840BBA0BEE1F88F7E09508950E94CD09F3
:101390006894B1110C94840A08950E94690A88F037
:1013A0009F5798F0B92F9927B751B0F0E1F0660F29
:1013B000771F881F991F1AF0BA95C9F714C0B1306A
:1013C00091F00E94830AB1E008950C94830A672F7C
:1013D000782F8827B85F39F0B93FCCF38695779599
:1013E0006795B395D9F73EF4909580957095619582
:1013F0007F4F8F4F9F4F0895E89409C097FB3EF4AD
:1014000090958095709561957F4F8F4F9F4F992351
:10141000A9F0F92F96E9BB279395F69587957795CF
:101420006795B795F111F8CFFAF4BB0F11F460FF8F
:101430001BC06F5F7F4F8F4F9F4F16C0882311F0E7
:1014400096E911C0772321F09EE8872F762F05C0FB
:10145000662371F096E8862F70E060E02AF09A9596
:10146000660F771F881FDAF7880F9695879597F98B
:10147000089597F99F6780E870E060E008959FEF16
:1014800080EC089500240A9416161706180609061B
:10149000089500240A9412161306140605060895EA
:1014A000092E0394000C11F4882352F0BB0F40F472
:1014B000BF2B11F460FF04C06F5F7F4F8F4F9F4FB2
:1014C000089557FD9058440F551F59F05F3F71F034
:1014D0004795880F97FB991F61F09F3F79F087959B
:1014E0000895121613061406551FF2CF4695F1DF24
:1014F00008C0161617061806991FF1CF86957105B4
:10150000610508940895E894BB2766277727CB01E7
:1015100097F908950E949D0A0C94500A0E94420A6D
:1015200038F00E94490A20F0952311F00C94390AF2
:101530000C943F0A11240C94840A0E94610A70F3EF
:10154000959FC1F3950F50E0551F629FF001729F68
:10155000BB27F00DB11D639FAA27F00DB11DAA1F77
:10156000649F6627B00DA11D661F829F2227B00DC4
:10157000A11D621F739FB00DA11D621F839FA00D4F
:10158000611D221F749F3327A00D611D231F849F9F
:10159000600D211D822F762F6A2F11249F575040F6
:1015A0009AF0F1F088234AF0EE0FFF1FBB1F661F71
:1015B000771F881F91505040A9F79E3F510580F03A
:1015C0000C94390A0C94840A5F3FE4F3983ED4F3F8
:1015D000869577956795B795F795E7959F5FC1F7DE
:1015E000FE2B880F911D9695879597F908958F92F8
:1015F0009F92AF92BF92CF92DF92EF92FF92CF93E2
:10160000DF93EC01688179818A819B816115710585
:101610008105910521F464E279ED8BE597E02DE1F8
:1016200033EF41E050E00E94690B49015A019B01F0
:10163000AC01A7EAB1E40E94880B6B017C01ACEE1F
:10164000B4EFA50194010E94960BDC01CB018C0D37
:101650009D1DAE1DBF1DB7FF03C00197A109B04876
:1016600088839983AA83BB839F77DF91CF91FF9073
:10167000EF90DF90CF90BF90AF909F908F900895A4
:101680000E94F70A089587E091E00E94F70A089502
:10169000A0E0B0E08093070190930801A0930901B6
:1016A000B0930A010895F999FECF92BD81BDF89AD1
:1016B000992780B50895262FF999FECF1FBA92BDBC
:1016C00081BD20BD0FB6F894FA9AF99A0FBE019623
:1016D0000895052E97FB1EF400940E94800B57FD81
:1016E00007D00E949B0B07FC03D04EF40C94800B98
:1016F00050954095309521953F4F4F4F5F4F08953E
:1017000090958095709561957F4F8F4F9F4F08956D
:101710000E94C408A59F900DB49F900DA49F800DBA
:10172000911D11240895B7FF0C94880B0E94880B1B
:10173000821B930B0895A1E21A2EAA1BBB1BFD016D
:101740000DC0AA1FBB1FEE1FFF1FA217B307E407A0
:10175000F50720F0A21BB30BE40BF50B661F771FF8
:10176000881F991F1A9469F76095709580959095D8
:0E1770009B01AC01BD01CF010895F894FFCF9D
:0C177E00AAEB00E800E7000100000000FA
:00000001FF
