:100000000C9446000C946F000C946F000C946F00DD
:100010000C946F000C946F000C94F0010C946F0022
:100020000C946F000C946F000C946F000C940E06EF
:100030000C946F000C946F000C9468040C946F0087
:100040000C946F000C946F000C946F000C946F0074
:100050000C946F000C946F000C946F000C9430069D
:100060000C946F000C946F0017056E058205B305A4
:10007000BA059905BD051B070C080C0824072707BE
:100080002A072C072E073007E107420711241FBE5D
:10009000CFEFD8E0DEBFCDBF14BE0FB6F894A89561
:1000A00080916000886180936000109260000FBEB4
:1000B00011E0A0E0B1E0ECEBF7E102C005900D9299
:1000C000AC30B107D9F721E0ACE0B1E001C01D923E
:1000D000A037B207E1F70E94BE080C94DC0B0C9429
:1000E00000000E94170260916E0180916D010C94D6
:1000F0001202CF92DF92EF92FF92CF93DF93C12C47
:10010000D12C7601C0E0D0E00E9420028F3F2FEF7B
:10011000920749F0092E000CAA0BBB0BC80ED91E82
:10012000EA1EFB1E2196CC3281E0D8076CF39E01BB
:10013000DD0F440B550BC701B6010E94DD08C90154
:10014000DF91CF91FF90EF90DF90CF9008950E94C4
:10015000790090930D0180930C0108950E9479001D
:1001600090930D0180930C019C012D5F3340293049
:10017000310510F481E00FC09C01235F334029302A
:10018000310510F484E007C00197873E934010F4D6
:1001900080E101C080E00C94E404009711F460E079
:1001A00011C08130910511F40C947100029731F463
:1001B0000E94170260E080916F0105C00E94170243
:1001C00060915B0180E00C941202009719F40E9488
:1001D000710018C08130910519F482E090E004C0EC
:1001E000029729F483E090E00E94CD000BC085E0E7
:1001F0000E94E40480E090E00E94CD008CED95E048
:100200000E94070284E690E00C940702089580E0C3
:1002100090E008950895DF92EF92FF920F931F935D
:10022000CF93DF93F89414B817B81AB815B818B864
:100230001BB8529A5A9A14BC85E085BD8FEF87BDD2
:1002400082E080936E0010928000109281002FE86F
:100250003BE0309389002093880080936F0053988F
:10026000239891EA9093B0008093B1001092B4006B
:100270001092B3008BE080BF83E080937F0086E024
:1002800080937C0083E880937A0080917A00806478
:1002900080937A0080917A0086FDFCCF10927C00DA
:1002A00083EA80937A0081E080937B0081E090E094
:1002B0000E94B30B8F3F11F08093660010923901BA
:1002C000C1E0C0931201C093560110923001109208
:1002D0006A0180E990E00E94B30B80932F01809126
:1002E0002F01887311F0C0932F0110925A011092C0
:1002F00059018FEF90E0909358018093570110922D
:10030000350110923601109237011092380181E0C8
:100310008093110182E49FE09093690180936801CA
:1003200080EB90E00E94B30BC82F81EB90E00E941D
:10033000B30B2C2F30E0382B30936C0120936B01E2
:1003400085E090E00E94B30B80936F0189E090E01C
:100350000E94B30B80935B018CE090E00E94B30B92
:1003600080936D0184E190E00E94B30B80936E0155
:100370000AE311E053E1E52E51E0F52EC0E2D0E0B2
:10038000CE010E94B30BD82ECE0101960E94B30B72
:100390002D2D30E0322F2227282BF8012193319385
:1003A0008F01CE01C0960E94B30BD82ECE01C1960C
:1003B0000E94B30B2D2D30E0322F2227282BF7017E
:1003C000219331937F012296CC33D105C9F67894DD
:1003D000DF91CF911F910F91FF90EF90DF900895E3
:1003E0001F920F920FB60F9211248F930FB6F894AD
:1003F000A8958091600088618093600010926000F1
:100400000FBE8F910F900FBE0F901F901895009701
:1004100041F0EFECF7E03197F1F700C000000197F1
:10042000F6CF08958093B3006093B40008958FEFE2
:100430008093B3008093B4008FE090E00C940702A7
:100440008091390181111EC0F89487E080937C006F
:1004500083E880937A0080917A00806480937A00A8
:1004600080917A0086FDFCCF809178009091790090
:1004700010927C0023EA20937A0021E020937B00F5
:10048000789408958FEF9FEF08958091390181113D
:100490001EC0F89488EC80937C0087E880937A00F3
:1004A00080917A00806480937A0080917A0086FD42
:1004B000FCCF809178009091790010927C0023EA23
:1004C00020937A0021E020937B00789408958FEFA9
:1004D0009FEF0895CF93DF9320E030E080E0E3EAE0
:1004E000F1E0C6E0D3E8A1E0B0E090E0F894C0937A
:1004F0007C00D0937A0040917A00406440937A0067
:1005000040917A0046FDFCCF4091780050917900EF
:10051000417050917A00506450937A0050917A0063
:1005200056FDFCCF609178007091790010927C00AC
:10053000E0937A00F0937B0078949F5F6170461798
:1005400051F0442359F0AD01022E01C0440F0A942A
:10055000EAF7842B03C0903849F6F3CF2F5F3F4F63
:100560002830310509F0C1CFDF91CF9108958091F6
:10057000000198E0899F90011124282790910E0195
:1005800081E0890F80930E01822F82958695877076
:10059000282796959695822F8927809300010895A4
:1005A00080930001089580913901811116C0F8945B
:1005B00086E080937C0083E880937A0080917A00C3
:1005C000806480937A0080917A0086FDFCCF8091D0
:1005D000780090917900789408958FEF9FEF0895B7
:1005E0002F923F924F925F926F927F928F929F9243
:1005F000AF92BF92CF92DF92EF92FF920F931F9331
:10060000CF93DF931C01FC01C281D381C438F3E096
:10061000DF070CF07EC080911301909114018C17BC
:100620009D0708F46FC0E5E1F1E011E0819191913F
:100630008C179D0720F01F5F1E30C1F71DE0812F32
:1006400090E0FC01EE0FFF1FED5EFE4FE080F180B9
:10065000880F991FFC01EF5EFE4F80819181B701E9
:10066000681B790B80E090E00E945C0A9B01AC0162
:100670000E9448094B015C01BE010D2E000C880B45
:10068000990B0E945E0A2B013C01B70180E090E0CB
:100690000E945C0A6B017C01612F70E080E090E0B9
:1006A0000E945C0A20E030E040E05FE30E94EA0A3A
:1006B00020E030E0A9010E944809A50194010E94B0
:1006C000EA0A9B01AC01C701B6010E9447099B01E0
:1006D000AC01C301B2010E94470920E030E040E2D2
:1006E00051E40E94EA0A0E94260A7B01C501B40176
:1006F0000E94260AAB01BC01C701BA010E94C908C9
:10070000162F01C010E0CD3B82E0D8070CF4CAC020
:1007100001C01FEFF101C080D18080913A0190911A
:100720003B018C159D0588F0ECE3F1E081E090E061
:10073000382EE190F190EC14FD0408F458C00196B5
:100740008E309105A9F70AE501C000E01F3F09F4CA
:100750004BC0BE01DD0F880B990B0E945E0A6B0136
:100760007C01612F70E080E090E00E945C0A4B0108
:100770005C01A701960160E070E081E694E40E94CC
:1007800047099B01AC01C501B4010E94EA0A4B0173
:100790005C01602F70E080E090E00E945C0A2B0119
:1007A0003C0120E030E04FE254E4C701B6010E9472
:1007B00047099B01AC01C301B2010E94EA0A9B01F7
:1007C000AC01C501B4010E94480920E030E048E4D2
:1007D00053E40E94B40920E030E044E052E40E9477
:1007E00048090E942D0A60C061E2600F5DC0880F59
:1007F000991FFC01E85CFE4F80819181B701681B65
:10080000790B80E090E00E945C0A9B01AC010E94A1
:1008100048094B015C01B601DD0C880B990B0E9465
:100820005E0A2B013C01B70180E090E00E945C0A67
:100830006B017C01632D70E080E090E00E945C0A17
:1008400020E030E040E05FE30E94EA0A20E030E090
:10085000A9010E944809A50194010E94EA0A9B018E
:10086000AC01C701B6010E9447099B01AC01C3015D
:10087000B2010E94470920E030E040E251E40E94CA
:10088000EA0A0E94260A7B01C501B4010E94260AD9
:10089000AB01BC01C701BA010E94C908062F6F3F16
:1008A00009F054CF61E2610F862FDF91CF911F9144
:1008B0000F91FF90EF90DF90CF90BF90AF909F90FF
:1008C0008F907F906F905F904F903F902F90089502
:1008D0001F920F920FB60F9211242F933F934F93B5
:1008E0005F936F937F938F939F93AF93BF93EF9398
:1008F000FF932091590130915A01809157019091B5
:100900005801820F931F90935A01809359018FEFE2
:1009100090E090935801809357018FEF87BD8091AD
:10092000350190913601A0913701B09138010196BF
:10093000A11DB11D8093350190933601A09337011D
:10094000B09338018091390181112DC080916801E7
:10095000909169012091590130915A0182179307B2
:1009600010F5809111018430F1F4E0910301F091D0
:10097000040109950097B9F00E943B08882351F0C3
:10098000E0910101F0910201099510925A01109233
:10099000590109C00E94A30B9C01332730935801D1
:1009A0002093570187BDFF91EF91BF91AF919F9128
:1009B0008F917F916F915F914F913F912F910F9008
:1009C0000FBE0F901F90189580FF02C0559A01C06E
:1009D000559881FF02C0549A01C0549882FF02C00A
:1009E0003B9A01C03B9883FF02C03A9A01C03A98F3
:1009F00084FF02C03D9A01C03D9885FF02C03C9A29
:100A000008953C9808958C017B01D0E0CFEF84E0FD
:100A1000D82E98E1C92E29E2B22EE0911101F0E022
:100A2000E730F105D0F7EC5CFF4F0C94FC08F8942C
:100A300080B7877F80BF80917A008F7780937A001C
:100A400014B817B81AB815B818B81BB80FB6F89478
:100A5000A895C09260000FBEB092600080916000C7
:100A600080648093600083B7817F846083BFF89443
:100A700083B7816083BF7894889583B78E7F83BF67
:100A8000789410923901529A5A9A80917A0080682B
:100A900080937A0087E592E00197F1F700C00000AB
:100AA00080B7886180BF8FE30E94E404EFE1FEE439
:100AB0003197F1F700C0000080913901882309F4D3
:100AC00050C083E00E94E404FFEF20E782E0F15091
:100AD00020408040E1F700C0000043C08CE00E944D
:100AE000E404EFECF7E03197F1F700C0000080E09C
:100AF0000E94E404FFEF21EE84E0F15020408040AA
:100B0000E1F72CC00E94D3028B3AE2E09E0724F06A
:100B10008CE00E94E40481CF8938F2E09F0714F052
:100B200080E3F7CF8736924014F08FE0F2CF83E076
:100B3000F0CF489916C081E00E94E4048FEC97E062
:100B40000197F1F700C0000080E00E94E4049FEFED
:100B5000E1EEF4E09150E040F040E1F700C0000029
:100B60005CCF80E0D6CFD11102C0F8010995D092B8
:100B70001101D1E0F701099550CF80910F0181114A
:100B800007C01092B3001092B4001092100145CF2C
:100B900090910F0180911001981709F43ECF809138
:100BA0000F018093100180910F01813089F4C0936F
:100BB000B3001092B4008FE295E70197F1F700C0FF
:100BC000000080916F018093B3001092B40025CF94
:100BD00080910F011092B300C093B400823059F499
:100BE000EFE2F5E73197F1F700C0000080915B017B
:100BF0001092B30010C0C093B300C093B4008FE252
:100C000095E70197F1F700C0000080916E01909187
:100C10006D019093B3008093B400FFCE1F920F92AA
:100C20000FB60F9211248F939F9310928100109210
:100C300085001092840081E0809312018093560118
:100C40001092390110927C0093EA90937A0080937D
:100C50007B009F918F910F900FBE0F901F90189562
:100C60001F920F920FB60F9211240F931F932F9381
:100C70003F934F935F936F937F938F939F93AF9324
:100C8000BF93EF93FF93209184003091850041E062
:100C90004093390180911201882321F1109285003F
:100CA000109284004093810010926A011092120108
:100CB00080915601882309F4AFC180917A0086FDA6
:100CC000FCCF8091780090917900909334018093CB
:100CD000330181E080937C0093EA90937A008093C3
:100CE0007B009AC1C9018758910984379940A0F0C7
:100CF000109281001092850010928400409312019E
:100D0000409356011092390110927C0083EA80933F
:100D10007A0040937B0080C126583109A4EFB0E0EF
:100D20000E9402098C0122273327083060F481E0F9
:100D300090E001C0880F0A95EAF790916A01892B2B
:100D400080936A0169C14093120180915601882302
:100D500041F180917A0086FDFCCF809178009091DE
:100D60007900909332018093310110927C0083EAE4
:100D700080937A0081E080937B0090916A019923AF
:100D800059F0109281001092850010928400809397
:100D900056011092390140C1109256011092300153
:100DA0003BC180913001E82FF0E0E45AFE4F909172
:100DB0006A0190838F5F809330018C3009F02CC1E1
:100DC0001092810010928500109284004093560189
:100DD0001092390100916601109167018CE591E054
:100DE0000E941F080817190709F016C1E091650154
:100DF000E7FD0AC0E0910501F091060161E371E0B1
:100E00008CE591E0099508C188E78E0F833030F0BA
:100E1000539823981092B4001092B3008E2F90E054
:100E2000FC01E058F109EB30F10508F0F5C0E55C94
:100E3000FF4F0C94FC0880916E008D7F80936E00B4
:100E400016BCE0E0F0E702C0E0E0F0E009951092A7
:100E50001101E2C081E0B2C085E0B0C082E0AEC066
:100E600080911101833009F4D7C080911101843041
:100E700009F4D2C0539A239A1092B4001092B3008E
:100E800083E09CC080915C01823009F44BC080F407
:100E90008823A9F0813009F082C080915D01909192
:100EA0005E0190936C0180936B0110920F0177C0EB
:100EB000833009F449C0843009F458C070C080916F
:100EC0001101863009F06BC060916B0180EB90E0FE
:100ED0000E94BB0B60916C0181EB90E00E94BB0B08
:100EE00060916F0185E090E00E94BB0B60915B0117
:100EF00089E090E00E94BB0B60916D018CE090E076
:100F00000E94BB0B60916E0184E190E00E94BB0BDC
:100F1000539823981092B4001092B30081E080930C
:100F200011013DC090910F0180915F01913021F43A
:100F300090916F01891799F11092100191E09093AF
:100F40000F0180936F012BC090910F018091600180
:100F5000923021F490915B01891709F110921001F0
:100F600092E090930F0180935B0119C020910F01D3
:100F70008091620190916101233041F420916E01D2
:100F8000821304C020916D01921749F01092100154
:100F900023E020930F0190936D0180936E01809167
:100FA0005C018823C9F1809111018630A9F1539A1F
:100FB000239A1092B4001092B30086E0809311013E
:100FC0002BC080911101863081F0539A239A1092A0
:100FD000B4001092B30080E00E94E40410920F016C
:100FE0001092100186E08093110181E090E0009062
:100FF0005C0102C0880F991F0A94E2F720916B01EF
:1010000030916C0182239323892B21F081E080931E
:101010000F0102C010920F01FF91EF91BF91AF91AC
:101020009F918F917F916F915F914F913F912F9100
:101030001F910F910F900FBE0F901F901895FC01FC
:101040009C01265F3F4F8FEF9FEF41918427082E31
:101050008295807F8025092E982F82958F70082693
:10106000869598278927880F880F880F8025E21793
:10107000F30759F708950FB6F894A4B120912F0102
:101080002A2B24B921E030912F01203029F00000D3
:1010900025B1232B25B904C000000000000000C0CA
:1010A000000000000000309525B1232325B92EEA69
:1010B0002A95F1F72BEE30B735FF0AC0A4B930916D
:1010C0002F01309525B1232325B90FBE80E0089567
:1010D00000002A9581F721E030912F01203029F07E
:1010E000000025B1232B25B904C00000000000003A
:1010F00000C0000000000000309525B1232325B971
:10110000000024E52A95F1F7FC018CE0619170E084
:10111000660F771F616072609AE041E050E09A01CB
:1011200026233723232B30912F01203029F0000074
:1011300025B1232B25B904C000000000000000C029
:10114000000000000000309525B1232325B90000E0
:1011500021E52A95F1F7440F551F9A9501F78A95D5
:10116000A9F620B7206120BFA4B930912F01309596
:1011700025B1232325B90FBE81E008950E940B01FC
:101180006EEA70E087EA90E00E94030580E090E05C
:10119000089597FB072E16F4009407D077FD09D029
:1011A0000E94110907FC05D03EF4909581959F4F50
:1011B0000895709561957F4F0895052E97FB1EF455
:1011C00000940E94F40857FD07D00E94250907FCEF
:1011D00003D04EF40C94F408509540953095219529
:1011E0003F4F4F4F5F4F0895909580957095619553
:1011F0007F4F8F4F9F4F0895EE0FFF1F0590F49183
:10120000E02D0994A29FB001B39FC001A39F700D70
:10121000811D1124911DB29F700D811D1124911DFE
:101220000895AA1BBB1B51E107C0AA1FBB1FA6172D
:10123000B70710F0A61BB70B881F991F5A95A9F77F
:1012400080959095BC01CD010895A1E21A2EAA1BAC
:10125000BB1BFD010DC0AA1FBB1FEE1FFF1FA21766
:10126000B307E407F50720F0A21BB30BE40BF50B63
:10127000661F771F881F991F1A9469F760957095EC
:10128000809590959B01AC01BD01CF010895505808
:10129000BB27AA270E945F090C94B00A0E94A20AE9
:1012A00038F00E94A90A20F039F49F3F19F426F47F
:1012B0000C949F0A0EF4E095E7FB0C94990AE92F31
:1012C0000E94C10A58F3BA1762077307840795078B
:1012D00020F079F4A6F50C94E30A0EF4E0950B2EB9
:1012E000BA2FA02D0B01B90190010C01CA01A00178
:1012F0001124FF27591B99F0593F50F4503E68F1D3
:101300001A16F040A22F232F342F4427585FF3CF13
:10131000469537952795A795F0405395C9F77EF4E4
:101320001F16BA0B620B730B840BBAF09150A1F02D
:10133000FF0FBB1F661F771F881FC2F70EC0BA0FB3
:10134000621F731F841F48F4879577956795B7953B
:10135000F7959E3F08F0B0CF9395880F08F0992736
:10136000EE0F9795879508950E94C8090C94B00ACE
:101370000E94A90A58F00E94A20A40F029F45F3F97
:1013800029F00C94990A51110C94E40A0C949F0AC8
:101390000E94C10A68F39923B1F3552391F3951B79
:1013A000550BBB27AA2762177307840738F09F5F86
:1013B0005F4F220F331F441FAA1FA9F335D00E2EF3
:1013C0003AF0E0E832D091505040E695001CCAF760
:1013D0002BD0FE2F29D0660F771F881FBB1F261723
:1013E00037074807AB07B0E809F0BB0B802DBF01FA
:1013F000FF2793585F4F3AF09E3F510578F00C94C9
:10140000990A0C94E40A5F3FE4F3983ED4F386957E
:1014100077956795B795F7959F5FC9F7880F911DE9
:101420009695879597F90895E1E0660F771F881FD5
:10143000BB1F621773078407BA0720F0621B730B88
:10144000840BBA0BEE1F88F7E09508950E942D0AD1
:101450006894B1110C94E40A08950E94C90A88F0B6
:101460009F5798F0B92F9927B751B0F0E1F0660F68
:10147000771F881F991F1AF0BA95C9F714C0B130A9
:1014800091F00E94E30AB1E008950C94E30A672FFB
:10149000782F8827B85F39F0B93FCCF386957795D8
:1014A0006795B395D9F73EF49095809570956195C1
:1014B0007F4F8F4F9F4F0895E89409C097FB3EF4EC
:1014C00090958095709561957F4F8F4F9F4F992391
:1014D000A9F0F92F96E9BB279395F695879577950F
:1014E0006795B795F111F8CFFAF4BB0F11F460FFCF
:1014F0001BC06F5F7F4F8F4F9F4F16C0882311F027
:1015000096E911C0772321F09EE8872F762F05C03A
:10151000662371F096E8862F70E060E02AF09A95D5
:10152000660F771F881FDAF7880F9695879597F9CA
:10153000089597F99F6780E870E060E008959FEF55
:1015400080EC089500240A9416161706180609065A
:10155000089500240A941216130614060506089529
:10156000092E0394000C11F4882352F0BB0F40F4B1
:10157000BF2B11F460FF04C06F5F7F4F8F4F9F4FF1
:10158000089557FD9058440F551F59F05F3F71F073
:101590004795880F97FB991F61F09F3F79F08795DA
:1015A0000895121613061406551FF2CF4695F1DF63
:1015B00008C0161617061806991FF1CF86957105F3
:1015C000610508940895E894BB2766277727CB0127
:1015D00097F908950E94FD0A0C94B00A0E94A20A8D
:1015E00038F00E94A90A20F0952311F00C94990A72
:1015F0000C949F0A11240C94E40A0E94C10A70F30F
:10160000959FC1F3950F50E0551F629FF001729FA7
:10161000BB27F00DB11D639FAA27F00DB11DAA1FB6
:10162000649F6627B00DA11D661F829F2227B00D03
:10163000A11D621F739FB00DA11D621F839FA00D8E
:10164000611D221F749F3327A00D611D231F849FDE
:10165000600D211D822F762F6A2F11249F57504035
:101660009AF0F1F088234AF0EE0FFF1FBB1F661FB0
:10167000771F881F91505040A9F79E3F510580F079
:101680000C94990A0C94E40A5F3FE4F3983ED4F377
:10169000869577956795B795F795E7959F5FC1F71D
:1016A000FE2B880F911D9695879597F908958F9237
:1016B0009F92AF92BF92CF92DF92EF92FF92CF9321
:1016C000DF93EC01688179818A819B8161157105C5
:1016D0008105910521F464E279ED8BE597E02DE138
:1016E00033EF41E050E00E94DD0849015A019B01BF
:1016F000AC01A7EAB1E40E94C90B6B017C01ACEE1E
:10170000B4EFA50194010E94D70BDC01CB018C0D35
:101710009D1DAE1DBF1DB7FF03C00197A109B048B5
:1017200088839983AA83BB839F77DF91CF91FF90B2
:10173000EF90DF90CF90BF90AF909F908F900895E3
:101740000E94570B089587E091E00E94570B08957F
:10175000A0E0B0E08093070190930801A0930901F5
:10176000B0930A010895F999FECF92BD81BDF89A10
:10177000992780B50895262FF999FECF1FBA92BDFB
:1017800081BD20BD0FB6F894FA9AF99A0FBE019662
:1017900008950E940209A59F900DB49F900DA49FEB
:1017A000800D911D11240895B7FF0C94C90B0E9460
:0C17B000C90B821B930B0895F894FFCF27
:0C17BC00AA0A010701060101000000005C
:00000001FF
