:100000000C9446000C946F000C946F000C946F00DD
:100010000C946F000C946F000C94CB020C946F0046
:100020000C946F000C946F000C946F000C94E90614
:100030000C946F000C946F000C9443050C946F00AB
:100040000C946F000C946F000C946F000C946F0074
:100050000C946F000C946F000C946F000C940B07C1
:100060000C946F000C946F00F20549065D068E0635
:10007000950674069806F607E708E708FF070208E2
:100080000508070809080B08BC081D0811241FBE35
:10009000CFEFD8E0DEBFCDBF14BE0FB6F894A89561
:1000A00080916000886180936000109260000FBEB4
:1000B00011E0A0E0B1E0E8EBF8E102C005900D929C
:1000C000AA30B107D9F721E0AAE0B1E001C01D9242
:1000D000A439B207E1F70E9499090C945A0C0C94C8
:1000E0000000FC019CE0AEE1B1E001900D929A9518
:1000F000E1F780911E01813031F481E090E090932E
:1001000019018093180108958AE291E0089581E031
:1001100090E0909315018093140108950E94F202DB
:1001200060919201809191010C94ED02CF92DF9247
:10013000EF92FF92CF93DF93C12CD12C7601C0E0D8
:10014000D0E00E94FB028F3F2FEF920749F0092E6B
:10015000000CAA0BBB0BC80ED91EEA1EFB1E219673
:10016000CC3281E0D8076CF39E01DD0F440B550BB8
:10017000C701B6010E94CA09C901DF91CF91FF9062
:10018000EF90DF90CF9008950E94960090930B011E
:1001900080930A010895009711F460E011C0813046
:1001A000910511F40C948E00029731F40E94F20232
:1001B00060E08091930105C00E94F20260917F018E
:1001C00080E00C94ED02009719F40E948E002FC07D
:1001D0008130910519F482E090E005C082309105EC
:1001E00029F483E090E00E94CB0021C08330910588
:1001F00051F484E00E94BF0580E090E00E94CB00B3
:1002000080ED97E012C0049791F480E090E00E94A6
:10021000CB0085E10E94BF0588EE93E00E94E202D8
:1002200084E00E94BF0588EE93E00E94E20284E62B
:1002300090E00C94E2021092330181E080932A0155
:100240008AE291E00E94FA0890933501809334018C
:1002500081E00E94BF0580911401909115010197E2
:10026000E9F410921501109214010E94920390E09B
:1002700090931101809310018091000190910101F0
:100280000E94E300809110019091110163E070E001
:100290000E94B60990930101809300010C9496008E
:1002A00080911801909119018130910581F490930A
:1002B00017018093160181E10E94BF0580E090E064
:1002C0000E94CB008CED95E00E94E2021CC080E110
:1002D0000E94BF050E94920390E0909311018093C9
:1002E000100180910001909101010E94E300809132
:1002F00010019091110163E070E00E94B6099093A3
:100300000101809300010C94960080915901909115
:100310005A01A0915B01B0915C0180930C01909314
:100320000D01A0930E01B0930F014091590150911E
:100330005A0160915B0170915C0180910C01909178
:100340000D01A0910E01B0910F018096A11DB11D6C
:10035000481759076A077B0760F48091160190914E
:100360001701019719F40E941B01DFCF0E94500171
:10037000DCCF0C94960080910A0190910B01895E6C
:100380009340439770F480E090E00E94CB0084E0BB
:100390000E94BF0584EF91E00E94E2020E94850165
:1003A0000BC08091160190911701019719F40E94DA
:1003B0001B0102C00E94500190930B0180930A011F
:1003C0000895089580E090E008950895DF92EF92F7
:1003D000FF920F931F93CF93DF93F89414B817B83D
:1003E0001AB815B818B81BB8529A5A9A14BC85E0B6
:1003F00085BD8FEF87BD82E080936E0010928000F4
:10040000109281002FE83BE0309389002093880010
:1004100080936F005398239891EA9093B000809353
:10042000B1001092B4001092B3008BE080BF83E063
:1004300080937F0086E080937C0083E880937A003D
:1004400080917A00806480937A0080917A0086FDA2
:10045000FCCF10927C0083EA80937A0081E0809345
:100460007B0081E090E00E94440C8F3F11F080936C
:10047000660010925D01C1E0C0933601C0937A011D
:100480001092540110928E0180E990E00E94440C79
:100490008093530180915301887311F0C0935301ED
:1004A00010927E0110927D018FEF90E090937C017D
:1004B00080937B011092590110925A0110925B01B6
:1004C00010925C0181E080931D0182E49FE0909393
:1004D0008D0180938C0180EB90E00E94440CC82F2A
:1004E00081EB90E00E94440C2C2F30E0382B3093AD
:1004F000900120938F0185E090E00E94440C80934E
:10050000930189E090E00E94440C80937F018CE08D
:1005100090E00E94440C8093910184E190E00E945D
:10052000440C809392010EE511E057E3E52E51E073
:10053000F52EC0E2D0E0CE010E94440CD82ECE01B0
:1005400001960E94440C2D2D30E0322F2227282BBB
:10055000F801219331938F01CE01C0960E94440C83
:10056000D82ECE01C1960E94440C2D2D30E0322FA2
:100570002227282BF701219331937F012296CC3338
:10058000D105C9F67894DF91CF911F910F91FF901B
:10059000EF90DF9008951F920F920FB60F921124E3
:1005A0008F930FB6F894A89580916000886180932E
:1005B0006000109260000FBE8F910F900FBE0F90E1
:1005C0001F901895009741F0EFECF7E03197F1F7A5
:1005D00000C000000197F6CF08958093B3006093A8
:1005E000B40008958FEF8093B3008093B4008FE040
:1005F00090E00C94E20280915D0181111EC0F8949C
:1006000087E080937C0083E880937A0080917A0071
:10061000806480937A0080917A0086FDFCCF80917F
:1006200078009091790010927C0023EA20937A0060
:1006300021E020937B00789408958FEF9FEF089539
:1006400080915D0181111EC0F89488EC80937C003C
:1006500087E880937A0080917A00806480937A00A2
:1006600080917A0086FDFCCF80917800909179008E
:1006700010927C0023EA20937A0021E020937B00F3
:10068000789408958FEF9FEF0895CF93DF9320E044
:1006900030E080E0E3EAF1E0C6E0D3E8A1E0B0E0DA
:1006A00090E0F894C0937C00D0937A0040917A0057
:1006B000406440937A0040917A0046FDFCCF40911F
:1006C000780050917900417050917A0050645093B5
:1006D0007A0050917A0056FDFCCF609178007091BD
:1006E000790010927C00E0937A00F0937B0078947C
:1006F0009F5F6170461751F0442359F0AD01022EFF
:1007000001C0440F0A94EAF7842B03C0903849F6DD
:10071000F3CF2F5F3F4F2830310509F0C1CFDF9174
:10072000CF9108958091020198E0899F9001112452
:10073000282790911A0181E0890F80931A01822F56
:10074000829586958770282796959695822F89277A
:1007500080930201089580930201089580915D01C4
:10076000811116C0F89486E080937C0083E8809322
:100770007A0080917A00806480937A0080917A0078
:1007800086FDFCCF8091780090917900789408954F
:100790008FEF9FEF08952F923F924F925F926F924B
:1007A0007F928F929F92AF92BF92CF92DF92EF9201
:1007B000FF920F931F93CF93DF931C01FC01C28123
:1007C000D381C438F3E0DF070CF07EC0809137019D
:1007D000909138018C179D0708F46FC0E9E3F1E0B0
:1007E00011E0819191918C179D0720F01F5F1E30C1
:1007F000C1F71DE0812F90E0FC01EE0FFF1FE95CC7
:10080000FE4FE080F180880F991FFC01EB5CFE4FEA
:1008100080819181B701681B790B80E090E00E9494
:10082000490B9B01AC010E94350A4B015C01BE01E2
:100830000D2E000C880B990B0E944B0B2B013C01D9
:10084000B70180E090E00E94490B6B017C01612FB1
:1008500070E080E090E00E94490B20E030E040E052
:100860005FE30E94D70B20E030E0A9010E94350A27
:10087000A50194010E94D70B9B01AC01C701B601F1
:100880000E94340A9B01AC01C301B2010E94340AE8
:1008900020E030E040E251E40E94D70B0E94130BAD
:1008A0007B01C501B4010E94130BAB01BC01C70160
:1008B000BA010E94B609162F01C010E0CD3B82E0BC
:1008C000D8070CF4CAC001C01FEFF101C080D1806D
:1008D00080915E0190915F018C159D0588F0E0E6A6
:1008E000F1E081E090E0382EE190F190EC14FD040D
:1008F00008F458C001968E309105A9F70AE501C0A9
:1009000000E01F3F09F44BC0BE01DD0F880B990BBF
:100910000E944B0B6B017C01612F70E080E090E046
:100920000E94490B4B015C01A701960160E070E059
:1009300081E694E40E94340A9B01AC01C501B40134
:100940000E94D70B4B015C01602F70E080E090E0CB
:100950000E94490B2B013C0120E030E04FE254E4BF
:10096000C701B6010E94340A9B01AC01C301B20168
:100970000E94D70B9B01AC01C501B4010E94350A4E
:1009800020E030E048E453E40E94A10A20E030E097
:1009900044E052E40E94350A0E941A0B60C061E2F2
:1009A000600F5DC0880F991FFC01E45AFE4F8081E3
:1009B0009181B701681B790B80E090E00E94490BA0
:1009C0009B01AC010E94350A4B015C01B601DD0CB4
:1009D000880B990B0E944B0B2B013C01B70180E067
:1009E00090E00E94490B6B017C01632D70E080E078
:1009F00090E00E94490B20E030E040E05FE30E947D
:100A0000D70B20E030E0A9010E94350AA50194012E
:100A10000E94D70B9B01AC01C701B6010E94340AAA
:100A20009B01AC01C301B2010E94340A20E030E016
:100A300040E251E40E94D70B0E94130B7B01C501D9
:100A4000B4010E94130BAB01BC01C701BA010E94A3
:100A5000B609062F6F3F09F054CF61E2610F862F70
:100A6000DF91CF911F910F91FF90EF90DF90CF908A
:100A7000BF90AF909F908F907F906F905F904F90BE
:100A80003F902F9008951F920F920FB60F9211244E
:100A90002F933F934F935F936F937F938F939F9386
:100AA000AF93BF93EF93FF9320917D0130917E012F
:100AB00080917B0190917C01820F931F90937E0126
:100AC00080937D018FEF90E090937C0180937B0178
:100AD0008FEF87BD8091590190915A01A0915B01E0
:100AE000B0915C010196A11DB11D809359019093B5
:100AF0005A01A0935B01B0935C0180915D0181116B
:100B00002DC080918C0190918D0120917D013091BB
:100B10007E018217930710F580911D018430F1F456
:100B2000E0910501F091060109950097B9F00E9446
:100B30001609882351F0E0910301F0910401099511
:100B400010927E0110927D0109C00E9488009C01D4
:100B5000332730937C0120937B0187BDFF91EF9178
:100B6000BF91AF919F918F917F916F915F914F91C5
:100B70003F912F910F900FBE0F901F90189580FFFF
:100B800002C0559A01C0559881FF02C0549A01C015
:100B9000549882FF02C03B9A01C03B9883FF02C079
:100BA0003A9A01C03A9884FF02C03D9A01C03D982C
:100BB00085FF02C03C9A08953C9808958C017B0102
:100BC000D0E0CFEF84E0D82E98E1C92E29E2B22EF2
:100BD000E0911D01F0E0E730F105D0F7EC5CFF4F4C
:100BE0000C94E909F89480B7877F80BF80917A00E0
:100BF0008F7780937A0014B817B81AB815B818B858
:100C00001BB80FB6F894A895C09260000FBEB092C2
:100C100060008091600080648093600083B7817F72
:100C2000846083BFF89483B7816083BF789488958C
:100C300083B78E7F83BF789410925D01529A5A9A3F
:100C400080917A00806880937A0087E592E001972E
:100C5000F1F700C0000080B7886180BF8FE30E9479
:100C6000BF05EFE1FEE43197F1F700C0000080918D
:100C70005D01882309F450C083E00E94BF05FFEFA7
:100C800020E782E0F15020408040E1F700C0000002
:100C900043C08CE00E94BF05EFECF7E03197F1F71D
:100CA00000C0000080E00E94BF05FFEF21EE84E05D
:100CB000F15020408040E1F72CC00E94AE038B3AF7
:100CC000E2E09E0724F08CE00E94BF0581CF8938C6
:100CD000F2E09F0714F080E3F7CF8736924014F0DC
:100CE0008FE0F2CF83E0F0CF489916C081E00E94F8
:100CF000BF058FEC97E00197F1F700C0000080E09E
:100D00000E94BF059FEFE1EEF4E09150E040F0401B
:100D1000E1F700C000005CCF80E0D6CFD11102C067
:100D2000F8010995D0921D01D1E0F701099550CF46
:100D300080911B01811107C01092B3001092B40082
:100D400010921C0145CF90911B0180911C019817B6
:100D500009F43ECF80911B0180931C0180911B01FF
:100D6000813089F4C093B3001092B4008FE295E70C
:100D70000197F1F700C00000809193018093B300C8
:100D80001092B40025CF80911B011092B300C09344
:100D9000B400823059F4EFE2F5E73197F1F700C083
:100DA000000080917F011092B30010C0C093B30087
:100DB000C093B4008FE295E70197F1F700C00000FF
:100DC00080919201909191019093B3008093B4002F
:100DD000FFCE1F920F920FB60F9211248F939F9305
:100DE00010928100109285001092840081E080931F
:100DF000360180937A0110925D0110927C0093EA93
:100E000090937A0080937B009F918F910F900FBEFB
:100E10000F901F9018951F920F920FB60F921124EA
:100E20000F931F932F933F934F935F936F937F93F2
:100E30008F939F93AF93BF93EF93FF932091840081
:100E40003091850041E040935D0180913601882317
:100E500021F110928500109284004093810010923D
:100E60008E011092360180917A01882309F4AFC176
:100E700080917A0086FDFCCF809178009091790076
:100E8000909358018093570181E080937C0093EA0E
:100E900090937A0080937B009AC1C9018758910989
:100EA00084379940A0F01092810010928500109232
:100EB00084004093360140937A0110925D011092B4
:100EC0007C0083EA80937A0040937B0080C126589F
:100ED0003109A4EFB0E00E94EF098C0122273327EB
:100EE000083060F481E090E001C0880F0A95EAF7CD
:100EF00090918E01892B80938E0169C140933601B8
:100F000080917A01882341F180917A0086FDFCCF9F
:100F100080917800909179009093560180935501CB
:100F200010927C0083EA80937A0081E080937B00BA
:100F300090918E01992359F01092810010928500B2
:100F40001092840080937A0110925D0140C110924A
:100F50007A01109254013BC180915401E82FF0E0D6
:100F6000E058FE4F90918E0190838F5F80935401E3
:100F70008C3009F02CC110928100109285001092E3
:100F8000840040937A0110925D0100918A011091D2
:100F90008B0180E891E00E94FA080817190709F010
:100FA00016C1E0918901E7FD0AC0E0910701F091C7
:100FB000080165E571E080E891E0099508C188E7DE
:100FC0008E0F833030F0539823981092B400109213
:100FD000B3008E2F90E0FC01E058F109EB30F105F1
:100FE00008F0F5C0E55CFF4F0C94E90980916E00B4
:100FF0008D7F80936E0016BCE0E0F0E702C0E0E079
:10100000F0E0099510921D01E2C081E0B2C085E0D8
:10101000B0C082E0AEC080911D01833009F4D7C01A
:1010200080911D01843009F4D2C0539A239A109202
:10103000B4001092B30083E09CC0809180018230A4
:1010400009F44BC080F48823A9F0813009F082C0F4
:1010500080918101909182019093900180938F0102
:1010600010921B0177C0833009F449C0843009F421
:1010700058C070C080911D01863009F06BC060912E
:101080008F0180EB90E00E944C0C6091900181EB0D
:1010900090E00E944C0C6091930185E090E00E94EA
:1010A0004C0C60917F0189E090E00E944C0C6091B3
:1010B00091018CE090E00E944C0C6091920184E1DF
:1010C00090E00E944C0C539823981092B400109218
:1010D000B30081E080931D013DC090911B01809180
:1010E0008301913021F490919301891799F1109225
:1010F0001C0191E090931B01809393012BC0909170
:101100001B0180918401923021F490917F01891715
:1011100009F110921C0192E090931B0180937F01D2
:1011200019C020911B018091860190918501233087
:1011300041F420919201821304C0209191019217F1
:1011400049F010921C0123E020931B019093910120
:1011500080939201809180018823C9F180911D01C3
:101160008630A9F1539A239A1092B4001092B300DA
:1011700086E080931D012BC080911D01863081F097
:10118000539A239A1092B4001092B30080E00E9408
:10119000BF0510921B0110921C0186E080931D0177
:1011A00081E090E00090800102C0880F991F0A94AE
:1011B000E2F720918F013091900182239323892BB4
:1011C00021F081E080931B0102C010921B01FF916E
:1011D000EF91BF91AF919F918F917F916F915F91AF
:1011E0004F913F912F911F910F910F900FBE0F9034
:1011F0001F901895FC019C01265F3F4F8FEF9FEFDA
:1012000041918427082E8295807F8025092E982F72
:1012100082958F700826869598278927880F880FD2
:10122000880F8025E217F30759F708950FB6F89451
:10123000A4B1209153012A2B24B921E0309153010C
:10124000203029F0000025B1232B25B904C000006F
:101250000000000000C0000000000000309525B133
:10126000232325B92EEA2A95F1F72BEE30B735FF67
:101270000AC0A4B930915301309525B1232325B973
:101280000FBE80E0089500002A9581F721E030919B
:101290005301203029F0000025B1232B25B904C0CB
:1012A00000000000000000C00000000000003095B9
:1012B00025B1232325B9000024E52A95F1F7FC0187
:1012C0008CE0619170E0660F771F616072609AE058
:1012D00041E050E09A0126233723232B309153011C
:1012E000203029F0000025B1232B25B904C00000CF
:1012F0000000000000C0000000000000309525B193
:10130000232325B9000021E52A95F1F7440F551F45
:101310009A9501F78A95A9F620B7206120BFA4B954
:1013200030915301309525B1232325B90FBE81E0BB
:1013300008950E94E60181E790E090930801809370
:10134000070184E890E0909306018093050187E807
:1013500090E090930401809303016BEB71E084ECC7
:1013600090E00E94DE0580E090E0089597FB072E54
:1013700016F4009407D077FD09D00E94FE0907FCFF
:1013800005D03EF4909581959F4F08957095619595
:101390007F4F0895052E97FB1EF400940E94E109EB
:1013A00057FD07D00E94120A07FC03D04EF40C949C
:1013B000E10950954095309521953F4F4F4F5F4F34
:1013C000089590958095709561957F4F8F4F9F4FB1
:1013D0000895EE0FFF1F0590F491E02D0994A29F50
:1013E000B001B39FC001A39F700D811D1124911DF9
:1013F000B29F700D811D1124911D0895AA1BBB1B66
:1014000051E107C0AA1FBB1FA617B70710F0A61B04
:10141000B70B881F991F5A95A9F780959095BC0125
:10142000CD010895A1E21A2EAA1BBB1BFD010DC020
:10143000AA1FBB1FEE1FFF1FA217B307E407F50784
:1014400020F0A21BB30BE40BF50B661F771F881F60
:10145000991F1A9469F760957095809590959B01F6
:10146000AC01BD01CF0108955058BB27AA270E94A7
:101470004C0A0C949D0B0E948F0B38F00E94960B27
:1014800020F039F49F3F19F426F40C948C0B0EF4E1
:10149000E095E7FB0C94860BE92F0E94AE0B58F306
:1014A000BA17620773078407950720F079F4A6F549
:1014B0000C94D00B0EF4E0950B2EBA2FA02D0B013F
:1014C000B90190010C01CA01A0011124FF27591B89
:1014D00099F0593F50F4503E68F11A16F040A22F8F
:1014E000232F342F4427585FF3CF46953795279500
:1014F000A795F0405395C9F77EF41F16BA0B620BFF
:10150000730B840BBAF09150A1F0FF0FBB1F661F45
:10151000771F881FC2F70EC0BA0F621F731F841F88
:1015200048F4879577956795B795F7959E3F08F0AE
:10153000B0CF9395880F08F09927EE0F9795879570
:1015400008950E94B50A0C949D0B0E94960B58F0CA
:101550000E948F0B40F029F45F3F29F00C94860B1A
:1015600051110C94D10B0C948C0B0E94AE0B68F3B0
:101570009923B1F3552391F3951B550BBB27AA274C
:1015800062177307840738F09F5F5F4F220F331F86
:10159000441FAA1FA9F335D00E2E3AF0E0E832D04E
:1015A00091505040E695001CCAF72BD0FE2F29D051
:1015B000660F771F881FBB1F261737074807AB0723
:1015C000B0E809F0BB0B802DBF01FF2793585F4F98
:1015D0003AF09E3F510578F00C94860B0C94D10B99
:1015E0005F3FE4F3983ED4F3869577956795B7957A
:1015F000F7959F5FC9F7880F911D9695879597F985
:101600000895E1E0660F771F881FBB1F62177307FD
:101610008407BA0720F0621B730B840BBA0BEE1F12
:1016200088F7E09508950E941A0B6894B1110C9404
:10163000D10B08950E94B60B88F09F5798F0B92FF0
:101640009927B751B0F0E1F0660F771F881F991FF7
:101650001AF0BA95C9F714C0B13091F00E94D00BBE
:10166000B1E008950C94D00B672F782F8827B85FCE
:1016700039F0B93FCCF3869577956795B395D9F74F
:101680003EF490958095709561957F4F8F4F9F4F59
:101690000895E89409C097FB3EF490958095709565
:1016A00061957F4F8F4F9F4F9923A9F0F92F96E9AE
:1016B000BB279395F695879577956795B795F11123
:1016C000F8CFFAF4BB0F11F460FF1BC06F5F7F4FC0
:1016D0008F4F9F4F16C0882311F096E911C07723D2
:1016E00021F09EE8872F762F05C0662371F096E8DB
:1016F000862F70E060E02AF09A95660F771F881FAA
:10170000DAF7880F9695879597F9089597F99F6767
:1017100080E870E060E008959FEF80EC0895002479
:101720000A941616170618060906089500240A9446
:1017300012161306140605060895092E0394000CCC
:1017400011F4882352F0BB0F40F4BF2B11F460FF5B
:1017500004C06F5F7F4F8F4F9F4F089557FD905884
:10176000440F551F59F05F3F71F04795880F97FB65
:10177000991F61F09F3F79F087950895121613061F
:101780001406551FF2CF4695F1DF08C0161617064E
:101790001806991FF1CF8695710561050894089583
:1017A000E894BB2766277727CB0197F908950E9415
:1017B000EA0B0C949D0B0E948F0B38F00E94960B45
:1017C00020F0952311F00C94860B0C948C0B1124B3
:1017D0000C94D10B0E94AE0B70F3959FC1F3950F43
:1017E00050E0551F629FF001729FBB27F00DB11DA5
:1017F000639FAA27F00DB11DAA1F649F6627B00D35
:10180000A11D661F829F2227B00DA11D621F739F1D
:10181000B00DA11D621F839FA00D611D221F749F2B
:101820003327A00D611D231F849F600D211D822F72
:10183000762F6A2F11249F5750409AF0F1F0882399
:101840004AF0EE0FFF1FBB1F661F771F881F9150C6
:101850005040A9F79E3F510580F00C94860B0C94E4
:10186000D10B5F3FE4F3983ED4F386957795679567
:10187000B795F795E7959F5FC1F7FE2B880F911DF0
:101880009695879597F90895F999FECF92BD81BDF8
:10189000F89A992780B50895262FF999FECF1FBA97
:1018A00092BD81BD20BD0FB6F894FA9AF99A0FBE89
:0818B00001960895F894FFCFA2
:0A18B8000400AAE501E201E10100CD
:00000001FF
