:100000000C9434000C9446000C9446000C9446006A
:100010000C9446000C9446000C9446000C94460048
:100020000C9446000C9446000C9446000C94460038
:100030000C9446000C9446000C9446000C94460028
:100040000C9446000C9446000C9448000C94460016
:100050000C9446000C9446000C9446000C94460008
:100060000C9446000C94460011241FBECFEFD8E03C
:10007000DEBFCDBF22E0A0E0B1E001C01D92A03202
:10008000B207E1F70E9454010C94D8020C940000CE
:100090001F920F920FB60F9211242F933F934F93FD
:1000A0005F936F938F939F93AF93BF93EF93FF9360
:1000B0003091C60080910401E82FF0E0EB5FFE4F25
:1000C000208190910301932730839227909303011D
:1000D0008F5F843818F48093040102C010920401E9
:1000E0002091040130E0F901EB5FFE4F80818535FE
:1000F00069F591112BC044E850E0421B530BA8E96D
:10010000B1E080E090E08417950749F0FC01E20F30
:10011000F31FEB5FFE4F60816D930196F4CFDC011E
:10012000A856BE4FE5E0F1E0855091409C012E0FAE
:100130003F1F2438310518F421912D93F7CF81E02A
:10014000809302018091990180939701FF91EF9133
:10015000BF91AF919F918F916F915F914F913F911F
:100160002F910F900FBE0F901F901895FC019C01CE
:10017000265F3F4F8FEF9FEF41918427082E829596
:10018000807F8025092E982F82958F70082686956E
:1001900098278927880F880F880F8025E217F30793
:1001A00059F708950FB6A4B1209101012A2B24B963
:1001B00021E030910101203029F0000025B1232BEE
:1001C00025B904C000000000000000C000000000CD
:1001D0000000309525B1232325B92EEA2A95F1F7A1
:1001E0002BEE30B735FF0AC0A4B93091010130952C
:1001F00025B1232325B90FBE80E0089500002A957C
:1002000081F721E030910101203029F0000025B173
:10021000232B25B904C000000000000000C000002E
:1002200000000000309525B1232325B9000024E506
:100230002A95F1F7FC018CE0619170E0660F771F61
:10024000616072609AE041E050E09A012623372312
:10025000232B30910101203029F0000025B1232B00
:1002600025B904C000000000000000C0000000002C
:100270000000309525B1232325B9000021E52A95FA
:10028000F1F7440F551F9A9501F78A95A9F620B703
:10029000206120BFA4B930910101309525B12323FD
:1002A00025B90FBE81E00895F894219A259A2D98DA
:1002B000299880B7806880BF8CE090E09093C5005B
:1002C0008093C4008091C0008D7F8093C000809196
:1002D000C20086608093C2008091C10088698093CB
:1002E000C100789482E0809301018BE891E09093C3
:1002F0008A018093890190931F0280931E0290933C
:100300001D0280931C0285E02D9A2FEF31EE94E0C0
:10031000215030409040E1F700C000002D98AFEF31
:10032000B1EE24E0A150B0402040E1F700C0000051
:10033000815051F7CAE0D1E018E001E886E0F82EDC
:10034000809102018823E1F31092020180919701CC
:10035000833009F475C038F4813079F0823081F748
:1003600080E090E017C0853009F4CAC008F490C05E
:10037000863031F780E090E03BC081E09091000151
:10038000911180E080930001882311F02D9AD8CF3D
:100390002D98D6CFFC01E856FE4F2281E0911C0239
:1003A000F0911D02E80FF91F208301968A30910514
:1003B00089F78BE891E00E94B600909396018093B4
:1003C0009501809102018111BBCF8BE891E00E94E1
:1003D000D2002D9A8FE697E10197F1F700C0000057
:1003E0002D98AFE6B7E11197F1F700C00000E9CF13
:1003F000FC01E856FE4F2281E0911C02F0911D02A3
:10040000E80FF91F208301968A30910589F78BE860
:1004100091E00E94B60090939601809395018BE83D
:1004200091E00E94D2002D9A8FE697E10197F1F7B3
:1004300000C000002D98AFE6B7E11197F1F79CC01E
:1004400080E090E0FC01E856FE4F2281E0911C0222
:10045000F0911D02E80FF91F208301968C30910561
:1004600089F78091020181116BCF8BE891E00E94A6
:10047000D2002D9A8FE697E10197F1F700C00000B6
:100480002D98AFE6B7E11197F1F700C00000E9CF72
:1004900000939401E0918901F0918A0180919A0181
:1004A00080831086F894E0E0F0E08E2FE438F105C8
:1004B00009F455C0909102016F01B6E0CB0ED11C3A
:1004C00091114DC0A0918901B0918A018695119634
:1004D0008C9311971296E556FE4F8F2D01900D9239
:1004E0008A95E1F78BE891E00E94B600909396011F
:1004F000809395018BE891E00E94D200F601D5CF60
:10050000EBE8F1E0DF012C2F1D922A95E9F7D0935B
:100510009401F894C12CD12CA0911E02B0911F021D
:10052000F601E656FE4F812F01900D928A95E1F774
:10053000E0911E02F0911F0280819181892BF9F4D4
:1005400082819381892BD9F484819581892BB9F497
:100550008681811114C087819085892B81F47894DC
:100560002D9A8FE19EE40197F1F700C000002D98CD
:10057000AFE1BEE41197F1F700C00000E1CE8BE8D7
:1005800091E00E94B60090939601809395018BE8CC
:1005900091E00E94D200B5E8BA95F1F7000028E09A
:1005A000C20ED11C30E8C316D10409F0B5CFD7CFA5
:0405B000F894FFCFED
:00000001FF
