:107000000C9434380C9446380C9446380C9446381A
:107010000C9446380C9446380C9446380C944638F8
:107020000C9446380C9446380C9446380C944638E8
:107030000C9446380C9446380C9446380C944638D8
:107040000C9446380C9446380C9448380C944638C6
:107050000C9446380C9446380C9446380C944638B8
:107060000C9446380C94463811241FBECFEFD8E05C
:10707000DEBFCDBF22E0A0E0B1E001C01D92A03292
:10708000B207E1F70E9449390C94C73A0C940038D2
:107090001F920F920FB60F9211242F933F938F934D
:1070A0009F93AF93BF93EF93FF932091C60090916E
:1070B0000401E92FF0E0EB5FFE4F30818091030186
:1070C000822720838327809303019F5F943818F4DD
:1070D0009093040102C0109204012091040130E059
:1070E000F901EB5FFE4F9081953541F5811126C086
:1070F00084E890E0821B930BA8E9B1E09D01285938
:1071000031402817390718F421912D93F7CFDC016E
:10711000A856BE4FE5E0F1E0855091409F01280F51
:10712000391F2438310518F421912D93F7CF81E0D0
:10713000809302018091990180939701FF91EF91D3
:10714000BF91AF919F918F913F912F910F900FBE63
:107150000F901F901895FC019C01265F3F4F8FEF09
:107160009FEF41918427082E8295807F8025092EEC
:10717000982F82958F700826869598278927880FE3
:10718000880F880F8025E217F30759F708950FB687
:10719000AAB1209101012A2B2AB921E030910101E5
:1071A000203029F000002BB1232B2BB904C00000A4
:1071B0000000000000C000000000000030952BB16E
:1071C00023232BB92EEA2A95F1F72BEE30B735FFA2
:1071D0000AC0AAB93091010130952BB123232BB9F4
:1071E0000FBE80E0089500002A9581F721E03091DC
:1071F0000101203029F000002BB1232B2BB904C052
:1072000000000000000000C00000000000003095F9
:107210002BB123232BB9000024E52A95F1F7FC01BB
:107220008CE0619170E0660F771F616072609AE098
:1072300041E050E09A0126233723232B30910101AE
:10724000203029F000002BB1232B2BB904C0000003
:107250000000000000C000000000000030952BB1CD
:1072600023232BB9000021E52A95F1F7440F551F80
:107270009A9501F78A95A9F620B7206120BFAAB98F
:107280003091010130952BB123232BB90FBE81E042
:107290000895F894539A219A29985B9880B780684A
:1072A00080BF81E085BF82E085BF8CE090E0909355
:1072B000C5008093C4008091C0008D7F8093C00082
:1072C0008091C20086608093C2008091C10088696D
:1072D0008093C100789488E0809301018BE891E06D
:1072E00090938A018093890190931F0280931E02DC
:1072F00090931D0280931C0285E0299A2FEF31EEB6
:1073000094E0215030409040E1F700C000002998FF
:10731000AFEFB1EE24E0A150B0402040E1F700C053
:107320000000815051F71AE001E081E8F82E8091C9
:1073300002018823E1F310920201809197018330CA
:1073400009F473C048F4813099F0823081F7AAE9DA
:10735000B1E080E090E019C0853009F4C3C008F4C2
:107360008BC0863021F7AAE9B1E080E090E038C018
:107370008091000191E0811190E0909300018111D2
:1073800002C0299AD4CF2998D2CF2D91E0911C0226
:10739000F0911D02E80FF91F208301968A309105B4
:1073A000A1F78BE891E00E94AB389093960180930F
:1073B0009501809102018111BACF8BE891E00E9482
:1073C000C738299A8FE697E10197F1F700C00000CE
:1073D0002998AFE6B7E11197F1F700C00000E9CFB7
:1073E0002D91E0911C02F0911D02E80FF91F2083FE
:1073F00001968A309105A1F78BE891E00E94AB38A5
:1074000090939601809395018BE891E00E94C73894
:10741000299A8FE697E10197F1F700C000002998BB
:10742000AFE6B7E11197F1F799C0AAE9B1E080E0C2
:1074300090E02D91E0911C02F0911D02E80FF91FE0
:10744000208301968C309105A1F780910201811172
:107450006ECF8BE891E00E94C738299A8FE697E1BA
:107460000197F1F700C000002998AFE6B7E1119746
:10747000F1F700C00000E9CFF0929401E09189019A
:10748000F0918A0180919A0180831086F894E0E05F
:10749000F0E08E2FE438F10509F453C09091020119
:1074A000EF01269691114DC0A0918901B0918A01FA
:1074B000869511968C9311971296E556FE4F86E0AD
:1074C00001900D928A95E1F78BE891E00E94AB382C
:1074D00090939601809395018BE891E00E94C738C4
:1074E000FE01D7CFEBE8F1E0DF01212F1D922A95B5
:1074F000E9F700939401F894C0E0D0E0A0911E0257
:10750000B0911F0288E0FE01E656FE4F01900D92F9
:107510008A95E1F7E0911E02F0911F02808191812E
:10752000892BF9F482819381892BD9F48481958107
:10753000892BB9F48681811114C087819085892BAC
:1075400081F47894299A8FE19EE40197F1F700C0C5
:1075500000002998AFE1BEE41197F1F700C00000E8
:10756000E6CE8BE891E00E94AB3890939601809331
:1075700095018BE891E00E94C738B5E8BA95F1F71C
:1075800000002896C038D10509F0B8CFDACFF894BA
:02759000FFCF2B
:040000030000700089
:00000001FF
