:100000000C9446000C946F000C946F000C946F00DD
:100010000C946F000C946F000C949B010C946F0077
:100020000C946F000C946F000C946F000C94B90545
:100030000C946F000C946F000C9413040C946F00DC
:100040000C946F000C946F000C946F000C946F0074
:100050000C946F000C946F000C946F000C94DB05F3
:100060000C946F000C946F00C20419052D055E05F9
:10007000650544056805C606B707B707CF06D2066B
:10008000D506D706D906DB068C07ED0611241FBE60
:10009000CFEFD8E0DEBFCDBF14BE0FB6F894A89561
:1000A00080916000886180936000109260000FBEB4
:1000B00011E0A0E0B1E0E2E1F7E102C005900D92AD
:1000C000AC30B107D9F721E0ACE0B1E001C01D923E
:1000D000AE36B207E1F70E9469080C94870B0C94C6
:1000E00000000895CF93DF93C2E0D0E00E94C201E8
:1000F00060916C0180916B010E94BD0184E00E94BF
:100100008F0480ED97E00E94B2010E94C20160E07E
:1001100080916D010E94BD0181E00E948F0480EDFD
:1001200097E00E94B2010E94C2016091590180E0F3
:100130000E94BD0184E10E948F0480ED97E00E943F
:10014000B20160E080E00E94BD0180E00E948F0467
:1001500084EF91E00E94B201219741F6DF91CF91A7
:100160000895089580E090E008950895DF92EF9259
:10017000FF920F931F93CF93DF93F89414B817B89F
:100180001AB815B818B81BB8529A5A9A14BC85E018
:1001900085BD8FEF87BD82E080936E001092800056
:1001A000109281002FE83BE0309389002093880073
:1001B00080936F005398239891EA9093B0008093B6
:1001C000B1001092B4001092B3008BE080BF83E0C6
:1001D00080937F0086E080937C0083E880937A00A0
:1001E00080917A00806480937A0080917A0086FD05
:1001F000FCCF10927C0083EA80937A0081E08093A8
:100200007B0081E090E00E941D0B8F3F11F08093F6
:10021000660010923701C1E0C0931001C0935401F1
:1002200010922E011092680180E990E00E941D0B4F
:1002300080932D0180912D01887311F0C0932D01C1
:1002400010925801109257018FEF90E09093560151
:1002500080935501109233011092340110923501B0
:100260001092360181E080930F0182E49FE0909329
:1002700067018093660180EB90E00E941D0BC82F00
:1002800081EB90E00E941D0B2C2F30E0382B309337
:100290006A012093690185E090E00E941D0B809324
:1002A0006D0189E090E00E941D0B809359018CE064
:1002B00090E00E941D0B80936B0184E190E00E940E
:1002C0001D0B80936C0108E311E051E1E52E51E034
:1002D000F52EC0E2D0E0CE010E941D0BD82ECE013B
:1002E00001960E941D0B2D2D30E0322F2227282B46
:1002F000F801219331938F01CE01C0960E941D0B0E
:10030000D82ECE01C1960E941D0B2D2D30E0322F2C
:100310002227282BF701219331937F012296CC339A
:10032000D105C9F67894DF91CF911F910F91FF907D
:10033000EF90DF9008951F920F920FB60F92112445
:100340008F930FB6F894A895809160008861809390
:100350006000109260000FBE8F910F900FBE0F9043
:100360001F901895009741F0EFECF7E03197F1F707
:1003700000C000000197F6CF08958093B30060930A
:10038000B40008958FEF8093B3008093B4008FE0A2
:1003900090E00C94B2018091370181111EC0F89455
:1003A00087E080937C0083E880937A0080917A00D4
:1003B000806480937A0080917A0086FDFCCF8091E2
:1003C00078009091790010927C0023EA20937A00C3
:1003D00021E020937B00789408958FEF9FEF08959C
:1003E0008091370181111EC0F89488EC80937C00C5
:1003F00087E880937A0080917A00806480937A0005
:1004000080917A0086FDFCCF8091780090917900F0
:1004100010927C0023EA20937A0021E020937B0055
:10042000789408958FEF9FEF0895CF93DF9320E0A6
:1004300030E080E0E3EAF1E0C6E0D3E8A1E0B0E03C
:1004400090E0F894C0937C00D0937A0040917A00B9
:10045000406440937A0040917A0046FDFCCF409181
:10046000780050917900417050917A005064509317
:100470007A0050917A0056FDFCCF6091780070911F
:10048000790010927C00E0937A00F0937B007894DE
:100490009F5F6170461751F0442359F0AD01022E61
:1004A00001C0440F0A94EAF7842B03C0903849F640
:1004B000F3CF2F5F3F4F2830310509F0C1CFDF91D7
:1004C000CF9108958091000198E0899F90011124B7
:1004D000282790910C0181E0890F80930C01822FD5
:1004E000829586958770282796959695822F8927DD
:1004F0008093000108958093000108958091370151
:10050000811116C0F89486E080937C0083E8809384
:100510007A0080917A00806480937A0080917A00DA
:1005200086FDFCCF809178009091790078940895B1
:100530008FEF9FEF08952F923F924F925F926F92AD
:100540007F928F929F92AF92BF92CF92DF92EF9263
:10055000FF920F931F93CF93DF931C01FC01C28185
:10056000D381C438F3E0DF070CF07EC08091110125
:10057000909112018C179D0708F46FC0E3E1F1E040
:1005800011E0819191918C179D0720F01F5F1E3023
:10059000C1F71DE0812F90E0FC01EE0FFF1FEF5E21
:1005A000FE4FE080F180880F991FFC01E15FFE4F54
:1005B00080819181B701681B790B80E090E00E94F7
:1005C000C6099B01AC010E94B2084B015C01BE014F
:1005D0000D2E000C880B990B0E94C8092B013C01C1
:1005E000B70180E090E00E94C6096B017C01612F99
:1005F00070E080E090E00E94C60920E030E040E03A
:100600005FE30E94540A20E030E0A9010E94B20892
:10061000A50194010E94540A9B01AC01C701B601D7
:100620000E94B1089B01AC01C301B2010E94B10854
:1006300020E030E040E251E40E94540A0E94900918
:100640007B01C501B4010E949009AB01BC01C70147
:10065000BA010E947408162F01C010E0CD3B82E061
:10066000D8070CF4CAC001C01FEFF101C080D180CF
:1006700080913801909139018C159D0588F0EAE34D
:10068000F1E081E090E0382EE190F190EC14FD046F
:1006900008F458C001968E309105A9F70AE501C00B
:1006A00000E01F3F09F44BC0BE01DD0F880B990B22
:1006B0000E94C8096B017C01612F70E080E090E02E
:1006C0000E94C6094B015C01A701960160E070E041
:1006D00081E694E40E94B1089B01AC01C501B4011C
:1006E0000E94540A4B015C01602F70E080E090E0B2
:1006F0000E94C6092B013C0120E030E04FE254E4A7
:10070000C701B6010E94B1089B01AC01C301B2014F
:100710000E94540A9B01AC01C501B4010E94B208B9
:1007200020E030E048E453E40E941E0920E030E07D
:1007300044E052E40E94B2080E94970960C061E25E
:10074000600F5DC0880F991FFC01EA5CFE4F80813D
:100750009181B701681B790B80E090E00E94C60987
:100760009B01AC010E94B2084B015C01B601DD0C9B
:10077000880B990B0E94C8092B013C01B70180E04E
:1007800090E00E94C6096B017C01632D70E080E05F
:1007900090E00E94C60920E030E040E05FE30E9464
:1007A000540A20E030E0A9010E94B208A50194019A
:1007B0000E94540A9B01AC01C701B6010E94B10816
:1007C0009B01AC01C301B2010E94B10820E030E0FE
:1007D00040E251E40E94540A0E9490097B01C50145
:1007E000B4010E949009AB01BC01C701BA010E948B
:1007F0007408062F6F3F09F054CF61E2610F862F16
:10080000DF91CF911F910F91FF90EF90DF90CF90EC
:10081000BF90AF909F908F907F906F905F904F9020
:100820003F902F9008951F920F920FB60F921124B0
:100830002F933F934F935F936F937F938F939F93E8
:10084000AF93BF93EF93FF932091570130915801DD
:100850008091550190915601820F931F90935801FA
:10086000809357018FEF90E090935601809355014C
:100870008FEF87BD8091330190913401A0913501B4
:10088000B09136010196A11DB11D80933301909363
:100890003401A0933501B093360180913701811165
:1008A0002DC0809166019091670120915701309190
:1008B00058018217930710F580910F018430F1F4ED
:1008C000E0910301F091040109950097B9F00E94AD
:1008D000E607882351F0E0910101F09102010995AA
:1008E000109258011092570109C00E940D0B9C01F3
:1008F0003327309356012093550187BDFF91EF9127
:10090000BF91AF919F918F917F916F915F914F9127
:100910003F912F910F900FBE0F901F90189580FF61
:1009200002C0559A01C0559881FF02C0549A01C077
:10093000549882FF02C03B9A01C03B9883FF02C0DB
:100940003A9A01C03A9884FF02C03D9A01C03D988E
:1009500085FF02C03C9A08953C9808958C017B0164
:10096000D0E0CFEF84E0D82E98E1C92E29E2B22E54
:10097000E0910F01F0E0E730F105D0F7EC5CFF4FBC
:100980000C948808F89480B7877F80BF80917A00A4
:100990008F7780937A0014B817B81AB815B818B8BA
:1009A0001BB80FB6F894A895C09260000FBEB09225
:1009B00060008091600080648093600083B7817FD5
:1009C000846083BFF89483B7816083BF78948895EF
:1009D00083B78E7F83BF789410923701529A5A9AC8
:1009E00080917A00806880937A0087E592E0019791
:1009F000F1F700C0000080B7886180BF8FE30E94DC
:100A00008F04EFE1FEE43197F1F700C00000809120
:100A10003701882309F450C083E00E948F04FFEF60
:100A200020E782E0F15020408040E1F700C0000064
:100A300043C08CE00E948F04EFECF7E03197F1F7B0
:100A400000C0000080E00E948F04FFEF21EE84E0F0
:100A5000F15020408040E1F72CC00E947E028B3A8A
:100A6000E2E09E0724F08CE00E948F0481CF893859
:100A7000F2E09F0714F080E3F7CF8736924014F03E
:100A80008FE0F2CF83E0F0CF489916C081E00E945A
:100A90008F048FEC97E00197F1F700C0000080E031
:100AA0000E948F049FEFE1EEF4E09150E040F040AF
:100AB000E1F700C000005CCF80E0D6CFD11102C0CA
:100AC000F8010995D0920F01D1E0F701099550CFB7
:100AD00080910D01811107C01092B3001092B400F3
:100AE00010920E0145CF90910D0180910E01981743
:100AF00009F43ECF80910D0180930E0180910D018C
:100B0000813089F4C093B3001092B4008FE295E76E
:100B10000197F1F700C0000080916D018093B30050
:100B20001092B40025CF80910D011092B300C093B4
:100B3000B400823059F4EFE2F5E73197F1F700C0E5
:100B40000000809159011092B30010C0C093B3000F
:100B5000C093B4008FE295E70197F1F700C0000061
:100B600080916C0190916B019093B3008093B400DD
:100B7000FFCE1F920F920FB60F9211248F939F9367
:100B800010928100109285001092840081E0809381
:100B90001001809354011092370110927C0093EA67
:100BA00090937A0080937B009F918F910F900FBE5E
:100BB0000F901F9018951F920F920FB60F9211244D
:100BC0000F931F932F933F934F935F936F937F9355
:100BD0008F939F93AF93BF93EF93FF9320918400E4
:100BE0003091850041E040933701809110018823C6
:100BF00021F11092850010928400409381001092A0
:100C000068011092100180915401882309F4AFC14A
:100C100080917A0086FDFCCF8091780090917900D8
:100C2000909332018093310181E080937C0093EABC
:100C300090937A0080937B009AC1C90187589109EB
:100C400084379940A0F01092810010928500109294
:100C50008400409310014093540110923701109288
:100C60007C0083EA80937A0040937B0080C1265801
:100C70003109A4EFB0E00E948E088C0122273327AF
:100C8000083060F481E090E001C0880F0A95EAF72F
:100C900090916801892B8093680169C1409310018C
:100CA00080915401882341F180917A0086FDFCCF28
:100CB00080917800909179009093300180932F017A
:100CC00010927C0083EA80937A0081E080937B001D
:100CD00090916801992359F010928100109285003B
:100CE00010928400809354011092370140C11092F9
:100CF000540110922E013BC180912E01E82FF0E0AB
:100D0000E65AFE4F9091680190838F5F80932E0189
:100D10008C3009F02CC11092810010928500109245
:100D200084004093540110923701009164011091A6
:100D300065018AE591E00E94CA070817190709F0C2
:100D400016C1E0916301E7FD0AC0E0910501F09151
:100D500006016FE271E08AE591E0099508C188E734
:100D60008E0F833030F0539823981092B400109275
:100D7000B3008E2F90E0FC01E058F109EB30F10553
:100D800008F0F5C0E55CFF4F0C94880880916E0078
:100D90008D7F80936E0016BCE0E0F0E702C0E0E0DB
:100DA000F0E0099510920F01E2C081E0B2C085E049
:100DB000B0C082E0AEC080910F01833009F4D7C08B
:100DC00080910F01843009F4D2C0539A239A109273
:100DD000B4001092B30083E09CC080915A0182302D
:100DE00009F44BC080F48823A9F0813009F082C057
:100DF00080915B0190915C0190936A0180936901FD
:100E000010920D0177C0833009F449C0843009F491
:100E100058C070C080910F01863009F06BC060919E
:100E2000690180EB90E00E94250B60916A0181EBE3
:100E300090E00E94250B60916D0185E090E00E949A
:100E4000250B6091590189E090E00E94250B60918B
:100E50006B018CE090E00E94250B60916C0184E1B5
:100E600090E00E94250B539823981092B4001092A2
:100E7000B30081E080930F013DC090910D018091FE
:100E80005D01913021F490916D01891799F11092D3
:100E90000E0191E090930D0180936D012BC0909114
:100EA0000D0180915E01923021F4909159018917D2
:100EB00009F110920E0192E090930D018093590177
:100EC00019C020910D018091600190915F01233044
:100ED00041F420916C01821304C020916B019217A0
:100EE00049F010920E0123E020930D0190936B01C5
:100EF00080936C0180915A018823C9F180910F0180
:100F00008630A9F1539A239A1092B4001092B3003C
:100F100086E080930F012BC080910F01863081F015
:100F2000539A239A1092B4001092B30080E00E946A
:100F30008F0410920D0110920E0186E080930F0134
:100F400081E090E000905A0102C0880F991F0A9436
:100F5000E2F72091690130916A0182239323892B62
:100F600021F081E080930D0102C010920D01FF91EC
:100F7000EF91BF91AF919F918F917F916F915F9111
:100F80004F913F912F911F910F910F900FBE0F9096
:100F90001F901895FC019C01265F3F4F8FEF9FEF3C
:100FA00041918427082E8295807F8025092E982FD5
:100FB00082958F700826869598278927880F880F35
:100FC000880F8025E217F30759F708950FB6F894B4
:100FD000A4B120912D012A2B24B921E030912D01BB
:100FE000203029F0000025B1232B25B904C00000D2
:100FF0000000000000C0000000000000309525B196
:10100000232325B92EEA2A95F1F72BEE30B735FFC9
:101010000AC0A4B930912D01309525B1232325B9FB
:101020000FBE80E0089500002A9581F721E03091FD
:101030002D01203029F0000025B1232B25B904C053
:1010400000000000000000C000000000000030951B
:1010500025B1232325B9000024E52A95F1F7FC01E9
:101060008CE0619170E0660F771F616072609AE0BA
:1010700041E050E09A0126233723232B30912D01A4
:10108000203029F0000025B1232B25B904C0000031
:101090000000000000C0000000000000309525B1F5
:1010A000232325B9000021E52A95F1F7440F551FA8
:1010B0009A9501F78A95A9F620B7206120BFA4B9B7
:1010C00030912D01309525B1232325B90FBE81E044
:1010D00008950E94B60062E770E081E790E00E9408
:1010E000AE0480E090E0089597FB072E16F400947C
:1010F00007D077FD09D00E949D0807FC05D03EF47B
:10110000909581959F4F0895709561957F4F0895B3
:10111000EE0FFF1F0590F491E02D0994A29FB001FE
:10112000B39FC001A39F700D811D1124911DB29F1B
:10113000700D811D1124911D0895AA1BBB1B51E147
:1011400007C0AA1FBB1FA617B70710F0A61BB70B37
:10115000881F991F5A95A9F780959095BC01CD01DC
:1011600008955058BB27AA270E94C9080C941A0A50
:101170000E940C0A38F00E94130A20F039F49F3FB5
:1011800019F426F40C94090A0EF4E095E7FB0C948C
:10119000030AE92F0E942B0A58F3BA176207730754
:1011A0008407950720F079F4A6F50C944D0A0EF407
:1011B000E0950B2EBA2FA02D0B01B90190010C0167
:1011C000CA01A0011124FF27591B99F0593F50F47F
:1011D000503E68F11A16F040A22F232F342F4427D7
:1011E000585FF3CF469537952795A795F0405395CF
:1011F000C9F77EF41F16BA0B620B730B840BBAF09F
:101200009150A1F0FF0FBB1F661F771F881FC2F709
:101210000EC0BA0F621F731F841F48F4879577951D
:101220006795B795F7959E3F08F0B0CF9395880FD7
:1012300008F09927EE0F9795879508950E94320937
:101240000C941A0A0E94130A58F00E940C0A40F0EB
:1012500029F45F3F29F00C94030A51110C944E0AB3
:101260000C94090A0E942B0A68F39923B1F35523C1
:1012700091F3951B550BBB27AA27621773078407A9
:1012800038F09F5F5F4F220F331F441FAA1FA9F33F
:1012900035D00E2E3AF0E0E832D091505040E6952D
:1012A000001CCAF72BD0FE2F29D0660F771F881F8E
:1012B000BB1F261737074807AB07B0E809F0BB0B81
:1012C000802DBF01FF2793585F4F3AF09E3F510595
:1012D00078F00C94030A0C944E0A5F3FE4F3983EB6
:1012E000D4F3869577956795B795F7959F5FC9F77E
:1012F000880F911D9695879597F90895E1E0660FFF
:10130000771F881FBB1F621773078407BA0720F077
:10131000621B730B840BBA0BEE1F88F7E0950895E0
:101320000E9497096894B1110C944E0A08950E9486
:10133000330A88F09F5798F0B92F9927B751B0F02A
:10134000E1F0660F771F881F991F1AF0BA95C9F749
:1013500014C0B13091F00E944D0AB1E008950C9490
:101360004D0A672F782F8827B85F39F0B93FCCF343
:10137000869577956795B395D9F73EF490958095C6
:10138000709561957F4F8F4F9F4F0895E89409C0E6
:1013900097FB3EF490958095709561957F4F8F4FA8
:1013A0009F4F9923A9F0F92F96E9BB279395F695BE
:1013B000879577956795B795F111F8CFFAF4BB0F3C
:1013C00011F460FF1BC06F5F7F4F8F4F9F4F16C0A0
:1013D000882311F096E911C0772321F09EE8872F2A
:1013E000762F05C0662371F096E8862F70E060E0E6
:1013F0002AF09A95660F771F881FDAF7880F96955F
:10140000879597F9089597F99F6780E870E060E005
:1014100008959FEF80EC089500240A94161617068D
:1014200018060906089500240A94121613061406D5
:1014300005060895092E0394000C11F4882352F038
:10144000BB0F40F4BF2B11F460FF04C06F5F7F4FF0
:101450008F4F9F4F089557FD9058440F551F59F0D7
:101460005F3F71F04795880F97FB991F61F09F3F91
:1014700079F087950895121613061406551FF2CFBA
:101480004695F1DF08C0161617061806991FF1CF0A
:1014900086957105610508940895E894BB27662731
:1014A0007727CB0197F908950E94670A0C941A0ACE
:1014B0000E940C0A38F00E94130A20F0952311F0C4
:1014C0000C94030A0C94090A11240C944E0A0E94ED
:1014D0002B0A70F3959FC1F3950F50E0551F629F43
:1014E000F001729FBB27F00DB11D639FAA27F00D7D
:1014F000B11DAA1F649F6627B00DA11D661F829FA4
:101500002227B00DA11D621F739FB00DA11D621F88
:10151000839FA00D611D221F749F3327A00D611DA5
:10152000231F849F600D211D822F762F6A2F112487
:101530009F5750409AF0F1F088234AF0EE0FFF1FBA
:10154000BB1F661F771F881F91505040A9F79E3F11
:10155000510580F00C94030A0C944E0A5F3FE4F3AB
:10156000983ED4F3869577956795B795F795E79567
:101570009F5FC1F7FE2B880F911D9695879597F970
:1015800008958F929F92AF92BF92CF92DF92EF9287
:10159000FF92CF93DF93EC01688179818A819B81EF
:1015A000611571058105910521F464E279ED8BE502
:1015B00097E02DE133EF41E050E00E94330B490109
:1015C0005A019B01AC01A7EAB1E40E94520B6B01E6
:1015D0007C01ACEEB4EFA50194010E94600BDC012C
:1015E000CB018C0D9D1DAE1DBF1DB7FF03C0019724
:1015F000A109B04888839983AA83BB839F77DF9131
:10160000CF91FF90EF90DF90CF90BF90AF909F90E1
:101610008F9008950E94C10A089587E091E00E948A
:10162000C10A0895A0E0B0E08093070190930801FB
:10163000A0930901B0930A010895F999FECF92BDD4
:1016400081BDF89A992780B50895262FF999FECF84
:101650001FBA92BD81BD20BD0FB6F894FA9AF99ACF
:101660000FBE01960895052E97FB1EF400940E946C
:101670004A0B57FD07D00E94650B07FC03D04EF4C0
:101680000C944A0B50954095309521953F4F4F4F04
:101690005F4F089590958095709561957F4F8F4F1E
:1016A0009F4F08950E948E08A59F900DB49F900DA6
:1016B000A49F800D911D11240895B7FF0C94520B27
:1016C0000E94520B821B930B0895A1E21A2EAA1BB3
:1016D000BB1BFD010DC0AA1FBB1FEE1FFF1FA217E2
:1016E000B307E407F50720F0A21BB30BE40BF50BDF
:1016F000661F771F881F991F1A9469F76095709568
:10170000809590959B01AC01BD01CF010895F8949F
:02171000FFCF09
:0C171200AAB500B200B100010000000008
:00000001FF
