:100000000C9446000C946F000C946F000C946F00DD
:100010000C946F000C946F000C94E1010C946F0031
:100020000C946F000C946F000C946F000C94FF05FF
:100030000C946F000C946F000C9459040C946F0096
:100040000C946F000C946F000C946F000C946F0074
:100050000C946F000C946F000C946F000C942106AC
:100060000C946F000C946F0008055F057305A405E0
:10007000AB058A05AE050C07FD07FD071507180738
:100080001B071D071F072107D207330711241FBEB7
:10009000CFEFD8E0DEBFCDBF14BE0FB6F894A89561
:1000A00080916000886180936000109260000FBEB4
:1000B00011E0A0E0B1E0E6EBF7E102C005900D929F
:1000C000AC30B107D9F721E0ACE0B1E001C01D923E
:1000D000A238B207E1F70E94AF080C94D90B0C9438
:1000E000000088E191E0089581E090E09093110193
:1000F000809310010895CF93DF93C8E1D1E0198672
:100100001882CE010E9410089B878A87DF91CF91C9
:1001100008954091470150914801609149017091C3
:100120004A0180910C0190910D01A0910E01B091B6
:100130000F01805C9F4FAF4FBF4F84179507A607F5
:10014000B707C0F58091470190914801A0914901FE
:10015000B0914A0180930C0190930D01A0930E0180
:10016000B0930F011092210180911201909113011F
:10017000892B89F41092180188E191E00E941008FF
:10018000909323018093220181E090E090931301EA
:10019000809312010FC081E08093180188E191E003
:1001A0000E94100890932301809322011092130162
:1001B0001092120180911001909111010197B1F4F8
:1001C000109211011092100180911201909113016F
:1001D000892B11F481E101C084E10E94D50484E6F9
:1001E00090E00E94F80180E00C94D50408950895F1
:1001F00080E090E008950895DF92EF92FF920F93D0
:100200001F93CF93DF93F89414B817B81AB815B8A2
:1002100018B81BB8529A5A9A14BC85E085BD8FEF66
:1002200087BD82E080936E00109280001092810062
:100230002FE83BE0309389002093880080936F0083
:100240005398239891EA9093B0008093B100109254
:10025000B4001092B3008BE080BF83E080937F00F6
:1002600086E080937C0083E880937A0080917A0016
:10027000806480937A0080917A0086FDFCCF109292
:100280007C0083EA80937A0081E080937B0081E0A8
:1002900090E00E946F0B8F3F11F0809366001092E8
:1002A0004B01C1E0C0932401C09368011092420148
:1002B00010927C0180E990E00E946F0B80934101D5
:1002C00080914101887311F0C093410110926C013B
:1002D00010926B018FEF90E090936A018093690117
:1002E00010924701109248011092490110924A0160
:1002F00081E08093170182E49FE090937B018093DB
:100300007A0180EB90E00E946F0BC82F81EB90E0A8
:100310000E946F0B2C2F30E0382B30937E012093FE
:100320007D0185E090E00E946F0B8093810189E060
:1003300090E00E946F0B80936D018CE090E00E9432
:100340006F0B80937F0184E190E00E946F0B80939C
:1003500080010CE411E055E2E52E51E0F52EC0E2FB
:10036000D0E0CE010E946F0BD82ECE0101960E94E4
:100370006F0B2D2D30E0322F2227282BF8012193EF
:1003800031938F01CE01C0960E946F0BD82ECE0103
:10039000C1960E946F0B2D2D30E0322F2227282B83
:1003A000F701219331937F012296CC33D105C9F611
:1003B0007894DF91CF911F910F91FF90EF90DF9094
:1003C00008951F920F920FB60F9211248F930FB6BC
:1003D000F894A895809160008861809360001092E5
:1003E00060000FBE8F910F900FBE0F901F90189559
:1003F000009741F0EFECF7E03197F1F700C0000013
:100400000197F6CF08958093B3006093B4000895E8
:100410008FEF8093B3008093B4008FE090E00C9452
:10042000F80180914B0181111EC0F89487E0809300
:100430007C0083E880937A0080917A0080648093C6
:100440007A0080917A0086FDFCCF809178009091AF
:10045000790010927C0023EA20937A0021E0209317
:100460007B00789408958FEF9FEF089580914B0162
:1004700081111EC0F89488EC80937C0087E88093FB
:100480007A0080917A00806480937A0080917A006B
:1004900086FDFCCF809178009091790010927C00CD
:1004A00023EA20937A0021E020937B00789408953A
:1004B0008FEF9FEF0895CF93DF9320E030E080E04F
:1004C000E3EAF1E0C6E0D3E8A1E0B0E090E0F89420
:1004D000C0937C00D0937A0040917A0040644093AE
:1004E0007A0040917A0046FDFCCF4091780050910F
:1004F0007900417050917A00506450937A00509185
:100500007A0056FDFCCF60917800709179001092CE
:100510007C00E0937A00F0937B0078949F5F617099
:10052000461751F0442359F0AD01022E01C0440F8B
:100530000A94EAF7842B03C0903849F6F3CF2F5F73
:100540003F4F2830310509F0C1CFDF91CF91089599
:100550008091000198E0899F9001112428279091B3
:10056000140181E0890F80931401822F8295869572
:100570008770282796959695822F8927809300016A
:10058000089580930001089580914B01811116C058
:10059000F89486E080937C0083E880937A008091D1
:1005A0007A00806480937A0080917A0086FDFCCF87
:1005B0008091780090917900789408958FEF9FEF63
:1005C00008952F923F924F925F926F927F928F92F7
:1005D0009F92AF92BF92CF92DF92EF92FF920F93D2
:1005E0001F93CF93DF931C01FC01C281D381C438D8
:1005F000F3E0DF070CF07EC0809125019091260189
:100600008C179D0708F46FC0E7E2F1E011E08191DB
:1006100091918C179D0720F01F5F1E30C1F71DE0E0
:10062000812F90E0FC01EE0FFF1FEB5DFE4FE0809D
:10063000F180880F991FFC01ED5DFE4F8081918153
:10064000B701681B790B80E090E00E94180A9B01BB
:10065000AC010E9404094B015C01BE010D2E000C8F
:10066000880B990B0E941A0A2B013C01B70180E00C
:1006700090E00E94180A6B017C01612F70E080E01D
:1006800090E00E94180A20E030E040E05FE30E9422
:10069000A60A20E030E0A9010E940409A501940106
:1006A0000E94A60A9B01AC01C701B6010E94030982
:1006B0009B01AC01C301B2010E94030920E030E0BC
:1006C00040E251E40E94A60A0E94E2097B01C501B2
:1006D000B4010E94E209AB01BC01C701BA010E944A
:1006E000C608162F01C010E0CD3B82E0D8070CF4FD
:1006F000CAC001C01FEFF101C080D18080914C01C0
:1007000090914D018C159D0588F0EEE4F1E081E0BB
:1007100090E0382EE190F190EC14FD0408F458C0FC
:1007200001968E309105A9F70AE501C000E01F3F50
:1007300009F44BC0BE01DD0F880B990B0E941A0A09
:100740006B017C01612F70E080E090E00E94180A4C
:100750004B015C01A701960160E070E081E694E442
:100760000E9403099B01AC01C501B4010E94A60AC5
:100770004B015C01602F70E080E090E00E94180A5D
:100780002B013C0120E030E04FE254E4C701B60108
:100790000E9403099B01AC01C301B2010E94A60A99
:1007A0009B01AC01C501B4010E94040920E030E0C6
:1007B00048E453E40E94700920E030E044E052E451
:1007C0000E9404090E94E90960C061E2600F5DC0F7
:1007D000880F991FFC01E65BFE4F80819181B70174
:1007E000681B790B80E090E00E94180A9B01AC0125
:1007F0000E9404094B015C01B601DD0C880B990BCA
:100800000E941A0A2B013C01B70180E090E00E948F
:10081000180A6B017C01632D70E080E090E00E947B
:10082000180A20E030E040E05FE30E94A60A20E0E2
:1008300030E0A9010E940409A50194010E94A60AC2
:100840009B01AC01C701B6010E9403099B01AC01E9
:10085000C301B2010E94030920E030E040E251E40C
:100860000E94A60A0E94E2097B01C501B4010E9410
:10087000E209AB01BC01C701BA010E94C608062FFC
:100880006F3F09F054CF61E2610F862FDF91CF9166
:100890001F910F91FF90EF90DF90CF90BF90AF909E
:1008A0009F908F907F906F905F904F903F902F9090
:1008B00008951F920F920FB60F9211242F933F931A
:1008C0004F935F936F937F938F939F93AF93BF9358
:1008D000EF93FF9320916B0130916C01809169013E
:1008E00090916A01820F931F90936C0180936B012A
:1008F0008FEF90E090936A01809369018FEF87BD3D
:100900008091470190914801A0914901B0914A011D
:100910000196A11DB11D8093470190934801A093BA
:100920004901B0934A0180914B0181112DC0809102
:100930007A0190917B0120916B0130916C018217BB
:10094000930710F5809117018430F1F4E0910301D1
:10095000F091040109950097B9F00E942C088823B2
:1009600051F0E0910101F0910201099510926C01A2
:1009700010926B0109C00E945F0B9C0133273093DA
:100980006A012093690187BDFF91EF91BF91AF91FB
:100990009F918F917F916F915F914F913F912F9197
:1009A0000F900FBE0F901F90189580FF02C0559AB0
:1009B00001C0559881FF02C0549A01C0549882FF2B
:1009C00002C03B9A01C03B9883FF02C03A9A01C023
:1009D0003A9884FF02C03D9A01C03D9885FF02C04D
:1009E0003C9A08953C9808958C017B01D0E0CFEFAC
:1009F00084E0D82E98E1C92E29E2B22EE0911701A9
:100A0000F0E0E730F105D0F7EC5CFF4F0C94DA082A
:100A1000F89480B7877F80BF80917A008F7780932A
:100A20007A0014B817B81AB815B818B81BB80FB6AA
:100A3000F894A895C09260000FBEB09260008091BB
:100A4000600080648093600083B7817F846083BF8F
:100A5000F89483B7816083BF7894889583B78E7F3D
:100A600083BF789410924B01529A5A9A80917A00DF
:100A7000806880937A0087E592E00197F1F700C0E3
:100A8000000080B7886180BF8FE30E94D504EFE14A
:100A9000FEE43197F1F700C0000080914B018823FC
:100AA00009F450C083E00E94D504FFEF20E782E004
:100AB000F15020408040E1F700C0000043C08CE0CE
:100AC0000E94D504EFECF7E03197F1F700C0000089
:100AD00080E00E94D504FFEF21EE84E0F150204039
:100AE0008040E1F72CC00E94C4028B3AE2E09E07EE
:100AF00024F08CE00E94D50481CF8938F2E09F0772
:100B000014F080E3F7CF8736924014F08FE0F2CFF5
:100B100083E0F0CF489916C081E00E94D5048FECA5
:100B200097E00197F1F700C0000080E00E94D50433
:100B30009FEFE1EEF4E09150E040F040E1F700C0BB
:100B400000005CCF80E0D6CFD11102C0F80109953A
:100B5000D0921701D1E0F701099550CF809115018E
:100B6000811107C01092B3001092B40010921601C8
:100B700045CF9091150180911601981709F43ECF49
:100B8000809115018093160180911501813089F4BF
:100B9000C093B3001092B4008FE295E70197F1F78C
:100BA00000C00000809181018093B3001092B400D6
:100BB00025CF809115011092B300C093B40082300C
:100BC00059F4EFE2F5E73197F1F700C000008091AA
:100BD0006D011092B30010C0C093B300C093B40075
:100BE0008FE295E70197F1F700C000008091800146
:100BF00090917F019093B3008093B400FFCE1F9239
:100C00000F920FB60F9211248F939F931092810031
:100C1000109285001092840081E0809324018093DB
:100C2000680110924B0110927C0093EA90937A0035
:100C300080937B009F918F910F900FBE0F901F901C
:100C400018951F920F920FB60F9211240F931F93B6
:100C50002F933F934F935F936F937F938F939F93C4
:100C6000AF93BF93EF93FF93209184003091850061
:100C700041E040934B0180912401882321F110929F
:100C80008500109284004093810010927C011092A4
:100C9000240180916801882309F4AFC180917A0012
:100CA00086FDFCCF80917800909179009093460169
:100CB0008093450181E080937C0093EA90937A00D1
:100CC00080937B009AC1C901875891098437994064
:100CD000A0F0109281001092850010928400409341
:100CE00024014093680110924B0110927C0083EA2A
:100CF00080937A0040937B0080C126583109A4EF8D
:100D0000B0E00E94E0088C0122273327083060F40D
:100D100081E090E001C0880F0A95EAF790917C018C
:100D2000892B80937C0169C14093240180916801E3
:100D3000882341F180917A0086FDFCCF8091780074
:100D400090917900909344018093430110927C002C
:100D500083EA80937A0081E080937B0090917C010C
:100D6000992359F01092810010928500109284000E
:100D70008093680110924B0140C11092680110925B
:100D800042013BC180914201E82FF0E0E259FE4F61
:100D900090917C0190838F5F809342018C3009F0A9
:100DA0002CC1109281001092850010928400409313
:100DB000680110924B0100917801109179018EE643
:100DC00091E00E9410080817190709F016C1E09178
:100DD0007701E7FD0AC0E0910501F091060163E4A7
:100DE00071E08EE691E0099508C188E78E0F8330A7
:100DF00030F0539823981092B4001092B3008E2FC5
:100E000090E0FC01E058F109EB30F10508F0F5C085
:100E1000E55CFF4F0C94DA0880916E008D7F809323
:100E20006E0016BCE0E0F0E702C0E0E0F0E00995FB
:100E300010921701E2C081E0B2C085E0B0C082E04C
:100E4000AEC080911701833009F4D7C0809117019B
:100E5000843009F4D2C0539A239A1092B4001092AD
:100E6000B30083E09CC080916E01823009F44BC0D6
:100E700080F48823A9F0813009F082C080916F014D
:100E80009091700190937E0180937D0110921501E5
:100E900077C0833009F449C0843009F458C070C069
:100EA00080911701863009F06BC060917D0180EB65
:100EB00090E00E94770B60917E0181EB90E00E94B0
:100EC000770B6091810185E090E00E94770B609143
:100ED0006D0189E090E00E94770B60917F018CE0CA
:100EE00090E00E94770B6091800184E190E00E9485
:100EF000770B539823981092B4001092B30081E0BE
:100F0000809317013DC0909115018091710191303E
:100F100021F490918101891799F11092160191E0C5
:100F200090931501809381012BC0909115018091C0
:100F30007201923021F490916D01891709F110929C
:100F4000160192E09093150180936D0119C02091D4
:100F500015018091740190917301233041F4209127
:100F60008001821304C020917F01921749F01092F2
:100F7000160123E02093150190937F018093800157
:100F800080916E018823C9F1809117018630A9F103
:100F9000539A239A1092B4001092B30086E0809383
:100FA00017012BC080911701863081F0539A239A44
:100FB0001092B4001092B30080E00E94D504109209
:100FC00015011092160186E08093170181E090E0F0
:100FD00000906E0102C0880F991F0A94E2F72091D9
:100FE0007D0130917E0182239323892B21F081E0C2
:100FF0008093150102C010921501FF91EF91BF91EE
:10100000AF919F918F917F916F915F914F913F91A0
:101010002F911F910F910F900FBE0F901F90189559
:10102000FC019C01265F3F4F8FEF9FEF419184278A
:10103000082E8295807F8025092E982F82958F70AB
:101040000826869598278927880F880F880F80257E
:10105000E217F30759F708950FB6F894A4B1209159
:1010600041012A2B24B921E030914101203029F09F
:10107000000025B1232B25B904C0000000000000AA
:1010800000C0000000000000309525B1232325B9E1
:101090002EEA2A95F1F72BEE30B735FF0AC0A4B936
:1010A00030914101309525B1232325B90FBE80E051
:1010B000089500002A9581F721E030914101203008
:1010C00029F0000025B1232B25B904C00000000041
:1010D000000000C0000000000000309525B123236F
:1010E00025B9000024E52A95F1F7FC018CE0619117
:1010F00070E0660F771F616072609AE041E050E037
:101100009A0126233723232B30914101203029F0E7
:10111000000025B1232B25B904C000000000000009
:1011200000C0000000000000309525B1232325B940
:10113000000021E52A95F1F7440F551F9A9501F714
:101140008A95A9F620B7206120BFA4B9309141014A
:10115000309525B1232325B90FBE81E008950E9463
:10116000FC0081E790E0909304018093030184E701
:1011700090E0909302018093010169E870E08BE7B1
:1011800090E00E94F40480E090E0089597FB072E21
:1011900016F4009407D077FD09D00E94EF0807FCF1
:1011A00005D03EF4909581959F4F08957095619577
:1011B0007F4F0895EE0FFF1F0590F491E02D0994E5
:1011C000A29FB001B39FC001A39F700D811D112488
:1011D000911DB29F700D811D1124911D0895AA1BB0
:1011E000BB1B51E107C0AA1FBB1FA617B70710F012
:1011F000A61BB70B881F991F5A95A9F78095909544
:10120000BC01CD0108955058BB27AA270E941B0995
:101210000C946C0A0E945E0A38F00E94650A20F065
:1012200039F49F3F19F426F40C945B0A0EF4E09510
:10123000E7FB0C94550AE92F0E947D0A58F3BA1770
:10124000620773078407950720F079F4A6F50C94DC
:101250009F0A0EF4E0950B2EBA2FA02D0B01B901B9
:1012600090010C01CA01A0011124FF27591B99F01C
:10127000593F50F4503E68F11A16F040A22F232F28
:10128000342F4427585FF3CF469537952795A79578
:10129000F0405395C9F77EF41F16BA0B620B730B1F
:1012A000840BBAF09150A1F0FF0FBB1F661F771F90
:1012B000881FC2F70EC0BA0F621F731F841F48F445
:1012C000879577956795B795F7959E3F08F0B0CFCE
:1012D0009395880F08F09927EE0F979587950895B5
:1012E0000E9484090C946C0A0E94650A58F00E94BE
:1012F0005E0A40F029F45F3F29F00C94550A511121
:101300000C94A00A0C945B0A0E947D0A68F399234E
:10131000B1F3552391F3951B550BBB27AA276217F1
:101320007307840738F09F5F5F4F220F331F441FFE
:10133000AA1FA9F335D00E2E3AF0E0E832D0915032
:101340005040E695001CCAF72BD0FE2F29D0660F1F
:10135000771F881FBB1F261737074807AB07B0E862
:1013600009F0BB0B802DBF01FF2793585F4F3AF068
:101370009E3F510578F00C94550A0C94A00A5F3FEB
:10138000E4F3983ED4F3869577956795B795F795EE
:101390009F5FC9F7880F911D9695879597F90895D6
:1013A000E1E0660F771F881FBB1F62177307840772
:1013B000BA0720F0621B730B840BBA0BEE1F88F781
:1013C000E09508950E94E9096894B1110C94A00A6F
:1013D00008950E94850A88F09F5798F0B92F9927A1
:1013E000B751B0F0E1F0660F771F881F991F1AF010
:1013F000BA95C9F714C0B13091F00E949F0AB1E0CC
:1014000008950C949F0A672F782F8827B85F39F0CA
:10141000B93FCCF3869577956795B395D9F73EF4A8
:1014200090958095709561957F4F8F4F9F4F089550
:10143000E89409C097FB3EF490958095709561956E
:101440007F4F8F4F9F4F9923A9F0F92F96E9BB2724
:101450009395F695879577956795B795F111F8CFA0
:10146000FAF4BB0F11F460FF1BC06F5F7F4F8F4F0B
:101470009F4F16C0882311F096E911C0772321F001
:101480009EE8872F762F05C0662371F096E8862F99
:1014900070E060E02AF09A95660F771F881FDAF7F0
:1014A000880F9695879597F9089597F99F6780E833
:1014B00070E060E008959FEF80EC089500240A94A6
:1014C0001616170618060906089500240A9412161F
:1014D0001306140605060895092E0394000C11F452
:1014E000882352F0BB0F40F4BF2B11F460FF04C0FF
:1014F0006F5F7F4F8F4F9F4F089557FD9058440F58
:10150000551F59F05F3F71F04795880F97FB991F62
:1015100061F09F3F79F0879508951216130614061F
:10152000551FF2CF4695F1DF08C0161617061806AC
:10153000991FF1CF86957105610508940895E89487
:10154000BB2766277727CB0197F908950E94B90A30
:101550000C946C0A0E945E0A38F00E94650A20F022
:10156000952311F00C94550A0C945B0A11240C94E9
:10157000A00A0E947D0A70F3959FC1F3950F50E079
:10158000551F629FF001729FBB27F00DB11D639F35
:10159000AA27F00DB11DAA1F649F6627B00DA11DDB
:1015A000661F829F2227B00DA11D621F739FB00D81
:1015B000A11D621F839FA00D611D221F749F3327F1
:1015C000A00D611D231F849F600D211D822F762F8A
:1015D0006A2F11249F5750409AF0F1F088234AF067
:1015E000EE0FFF1FBB1F661F771F881F91505040D3
:1015F000A9F79E3F510580F00C94550A0C94A00A5F
:101600005F3FE4F3983ED4F3869577956795B79559
:10161000F795E7959F5FC1F7FE2B880F911D969573
:10162000879597F908958F929F92AF92BF92CF922C
:10163000DF92EF92FF92CF93DF93EC016881798183
:101640008A819B81611571058105910521F464E210
:1016500079ED8BE597E02DE133EF41E050E00E941A
:10166000850B49015A019B01AC01A7EAB1E40E9434
:10167000A40B6B017C01ACEEB4EFA50194010E94B8
:10168000B20BDC01CB018C0D9D1DAE1DBF1DB7FF44
:1016900003C00197A109B04888839983AA83BB83BB
:1016A0009F77DF91CF91FF90EF90DF90CF90BF9029
:1016B000AF909F908F9008950E94130B089587E03C
:1016C00091E00E94130B0895A0E0B0E08093070121
:1016D00090930801A0930901B0930A010895F99924
:1016E000FECF92BD81BDF89A992780B50895262F27
:1016F000F999FECF1FBA92BD81BD20BD0FB6F894F7
:10170000FA9AF99A0FBE01960895052E97FB1EF4DA
:1017100000940E949C0B57FD07D00E94B70B07FC5A
:1017200003D04EF40C949C0B509540953095219528
:101730003F4F4F4F5F4F08959095809570956195FD
:101740007F4F8F4F9F4F08950E94E008A59F900DF7
:10175000B49F900DA49F800D911D11240895B7FF93
:101760000C94A40B0E94A40B821B930B0895A1E27E
:101770001A2EAA1BBB1BFD010DC0AA1FBB1FEE1F0B
:10178000FF1FA217B307E407F50720F0A21BB30B56
:10179000E40BF50B661F771F881F991F1A9469F7D2
:1017A00060957095809590959B01AC01BD01CF012E
:0617B0000895F894FFCF3C
:0C17B600AAFB00F800F700010000000092
:00000001FF
