:100000000C9446000C946F000C946F000C946F00DD
:100010000C946F000C946F000C9480010C946F0092
:100020000C946F000C946F000C946F000C949E0560
:100030000C946F000C946F000C94F8030C946F00F8
:100040000C946F000C946F000C946F000C946F0074
:100050000C946F000C946F000C946F000C94C0050E
:100060000C946F000C946F00A704FE041205430566
:100070004A0529054D05AB069C079C07B406B70643
:10008000BA06BC06BE06C0067107D20611241FBE02
:10009000CFEFD8E0DEBFCDBF14BE0FB6F894A89561
:1000A00080916000886180936000109260000FBEB4
:1000B00011E0A0E0B1E0E8EEF6E102C005900D929B
:1000C000AC30B107D9F721E0ACE0B1E001C01D923E
:1000D000AC37B207E1F70E944E080C94720B0C94F7
:1000E0000000FC019CE0A2E1B1E001900D929A9524
:1000F000E1F781E090E090930D0180930C01089569
:10010000089580910C0190910D01019771F4109266
:100110000D0110920C0185E00E94740484E690E0C9
:100120000E94970180E00C9474040895089580E083
:1001300090E008950895DF92EF92FF920F931F933E
:10014000CF93DF93F89414B817B81AB815B818B845
:100150001BB8529A5A9A14BC85E085BD8FEF87BDB3
:1001600082E080936E0010928000109281002FE850
:100170003BE0309389002093880080936F00539870
:10018000239891EA9093B0008093B1001092B4004C
:100190001092B3008BE080BF83E080937F0086E005
:1001A00080937C0083E880937A0080917A00806459
:1001B00080937A0080917A0086FDFCCF10927C00BB
:1001C00083EA80937A0081E080937B0081E090E075
:1001D0000E94080B8F3F11F080936600109245013A
:1001E000C1E0C0931E01C093620110923C011092C5
:1001F000760180E990E00E94080B80933B0180919A
:100200003B01887311F0C0933B011092660110927C
:1002100065018FEF90E090936401809363011092E9
:10022000410110924201109243011092440181E079
:100230008093110182E49FE0909375018093740193
:1002400080EB90E00E94080BC82F81EB90E00E94A9
:10025000080B2C2F30E0382B309378012093770156
:1002600085E090E00E94080B80937B0189E090E09C
:100270000E94080B809367018CE090E00E94080BBD
:100280008093790184E190E00E94080B80937A01C9
:1002900006E411E05FE1E52E51E0F52EC0E2D0E08A
:1002A000CE010E94080BD82ECE0101960E94080BA9
:1002B0002D2D30E0322F2227282BF8012193319366
:1002C0008F01CE01C0960E94080BD82ECE01C19698
:1002D0000E94080B2D2D30E0322F2227282BF7010A
:1002E000219331937F012296CC33D105C9F67894BE
:1002F000DF91CF911F910F91FF90EF90DF900895C4
:100300001F920F920FB60F9211248F930FB6F8948D
:10031000A8958091600088618093600010926000D1
:100320000FBE8F910F900FBE0F901F9018950097E2
:1003300041F0EFECF7E03197F1F700C000000197D2
:10034000F6CF08958093B3006093B40008958FEFC3
:100350008093B3008093B4008FE090E00C949701F9
:100360008091450181111EC0F89487E080937C0044
:1003700083E880937A0080917A00806480937A0089
:1003800080917A0086FDFCCF809178009091790071
:1003900010927C0023EA20937A0021E020937B00D6
:1003A000789408958FEF9FEF089580914501811112
:1003B0001EC0F89488EC80937C0087E880937A00D4
:1003C00080917A00806480937A0080917A0086FD23
:1003D000FCCF809178009091790010927C0023EA04
:1003E00020937A0021E020937B00789408958FEF8A
:1003F0009FEF0895CF93DF9320E030E080E0E3EAC1
:10040000F1E0C6E0D3E8A1E0B0E090E0F894C0935A
:100410007C00D0937A0040917A00406440937A0047
:1004200040917A0046FDFCCF4091780050917900D0
:10043000417050917A00506450937A0050917A0044
:1004400056FDFCCF609178007091790010927C008D
:10045000E0937A00F0937B0078949F5F6170461779
:1004600051F0442359F0AD01022E01C0440F0A940B
:10047000EAF7842B03C0903849F6F3CF2F5F3F4F44
:100480002830310509F0C1CFDF91CF9108958091D7
:10049000000198E0899F90011124282790910E0176
:1004A00081E0890F80930E01822F82958695877057
:1004B000282796959695822F892780930001089585
:1004C00080930001089580914501811116C0F89430
:1004D00086E080937C0083E880937A0080917A00A4
:1004E000806480937A0080917A0086FDFCCF8091B1
:1004F000780090917900789408958FEF9FEF089598
:100500002F923F924F925F926F927F928F929F9223
:10051000AF92BF92CF92DF92EF92FF920F931F9311
:10052000CF93DF931C01FC01C281D381C438F3E077
:10053000DF070CF07EC080911F01909120018C1785
:100540009D0708F46FC0E1E2F1E011E08191919123
:100550008C179D0720F01F5F1E30C1F71DE0812F13
:1005600090E0FC01EE0FFF1FE15EFE4FE080F180A6
:10057000880F991FFC01E35EFE4F80819181B701D6
:10058000681B790B80E090E00E94B1099B01AC01EF
:100590000E949D084B015C01BE010D2E000C880BD2
:1005A000990B0E94B3092B013C01B70180E090E058
:1005B0000E94B1096B017C01612F70E080E090E046
:1005C0000E94B10920E030E040E05FE30E943F0A72
:1005D00020E030E0A9010E949D08A50194010E943D
:1005E0003F0A9B01AC01C701B6010E949C089B0118
:1005F000AC01C301B2010E949C0820E030E040E25F
:1006000051E40E943F0A0E947B097B01C501B401AD
:100610000E947B09AB01BC01C701BA010E945F08BF
:10062000162F01C010E0CD3B82E0D8070CF4CAC001
:1006300001C01FEFF101C080D180809146019091EF
:1006400047018C159D0588F0E8E4F1E081E090E039
:10065000382EE190F190EC14FD0408F458C0019696
:100660008E309105A9F70AE501C000E01F3F09F4AB
:100670004BC0BE01DD0F880B990B0E94B3096B01C3
:100680007C01612F70E080E090E00E94B1094B0195
:100690005C01A701960160E070E081E694E40E94AD
:1006A0009C089B01AC01C501B4010E943F0A4B01AB
:1006B0005C01602F70E080E090E00E94B1092B01A6
:1006C0003C0120E030E04FE254E4C701B6010E9453
:1006D0009C089B01AC01C301B2010E943F0A9B012F
:1006E000AC01C501B4010E949D0820E030E048E45F
:1006F00053E40E94090920E030E044E052E40E9403
:100700009D080E94820960C061E2600F5DC0880F91
:10071000991FFC01EC5BFE4F80819181B701681B42
:10072000790B80E090E00E94B1099B01AC010E942E
:100730009D084B015C01B601DD0C880B990B0E94F2
:10074000B3092B013C01B70180E090E00E94B109A0
:100750006B017C01632D70E080E090E00E94B109A4
:1007600020E030E040E05FE30E943F0A20E030E01C
:10077000A9010E949D08A50194010E943F0A9B01C6
:10078000AC01C701B6010E949C089B01AC01C301EA
:10079000B2010E949C0820E030E040E251E40E9457
:1007A0003F0A0E947B097B01C501B4010E947B09BD
:1007B000AB01BC01C701BA010E945F08062F6F3F61
:1007C00009F054CF61E2610F862FDF91CF911F9125
:1007D0000F91FF90EF90DF90CF90BF90AF909F90E0
:1007E0008F907F906F905F904F903F902F900895E3
:1007F0001F920F920FB60F9211242F933F934F9396
:100800005F936F937F938F939F93AF93BF93EF9378
:10081000FF93209165013091660180916301909171
:100820006401820F931F90936601809365018FEF9F
:1008300090E090936401809363018FEF87BD809176
:10084000410190914201A0914301B0914401019670
:10085000A11DB11D8093410190934201A0934301DA
:10086000B09344018091450181112DC080917401A4
:10087000909175012091650130916601821793076F
:1008800010F5809111018430F1F4E0910301F091B1
:10089000040109950097B9F00E94CB07882351F015
:1008A000E0910101F0910201099510926601109208
:1008B000650109C00E94F80A9C0133273093640146
:1008C0002093630187BDFF91EF91BF91AF919F91FD
:1008D0008F917F916F915F914F913F912F910F90E9
:1008E0000FBE0F901F90189580FF02C0559A01C04F
:1008F000559881FF02C0549A01C0549882FF02C0EB
:100900003B9A01C03B9883FF02C03A9A01C03A98D3
:1009100084FF02C03D9A01C03D9885FF02C03C9A09
:1009200008953C9808958C017B01D0E0CFEF84E0DE
:10093000D82E98E1C92E29E2B22EE0911101F0E003
:10094000E730F105D0F7EC5CFF4F0C947308F89496
:1009500080B7877F80BF80917A008F7780937A00FD
:1009600014B817B81AB815B818B81BB80FB6F89459
:10097000A895C09260000FBEB092600080916000A8
:1009800080648093600083B7817F846083BFF89424
:1009900083B7816083BF7894889583B78E7F83BF48
:1009A000789410924501529A5A9A80917A00806800
:1009B00080937A0087E592E00197F1F700C000008C
:1009C00080B7886180BF8FE30E947404EFE1FEE48A
:1009D0003197F1F700C0000080914501882309F4A8
:1009E00050C083E00E947404FFEF20E782E0F150E2
:1009F00020408040E1F700C0000043C08CE00E942E
:100A00007404EFECF7E03197F1F700C0000080E0EC
:100A10000E947404FFEF21EE84E0F15020408040FA
:100A2000E1F72CC00E9463028B3AE2E09E0724F0BB
:100A30008CE00E94740481CF8938F2E09F0714F0A3
:100A400080E3F7CF8736924014F08FE0F2CF83E057
:100A5000F0CF489916C081E00E9474048FEC97E0B3
:100A60000197F1F700C0000080E00E9474049FEF3E
:100A7000E1EEF4E09150E040F040E1F700C000000A
:100A80005CCF80E0D6CFD11102C0F8010995D09299
:100A90001101D1E0F701099550CF80910F0181112B
:100AA00007C01092B3001092B4001092100145CF0D
:100AB00090910F0180911001981709F43ECF809119
:100AC0000F018093100180910F01813089F4C09350
:100AD000B3001092B4008FE295E70197F1F700C0E0
:100AE000000080917B018093B3001092B40025CF69
:100AF00080910F011092B300C093B400823059F47A
:100B0000EFE2F5E73197F1F700C00000809167014F
:100B10001092B30010C0C093B300C093B4008FE232
:100B200095E70197F1F700C0000080917A0190915C
:100B300079019093B3008093B400FFCE1F920F927F
:100B40000FB60F9211248F939F93109281001092F1
:100B500085001092840081E080931E0180936201E1
:100B60001092450110927C0093EA90937A00809352
:100B70007B009F918F910F900FBE0F901F90189543
:100B80001F920F920FB60F9211240F931F932F9362
:100B90003F934F935F936F937F938F939F93AF9305
:100BA000BF93EF93FF93209184003091850041E043
:100BB0004093450180911E01882321F11092850008
:100BC00010928400409381001092760110921E01D1
:100BD00080916201882309F4AFC180917A0086FD7B
:100BE000FCCF8091780090917900909340018093A0
:100BF0003F0181E080937C0093EA90937A00809398
:100C00007B009AC1C9018758910984379940A0F0A7
:100C100010928100109285001092840040931E0172
:100C2000409362011092450110927C0083EA809308
:100C30007A0040937B0080C126583109A4EFB0E0D0
:100C40000E9479088C0122273327083060F481E064
:100C500090E001C0880F0A95EAF790917601892B00
:100C60008093760169C140931E01809162018823BF
:100C700041F180917A0086FDFCCF809178009091BF
:100C8000790090933E0180933D0110927C0083EAAD
:100C900080937A0081E080937B0090917601992384
:100CA00059F0109281001092850010928400809378
:100CB00062011092450140C11092620110923C0104
:100CC0003BC180913C01E82FF0E0E859FE4F909144
:100CD000760190838F5F80933C018C3009F02CC1AA
:100CE000109281001092850010928400409362015E
:100CF00010924501009172011091730188E691E014
:100D00000E94AF070817190709F016C1E091710199
:100D1000E7FD0AC0E0910501F09106016DE371E085
:100D200088E691E0099508C188E78E0F833030F09E
:100D3000539823981092B4001092B3008E2F90E035
:100D4000FC01E058F109EB30F10508F0F5C0E55C75
:100D5000FF4F0C94730880916E008D7F80936E001E
:100D600016BCE0E0F0E702C0E0E0F0E00995109288
:100D70001101E2C081E0B2C085E0B0C082E0AEC047
:100D800080911101833009F4D7C080911101843022
:100D900009F4D2C0539A239A1092B4001092B3006F
:100DA00083E09CC080916801823009F44BC080F4DC
:100DB0008823A9F0813009F082C080916901909167
:100DC0006A01909378018093770110920F0177C0A8
:100DD000833009F449C0843009F458C070C0809150
:100DE0001101863009F06BC06091770180EB90E0D3
:100DF0000E94100B6091780181EB90E00E94100B33
:100E000060917B0185E090E00E94100B609167018A
:100E100089E090E00E94100B609179018CE090E0F5
:100E20000E94100B60917A0184E190E00E94100B07
:100E3000539823981092B4001092B30081E08093ED
:100E400011013DC090910F0180916B01913021F40F
:100E500090917B01891799F11092100191E0909384
:100E60000F0180937B012BC090910F0180916C0149
:100E7000923021F490916701891709F110921001C5
:100E800092E090930F018093670119C020910F01A8
:100E900080916E0190916D01233041F420917A018F
:100EA000821304C020917901921749F01092100129
:100EB00023E020930F019093790180937A01809130
:100EC00068018823C9F1809111018630A9F1539AF4
:100ED000239A1092B4001092B30086E0809311011F
:100EE0002BC080911101863081F0539A239A109281
:100EF000B4001092B30080E00E94740410920F01BD
:100F00001092100186E08093110181E090E0009042
:100F1000680102C0880F991F0A94E2F720917701B7
:100F20003091780182239323892B21F081E08093F3
:100F30000F0102C010920F01FF91EF91BF91AF918D
:100F40009F918F917F916F915F914F913F912F91E1
:100F50001F910F910F900FBE0F901F901895FC01DD
:100F60009C01265F3F4F8FEF9FEF41918427082E12
:100F70008295807F8025092E982F82958F70082674
:100F8000869598278927880F880F880F8025E21774
:100F9000F30759F708950FB6F894A4B120913B01D7
:100FA0002A2B24B921E030913B01203029F00000A8
:100FB00025B1232B25B904C000000000000000C0AB
:100FC000000000000000309525B1232325B92EEA4A
:100FD0002A95F1F72BEE30B735FF0AC0A4B930914E
:100FE0003B01309525B1232325B90FBE80E008953C
:100FF00000002A9581F721E030913B01203029F053
:10100000000025B1232B25B904C00000000000001A
:1010100000C0000000000000309525B1232325B951
:10102000000024E52A95F1F7FC018CE0619170E065
:10103000660F771F616072609AE041E050E09A01AC
:1010400026233723232B30913B01203029F0000049
:1010500025B1232B25B904C000000000000000C00A
:10106000000000000000309525B1232325B90000C1
:1010700021E52A95F1F7440F551F9A9501F78A95B6
:10108000A9F620B7206120BFA4B930913B0130956B
:1010900025B1232325B90FBE81E008950E949B004E
:1010A00081E790E0909306018093050161E870E08C
:1010B00080E890E00E94930480E090E0089597FB20
:1010C000072E16F4009407D077FD09D00E948808F7
:1010D00007FC05D03EF4909581959F4F089570953B
:1010E00061957F4F0895EE0FFF1F0590F491E02D5D
:1010F0000994A29FB001B39FC001A39F700D811DF1
:101100001124911DB29F700D811D1124911D089510
:10111000AA1BBB1B51E107C0AA1FBB1FA617B7071D
:1011200010F0A61BB70B881F991F5A95A9F7809539
:101130009095BC01CD0108955058BB27AA270E9465
:10114000B4080C94050A0E94F70938F00E94FE09C1
:1011500020F039F49F3F19F426F40C94F4090EF4AE
:10116000E095E7FB0C94EE09E92F0E94160A58F36C
:10117000BA17620773078407950720F079F4A6F57C
:101180000C94380A0EF4E0950B2EBA2FA02D0B010B
:10119000B90190010C01CA01A0011124FF27591BBC
:1011A00099F0593F50F4503E68F11A16F040A22FC2
:1011B000232F342F4427585FF3CF46953795279533
:1011C000A795F0405395C9F77EF41F16BA0B620B32
:1011D000730B840BBAF09150A1F0FF0FBB1F661F79
:1011E000771F881FC2F70EC0BA0F621F731F841FBC
:1011F00048F4879577956795B795F7959E3F08F0E2
:10120000B0CF9395880F08F09927EE0F97958795A3
:1012100008950E941D090C94050A0E94FE0958F0C9
:101220000E94F70940F029F45F3F29F00C94EE0981
:1012300051110C94390A0C94F4090E94160A68F3AF
:101240009923B1F3552391F3951B550BBB27AA277F
:1012500062177307840738F09F5F5F4F220F331FB9
:10126000441FAA1FA9F335D00E2E3AF0E0E832D081
:1012700091505040E695001CCAF72BD0FE2F29D084
:10128000660F771F881FBB1F261737074807AB0756
:10129000B0E809F0BB0B802DBF01FF2793585F4FCB
:1012A0003AF09E3F510578F00C94EE090C94390AFF
:1012B0005F3FE4F3983ED4F3869577956795B795AD
:1012C000F7959F5FC9F7880F911D9695879597F9B8
:1012D0000895E1E0660F771F881FBB1F6217730731
:1012E0008407BA0720F0621B730B840BBA0BEE1F46
:1012F00088F7E09508950E9482096894B1110C94D2
:10130000390A08950E941E0A88F09F5798F0B92F55
:101310009927B751B0F0E1F0660F771F881F991F2A
:101320001AF0BA95C9F714C0B13091F00E94380A8A
:10133000B1E008950C94380A672F782F8827B85F9A
:1013400039F0B93FCCF3869577956795B395D9F782
:101350003EF490958095709561957F4F8F4F9F4F8C
:101360000895E89409C097FB3EF490958095709598
:1013700061957F4F8F4F9F4F9923A9F0F92F96E9E1
:10138000BB279395F695879577956795B795F11156
:10139000F8CFFAF4BB0F11F460FF1BC06F5F7F4FF3
:1013A0008F4F9F4F16C0882311F096E911C0772305
:1013B00021F09EE8872F762F05C0662371F096E80E
:1013C000862F70E060E02AF09A95660F771F881FDD
:1013D000DAF7880F9695879597F9089597F99F679B
:1013E00080E870E060E008959FEF80EC08950024AD
:1013F0000A941616170618060906089500240A947A
:1014000012161306140605060895092E0394000CFF
:1014100011F4882352F0BB0F40F4BF2B11F460FF8E
:1014200004C06F5F7F4F8F4F9F4F089557FD9058B7
:10143000440F551F59F05F3F71F04795880F97FB98
:10144000991F61F09F3F79F0879508951216130652
:101450001406551FF2CF4695F1DF08C01616170681
:101460001806991FF1CF86957105610508940895B6
:10147000E894BB2766277727CB0197F908950E9448
:10148000520A0C94050A0E94F70938F00E94FE09DE
:1014900020F0952311F00C94EE090C94F40911241A
:1014A0000C94390A0E94160A70F3959FC1F3950FA8
:1014B00050E0551F629FF001729FBB27F00DB11DD8
:1014C000639FAA27F00DB11DAA1F649F6627B00D68
:1014D000A11D661F829F2227B00DA11D621F739F51
:1014E000B00DA11D621F839FA00D611D221F749F5F
:1014F0003327A00D611D231F849F600D211D822FA6
:10150000762F6A2F11249F5750409AF0F1F08823CC
:101510004AF0EE0FFF1FBB1F661F771F881F9150F9
:101520005040A9F79E3F510580F00C94EE090C94B1
:10153000390A5F3FE4F3983ED4F386957795679533
:10154000B795F795E7959F5FC1F7FE2B880F911D23
:101550009695879597F908958F929F92AF92BF9233
:10156000CF92DF92EF92FF92CF93DF93EC016881ED
:1015700079818A819B81611571058105910521F42D
:1015800064E279ED8BE597E02DE133EF41E050E047
:101590000E941E0B49015A019B01AC01A7EAB1E46C
:1015A0000E943D0B6B017C01ACEEB4EFA5019401F0
:1015B0000E944B0BDC01CB018C0D9D1DAE1DBF1D90
:1015C000B7FF03C00197A109B04888839983AA8314
:1015D000BB839F77DF91CF91FF90EF90DF90CF900B
:1015E000BF90AF909F908F9008950E94AC0A08958D
:1015F00087E091E00E94AC0A0895A0E0B0E08093FB
:10160000070190930801A0930901B0930A0108957E
:10161000F999FECF92BD81BDF89A992780B50895BA
:10162000262FF999FECF1FBA92BD81BD20BD0FB6FE
:10163000F894FA9AF99A0FBE01960895052E97FB31
:101640001EF400940E94350B57FD07D00E94500BEA
:1016500007FC03D04EF40C94350B50954095309513
:1016600021953F4F4F4F5F4F08959095809570950E
:1016700061957F4F8F4F9F4F08950E947908A59FD6
:10168000900DB49F900DA49F800D911D112408957D
:10169000B7FF0C943D0B0E943D0B821B930B0895EA
:1016A000A1E21A2EAA1BBB1BFD010DC0AA1FBB1F66
:1016B000EE1FFF1FA217B307E407F50720F0A21BD8
:1016C000B30BE40BF50B661F771F881F991F1A9445
:1016D00069F760957095809590959B01AC01BD016F
:0816E000CF010895F894FFCF3B
:0C16E800AA9A0097009600010000000084
:00000001FF
