:100000000C9446000C946F000C946F000C946F00DD
:100010000C946F000C946F000C94B1010C946F0061
:100020000C946F000C946F000C946F000C94CF052F
:100030000C946F000C946F000C9429040C946F00C6
:100040000C946F000C946F000C946F000C946F0074
:100050000C946F000C946F000C946F000C94F105DD
:100060000C946F000C946F00D8042F0543057405A1
:100070007B055A057E05DC06CD07CD07E506E806BB
:10008000EB06ED06EF06F106A207030711241FBEDB
:10009000CFEFD8E0DEBFCDBF14BE0FB6F894A89561
:1000A00080916000886180936000109260000FBEB4
:1000B00011E0A0E0B1E0EAE4F7E102C005900D92A2
:1000C000AC30B107D9F721E0ACE0B1E001C01D923E
:1000D000AF37B207E1F70E947F080C94A30B0C9492
:1000E0000000CF93DF93EC01CB01288120930C011A
:1000F0000E94B10290E090930E0180930D018CE07C
:10010000FE01A5E1B1E001900D928A95E1F781E051
:1001100090E09093100180930F01DF91CF910895AB
:1001200080910F0190911001019771F510921001CB
:1001300010920F0120910C0180910D0190910E0100
:10014000213031F4C39714F480E105C084E113C079
:10015000C39784F481E00E94A5040E94D8016091B5
:100160007D0180917C010E94D30180ED97E00E9487
:10017000C80103C081E10E94A50484EF91E00E94C0
:10018000C80180E00C94A504089508950895089589
:1001900080E090E008950895DF92EF92FF920F9330
:1001A0001F93CF93DF93F89414B817B81AB815B803
:1001B00018B81BB8529A5A9A14BC85E085BD8FEFC7
:1001C00087BD82E080936E001092800010928100C3
:1001D0002FE83BE0309389002093880080936F00E4
:1001E0005398239891EA9093B0008093B1001092B5
:1001F000B4001092B3008BE080BF83E080937F0057
:1002000086E080937C0083E880937A0080917A0076
:10021000806480937A0080917A0086FDFCCF1092F2
:100220007C0083EA80937A0081E080937B0081E008
:1002300090E00E94390B8F3F11F08093660010927E
:100240004801C1E0C0932101C093650110923F01B4
:100250001092790180E990E00E94390B80933E0171
:1002600080913E01887311F0C0933E0110926901A4
:10027000109268018FEF90E0909367018093660180
:1002800010924401109245011092460110924701CC
:1002900081E08093140182E49FE090937801809341
:1002A000770180EB90E00E94390BC82F81EB90E042
:1002B0000E94390B2C2F30E0382B30937B01209398
:1002C0007A0185E090E00E94390B80937E0189E0FD
:1002D00090E00E94390B80936A018CE090E00E94CC
:1002E000390B80937C0184E190E00E94390B80936C
:1002F0007D0109E411E052E2E52E51E0F52EC0E265
:10030000D0E0CE010E94390BD82ECE0101960E947A
:10031000390B2D2D30E0322F2227282BF801219385
:1003200031938F01CE01C0960E94390BD82ECE0199
:10033000C1960E94390B2D2D30E0322F2227282B19
:10034000F701219331937F012296CC33D105C9F671
:100350007894DF91CF911F910F91FF90EF90DF90F4
:1003600008951F920F920FB60F9211248F930FB61C
:10037000F894A89580916000886180936000109245
:1003800060000FBE8F910F900FBE0F901F901895B9
:10039000009741F0EFECF7E03197F1F700C0000073
:1003A0000197F6CF08958093B3006093B400089549
:1003B0008FEF8093B3008093B4008FE090E00C94B3
:1003C000C8018091480181111EC0F89487E0809394
:1003D0007C0083E880937A0080917A008064809327
:1003E0007A0080917A0086FDFCCF80917800909110
:1003F000790010927C0023EA20937A0021E0209378
:100400007B00789408958FEF9FEF089580914801C5
:1004100081111EC0F89488EC80937C0087E880935B
:100420007A0080917A00806480937A0080917A00CB
:1004300086FDFCCF809178009091790010927C002D
:1004400023EA20937A0021E020937B00789408959A
:100450008FEF9FEF0895CF93DF9320E030E080E0AF
:10046000E3EAF1E0C6E0D3E8A1E0B0E090E0F89480
:10047000C0937C00D0937A0040917A00406440930E
:100480007A0040917A0046FDFCCF4091780050916F
:100490007900417050917A00506450937A005091E5
:1004A0007A0056FDFCCF609178007091790010922F
:1004B0007C00E0937A00F0937B0078949F5F6170FA
:1004C000461751F0442359F0AD01022E01C0440FEC
:1004D0000A94EAF7842B03C0903849F6F3CF2F5FD4
:1004E0003F4F2830310509F0C1CFDF91CF910895FA
:1004F0008091000198E0899F900111242827909114
:10050000110181E0890F80931101822F82958695D8
:100510008770282796959695822F892780930001CA
:10052000089580930001089580914801811116C0BB
:10053000F89486E080937C0083E880937A00809131
:100540007A00806480937A0080917A0086FDFCCFE7
:100550008091780090917900789408958FEF9FEFC3
:1005600008952F923F924F925F926F927F928F9257
:100570009F92AF92BF92CF92DF92EF92FF920F9332
:100580001F93CF93DF931C01FC01C281D381C43838
:10059000F3E0DF070CF07EC08091220190912301EF
:1005A0008C179D0708F46FC0E4E2F1E011E081913F
:1005B00091918C179D0720F01F5F1E30C1F71DE041
:1005C000812F90E0FC01EE0FFF1FEE5DFE4FE080FB
:1005D000F180880F991FFC01E05EFE4F80819181C0
:1005E000B701681B790B80E090E00E94E2099B0153
:1005F000AC010E94CE084B015C01BE010D2E000C27
:10060000880B990B0E94E4092B013C01B70180E0A3
:1006100090E00E94E2096B017C01612F70E080E0B4
:1006200090E00E94E20920E030E040E05FE30E94B9
:10063000700A20E030E0A9010E94CE08A5019401D3
:100640000E94700A9B01AC01C701B6010E94CD084F
:100650009B01AC01C301B2010E94CD0820E030E053
:1006600040E251E40E94700A0E94AC097B01C5017E
:10067000B4010E94AC09AB01BC01C701BA010E94E0
:100680009008162F01C010E0CD3B82E0D8070CF493
:10069000CAC001C01FEFF101C080D1808091490123
:1006A00090914A018C159D0588F0EBE4F1E081E022
:1006B00090E0382EE190F190EC14FD0408F458C05D
:1006C00001968E309105A9F70AE501C000E01F3FB1
:1006D00009F44BC0BE01DD0F880B990B0E94E409A1
:1006E0006B017C01612F70E080E090E00E94E209E4
:1006F0004B015C01A701960160E070E081E694E4A3
:100700000E94CD089B01AC01C501B4010E94700A92
:100710004B015C01602F70E080E090E00E94E209F4
:100720002B013C0120E030E04FE254E4C701B60168
:100730000E94CD089B01AC01C301B2010E94700A66
:100740009B01AC01C501B4010E94CE0820E030E05D
:1007500048E453E40E943A0920E030E044E052E4E7
:100760000E94CE080E94B30960C061E2600F5DC0C4
:10077000880F991FFC01E95BFE4F80819181B701D1
:10078000681B790B80E090E00E94E2099B01AC01BC
:100790000E94CE084B015C01B601DD0C880B990B61
:1007A0000E94E4092B013C01B70180E090E00E9427
:1007B000E2096B017C01632D70E080E090E00E9413
:1007C000E20920E030E040E05FE30E94700A20E0B0
:1007D00030E0A9010E94CE08A50194010E94700A90
:1007E0009B01AC01C701B6010E94CD089B01AC0181
:1007F000C301B2010E94CD0820E030E040E251E4A4
:100800000E94700A0E94AC097B01C501B4010E94DC
:10081000AC09AB01BC01C701BA010E949008062FC8
:100820006F3F09F054CF61E2610F862FDF91CF91C6
:100830001F910F91FF90EF90DF90CF90BF90AF90FE
:100840009F908F907F906F905F904F903F902F90F0
:1008500008951F920F920FB60F9211242F933F937A
:100860004F935F936F937F938F939F93AF93BF93B8
:10087000EF93FF93209168013091690180916601A7
:1008800090916701820F931F909369018093680193
:100890008FEF90E090936701809366018FEF87BDA3
:1008A0008091440190914501A0914601B09147018A
:1008B0000196A11DB11D8093440190934501A09321
:1008C0004601B09347018091480181112DC080916C
:1008D0007701909178012091680130916901821728
:1008E000930710F5809114018430F1F4E091030135
:1008F000F091040109950097B9F00E94FC07882344
:1009000051F0E0910101F091020109951092690105
:100910001092680109C00E94290B9C013327309373
:1009200067012093660187BDFF91EF91BF91AF9161
:100930009F918F917F916F915F914F913F912F91F7
:100940000F900FBE0F901F90189580FF02C0559A10
:1009500001C0559881FF02C0549A01C0549882FF8B
:1009600002C03B9A01C03B9883FF02C03A9A01C083
:100970003A9884FF02C03D9A01C03D9885FF02C0AD
:100980003C9A08953C9808958C017B01D0E0CFEF0C
:1009900084E0D82E98E1C92E29E2B22EE09114010C
:1009A000F0E0E730F105D0F7EC5CFF4F0C94A408C1
:1009B000F89480B7877F80BF80917A008F7780938B
:1009C0007A0014B817B81AB815B818B81BB80FB60B
:1009D000F894A895C09260000FBEB092600080911C
:1009E000600080648093600083B7817F846083BFF0
:1009F000F89483B7816083BF7894889583B78E7F9E
:100A000083BF789410924801529A5A9A80917A0042
:100A1000806880937A0087E592E00197F1F700C043
:100A2000000080B7886180BF8FE30E94A504EFE1DA
:100A3000FEE43197F1F700C000008091480188235F
:100A400009F450C083E00E94A504FFEF20E782E094
:100A5000F15020408040E1F700C0000043C08CE02E
:100A60000E94A504EFECF7E03197F1F700C0000019
:100A700080E00E94A504FFEF21EE84E0F1502040C9
:100A80008040E1F72CC00E9494028B3AE2E09E077E
:100A900024F08CE00E94A50481CF8938F2E09F0702
:100AA00014F080E3F7CF8736924014F08FE0F2CF56
:100AB00083E0F0CF489916C081E00E94A5048FEC36
:100AC00097E00197F1F700C0000080E00E94A504C4
:100AD0009FEFE1EEF4E09150E040F040E1F700C01C
:100AE00000005CCF80E0D6CFD11102C0F80109959B
:100AF000D0921401D1E0F701099550CF80911201F5
:100B0000811107C01092B3001092B400109213012B
:100B100045CF9091120180911301981709F43ECFAF
:100B2000809112018093130180911201813089F428
:100B3000C093B3001092B4008FE295E70197F1F7EC
:100B400000C0000080917E018093B3001092B40039
:100B500025CF809112011092B300C093B40082306F
:100B600059F4EFE2F5E73197F1F700C0000080910A
:100B70006A011092B30010C0C093B300C093B400D8
:100B80008FE295E70197F1F700C0000080917D01A9
:100B900090917C019093B3008093B400FFCE1F929C
:100BA0000F920FB60F9211248F939F931092810092
:100BB000109285001092840081E08093210180933F
:100BC00065011092480110927C0093EA90937A009C
:100BD00080937B009F918F910F900FBE0F901F907D
:100BE00018951F920F920FB60F9211240F931F9317
:100BF0002F933F934F935F936F937F938F939F9325
:100C0000AF93BF93EF93FF932091840030918500C1
:100C100041E04093480180912101882321F1109205
:100C20008500109284004093810010927901109207
:100C3000210180916501882309F4AFC180917A0078
:100C400086FDFCCF809178009091790090934301CC
:100C50008093420181E080937C0093EA90937A0034
:100C600080937B009AC1C9018758910984379940C4
:100C7000A0F01092810010928500109284004093A1
:100C80002101409365011092480110927C0083EA93
:100C900080937A0040937B0080C126583109A4EFED
:100CA000B0E00E94AA088C0122273327083060F4A4
:100CB00081E090E001C0880F0A95EAF790917901F0
:100CC000892B8093790169C140932101809165014D
:100CD000882341F180917A0086FDFCCF80917800D5
:100CE00090917900909341018093400110927C0093
:100CF00083EA80937A0081E080937B009091790170
:100D0000992359F01092810010928500109284006E
:100D1000809365011092480140C1109265011092C4
:100D20003F013BC180913F01E82FF0E0E559FE4FC4
:100D30009091790190838F5F80933F018C3009F00F
:100D40002CC1109281001092850010928400409373
:100D500065011092480100917501109176018BE6B2
:100D600091E00E94E0070817190709F016C1E09109
:100D70007401E7FD0AC0E0910501F091060160E40D
:100D800071E08BE691E0099508C188E78E0F83300A
:100D900030F0539823981092B4001092B3008E2F25
:100DA00090E0FC01E058F109EB30F10508F0F5C0E6
:100DB000E55CFF4F0C94A40880916E008D7F8093BA
:100DC0006E0016BCE0E0F0E702C0E0E0F0E009955C
:100DD00010921401E2C081E0B2C085E0B0C082E0B0
:100DE000AEC080911401833009F4D7C08091140102
:100DF000843009F4D2C0539A239A1092B40010920E
:100E0000B30083E09CC080916B01823009F44BC039
:100E100080F48823A9F0813009F082C080916C01B0
:100E200090916D0190937B0180937A011092120151
:100E300077C0833009F449C0843009F458C070C0C9
:100E400080911401863009F06BC060917A0180EBCB
:100E500090E00E94410B60917B0181EB90E00E9449
:100E6000410B60917E0185E090E00E94410B609112
:100E70006A0189E090E00E94410B60917C018CE066
:100E800090E00E94410B60917D0184E190E00E941E
:100E9000410B539823981092B4001092B30081E054
:100EA000809314013DC09091120180916E019130A8
:100EB00021F490917E01891799F11092130191E02C
:100EC0009093120180937E012BC09091120180912A
:100ED0006F01923021F490916A01891709F1109203
:100EE000130192E09093120180936A0119C020913E
:100EF00012018091710190917001233041F4209191
:100F00007D01821304C020917C01921749F0109258
:100F1000130123E02093120190937C0180937D01C3
:100F200080916B018823C9F1809114018630A9F169
:100F3000539A239A1092B4001092B30086E08093E3
:100F400014012BC080911401863081F0539A239AAA
:100F50001092B4001092B30080E00E94A504109299
:100F600012011092130186E08093140181E090E059
:100F700000906B0102C0880F991F0A94E2F720913C
:100F80007A0130917B0182239323892B21F081E028
:100F90008093120102C010921201FF91EF91BF9154
:100FA000AF919F918F917F916F915F914F913F9101
:100FB0002F911F910F910F900FBE0F901F901895BA
:100FC000FC019C01265F3F4F8FEF9FEF41918427EB
:100FD000082E8295807F8025092E982F82958F700C
:100FE0000826869598278927880F880F880F8025DF
:100FF000E217F30759F708950FB6F894A4B12091BA
:101000003E012A2B24B921E030913E01203029F005
:10101000000025B1232B25B904C00000000000000A
:1010200000C0000000000000309525B1232325B941
:101030002EEA2A95F1F72BEE30B735FF0AC0A4B996
:1010400030913E01309525B1232325B90FBE80E0B4
:10105000089500002A9581F721E030913E0120306B
:1010600029F0000025B1232B25B904C000000000A1
:10107000000000C0000000000000309525B12323CF
:1010800025B9000024E52A95F1F7FC018CE0619177
:1010900070E0660F771F616072609AE041E050E097
:1010A0009A0126233723232B30913E01203029F04B
:1010B000000025B1232B25B904C00000000000006A
:1010C00000C0000000000000309525B1232325B9A1
:1010D000000021E52A95F1F7440F551F9A9501F775
:1010E0008A95A9F620B7206120BFA4B930913E01AE
:1010F000309525B1232325B90FBE81E008950E94C4
:10110000CC0081E790E0909306018093050160E9AF
:1011100070E085EC90E00E94C40480E090E00895C7
:1011200097FB072E16F4009407D077FD09D00E9494
:10113000B90807FC05D03EF4909581959F4F08951E
:10114000709561957F4F0895EE0FFF1F0590F49104
:10115000E02D0994A29FB001B39FC001A39F700D21
:10116000811D1124911DB29F700D811D1124911DAF
:101170000895AA1BBB1B51E107C0AA1FBB1FA617DE
:10118000B70710F0A61BB70B881F991F5A95A9F730
:1011900080959095BC01CD0108955058BB27AA2792
:1011A0000E94E5080C94360A0E94280A38F00E9432
:1011B0002F0A20F039F49F3F19F426F40C94250AE5
:1011C0000EF4E095E7FB0C941F0AE92F0E94470AF2
:1011D00058F3BA17620773078407950720F079F46C
:1011E000A6F50C94690A0EF4E0950B2EBA2FA02DEB
:1011F0000B01B90190010C01CA01A0011124FF27C4
:10120000591B99F0593F50F4503E68F11A16F040BE
:10121000A22F232F342F4427585FF3CF46953795BD
:101220002795A795F0405395C9F77EF41F16BA0B82
:10123000620B730B840BBAF09150A1F0FF0FBB1F30
:10124000661F771F881FC2F70EC0BA0F621F731F79
:10125000841F48F4879577956795B795F7959E3FD6
:1012600008F0B0CF9395880F08F09927EE0F979567
:10127000879508950E944E090C94360A0E942F0A01
:1012800058F00E94280A40F029F45F3F29F00C949E
:101290001F0A51110C946A0A0C94250A0E94470AED
:1012A00068F39923B1F3552391F3951B550BBB2795
:1012B000AA2762177307840738F09F5F5F4F220FDA
:1012C000331F441FAA1FA9F335D00E2E3AF0E0E8D1
:1012D00032D091505040E695001CCAF72BD0FE2F1B
:1012E00029D0660F771F881FBB1F261737074807AF
:1012F000AB07B0E809F0BB0B802DBF01FF27935867
:101300005F4F3AF09E3F510578F00C941F0A0C9401
:101310006A0A5F3FE4F3983ED4F386957795679524
:10132000B795F7959F5FC9F7880F911D969587959B
:1013300097F90895E1E0660F771F881FBB1F6217BA
:1013400073078407BA0720F0621B730B840BBA0B78
:10135000EE1F88F7E09508950E94B3096894B111D3
:101360000C946A0A08950E944F0A88F09F5798F0DB
:10137000B92F9927B751B0F0E1F0660F771F881F9A
:10138000991F1AF0BA95C9F714C0B13091F00E94B4
:10139000690AB1E008950C94690A672F782F8827AD
:1013A000B85F39F0B93FCCF3869577956795B395DB
:1013B000D9F73EF490958095709561957F4F8F4F4A
:1013C0009F4F0895E89409C097FB3EF4909580954F
:1013D000709561957F4F8F4F9F4F9923A9F0F92FFB
:1013E00096E9BB279395F695879577956795B79579
:1013F000F111F8CFFAF4BB0F11F460FF1BC06F5F5F
:101400007F4F8F4F9F4F16C0882311F096E911C070
:10141000772321F09EE8872F762F05C0662371F091
:1014200096E8862F70E060E02AF09A95660F771FA5
:10143000881FDAF7880F9695879597F9089597F999
:101440009F6780E870E060E008959FEF80EC08956A
:1014500000240A9416161706180609060895002493
:101460000A9412161306140605060895092E03940D
:10147000000C11F4882352F0BB0F40F4BF2B11F481
:1014800060FF04C06F5F7F4F8F4F9F4F089557FDE0
:101490009058440F551F59F05F3F71F04795880FE2
:1014A00097FB991F61F09F3F79F087950895121679
:1014B00013061406551FF2CF4695F1DF08C0161625
:1014C00017061806991FF1CF8695710561050894D6
:1014D0000895E894BB2766277727CB0197F90895ED
:1014E0000E94830A0C94360A0E94280A38F00E944F
:1014F0002F0A20F0952311F00C941F0A0C94250A52
:1015000011240C946A0A0E94470A70F3959FC1F354
:10151000950F50E0551F629FF001729FBB27F00DA1
:10152000B11D639FAA27F00DB11DAA1F649F6627F6
:10153000B00DA11D661F829F2227B00DA11D621F45
:10154000739FB00DA11D621F839FA00D611D221FFF
:10155000749F3327A00D611D231F849F600D211DE3
:10156000822F762F6A2F11249F5750409AF0F1F066
:1015700088234AF0EE0FFF1FBB1F661F771F881FCF
:1015800091505040A9F79E3F510580F00C941F0ADE
:101590000C946A0A5F3FE4F3983ED4F386957795FE
:1015A0006795B795F795E7959F5FC1F7FE2B880F75
:1015B000911D9695879597F908958F929F92AF9276
:1015C000BF92CF92DF92EF92FF92CF93DF93EC0125
:1015D000688179818A819B816115710581059105F9
:1015E00021F464E279ED8BE597E02DE133EF41E002
:1015F00050E00E944F0B49015A019B01AC01A7EA40
:10160000B1E40E946E0B6B017C01ACEEB4EFA5015E
:1016100094010E947C0BDC01CB018C0D9D1DAE1D45
:10162000BF1DB7FF03C00197A109B0488883998304
:10163000AA83BB839F77DF91CF91FF90EF90DF90DC
:10164000CF90BF90AF909F908F9008950E94DD0A39
:10165000089587E091E00E94DD0A0895A0E0B0E0DF
:101660008093070190930801A0930901B0930A01A8
:101670000895F999FECF92BD81BDF89A992780B55A
:101680000895262FF999FECF1FBA92BD81BD20BDC6
:101690000FB6F894FA9AF99A0FBE01960895052E9E
:1016A00097FB1EF400940E94660B57FD07D00E9422
:1016B000810B07FC03D04EF40C94660B50954095BB
:1016C000309521953F4F4F4F5F4F089590958095EE
:1016D000709561957F4F8F4F9F4F08950E94AA0884
:1016E000A59F900DB49F900DA49F800D911D112476
:1016F0000895B7FF0C946E0B0E946E0B821B930B28
:101700000895A1E21A2EAA1BBB1BFD010DC0AA1F42
:10171000BB1FEE1FFF1FA217B307E407F50720F05A
:10172000A21BB30BE40BF50B661F771F881F991FD5
:101730001A9469F760957095809590959B01AC011E
:0A174000BD01CF010895F894FFCF1A
:0C174A00AACB00C800C70001000000008E
:00000001FF
