:100000000C9446000C946F000C946F000C946F00DD
:100010000C946F000C946F000C9427020C946F00EA
:100020000C946F000C946F000C946F000C944506B8
:100030000C946F000C946F000C949F040C946F0050
:100040000C946F000C946F000C946F000C946F0074
:100050000C946F000C946F000C946F000C94670666
:100060000C946F000C946F004E05A505B905EA05C8
:10007000F105D005F4055207430843085B075E0706
:1000800061076307650767071808790711241FBE12
:10009000CFEFD8E0DEBFCDBF14BE0FB6F894A89561
:1000A00080916000886180936000109260000FBEB4
:1000B00011E0A0E0B1E0EEEEF6E102C005900D9295
:1000C000AA30B107D9F721E0AAE0B1E001C01D9242
:1000D000AC38B207E1F70E94F5080C94750B0C944C
:1000E0000000FC019CE0A6E1B1E001900D929A9520
:1000F000E1F781E090E090930F0180930E01089565
:1001000082E291E0089581E090E090931101809364
:1001100010010895CF93DF93C2E2D1E019861882CF
:10012000CE010E9456089B878A87DF91CF91089560
:1001300020910C0130910D012817390709F1909396
:100140000D0180930C01009711F460E016C081301E
:10015000910539F40E944E0260918A0180918901D3
:100160000DC0029731F40E944E0260E080918B0135
:1001700005C00E944E026091770180E00C94490214
:10018000089580910E0190910F01019709F050C0E0
:1001900010920F0110920E0181E10E941B0580E078
:1001A00090E00E94980088EC90E00E943E0210923D
:1001B0002B0181E08093220182E291E00E945608A7
:1001C00090932D0180932C01809110019091110149
:1001D000019709F051C0109211011092100181E0B5
:1001E0000E941B050E94EE0290E090930B01809309
:1001F0000A018091000190910101009719F481E0BA
:1002000090E007C0019719F482E090E002C083E01B
:1002100090E00E94980080910A0190910B0163E0A8
:1002200070E00E94120990930101809300010895EB
:1002300080E10E941B050E94EE0290E090930B016A
:1002400080930A0163E070E00E941209909301011B
:1002500080930001009719F481E090E007C00197B6
:1002600019F482E090E002C083E090E00E949800E0
:1002700084E690E00C943E020895089580E090E0BA
:1002800008950895DF92EF92FF920F931F93CF93FB
:10029000DF93F89414B817B81AB815B818B81BB883
:1002A000529A5A9A14BC85E085BD8FEF87BD82E0D3
:1002B00080936E0010928000109281002FE83BE046
:1002C000309389002093880080936F00539823987F
:1002D00091EA9093B0008093B1001092B400109214
:1002E000B3008BE080BF83E080937F0086E0809343
:1002F0007C0083E880937A0080917A008064809308
:100300007A0080917A0086FDFCCF10927C0083EA0F
:1003100080937A0081E080937B0081E090E00E94EE
:100320005F0B8F3F11F08093660010925501C1E082
:10033000C0932E01C093720110924C01109286015D
:1003400080E990E00E945F0B80934B0180914B010C
:10035000887311F0C0934B011092760110927501D1
:100360008FEF90E09093740180937301109251018C
:1003700010925201109253011092540181E0809327
:10038000150182E49FE0909385018093840180EBC6
:1003900090E00E945F0BC82F81EB90E00E945F0B02
:1003A0002C2F30E0382B309388012093870185E093
:1003B00090E00E945F0B80938B0189E090E00E94A7
:1003C0005F0B809377018CE090E00E945F0B80933D
:1003D000890184E190E00E945F0B80938A0106E529
:1003E00011E05FE2E52E51E0F52EC0E2D0E0CE0153
:1003F0000E945F0BD82ECE0101960E945F0B2D2D1F
:1004000030E0322F2227282BF801219331938F01DE
:10041000CE01C0960E945F0BD82ECE01C1960E94DD
:100420005F0B2D2D30E0322F2227282BF70121934F
:1004300031937F012296CC33D105C9F67894DF91B0
:10044000CF911F910F91FF90EF90DF9008951F9231
:100450000F920FB60F9211248F930FB6F894A895B0
:1004600080916000886180936000109260000FBEF0
:100470008F910F900FBE0F901F901895009741F02D
:10048000EFECF7E03197F1F700C000000197F6CFED
:1004900008958093B3006093B40008958FEF809324
:1004A000B3008093B4008FE090E00C943E02809102
:1004B000550181111EC0F89487E080937C0083E889
:1004C00080937A0080917A00806480937A00809192
:1004D0007A0086FDFCCF809178009091790010928F
:1004E0007C0023EA20937A0021E020937B0078941B
:1004F00008958FEF9FEF08958091550181111EC0DF
:10050000F89488EC80937C0087E880937A0080914F
:100510007A00806480937A0080917A0086FDFCCF17
:10052000809178009091790010927C0023EA2093CA
:100530007A0021E020937B00789408958FEF9FEF5D
:100540000895CF93DF9320E030E080E0E3EAF1E02C
:10055000C6E0D3E8A1E0B0E090E0F894C0937C005E
:10056000D0937A0040917A00406440937A004091A1
:100570007A0046FDFCCF409178005091790041709F
:1005800050917A00506450937A0050917A0056FD51
:10059000FCCF609178007091790010927C00E0931C
:1005A0007A00F0937B0078949F5F6170461751F05A
:1005B000442359F0AD01022E01C0440F0A94EAF71A
:1005C000842B03C0903849F6F3CF2F5F3F4F28307C
:1005D000310509F0C1CFDF91CF91089580910201DB
:1005E00098E0899F9001112428279091120181E0C1
:1005F000890F80931201822F829586958770282714
:1006000096959695822F892780930201089580936D
:100610000201089580915501811116C0F89486E079
:1006200080937C0083E880937A0080917A008064D4
:1006300080937A0080917A0086FDFCCF80917800CB
:1006400090917900789408958FEF9FEF08952F92FD
:100650003F924F925F926F927F928F929F92AF9252
:10066000BF92CF92DF92EF92FF920F931F93CF939F
:10067000DF931C01FC01C281D381C438F3E0DF07A2
:100680000CF07EC080912F01909130018C179D0756
:1006900008F46FC0E1E3F1E011E0819191918C17D2
:1006A0009D0720F01F5F1E30C1F71DE0812F90E0F5
:1006B000FC01EE0FFF1FE15DFE4FE080F180880F2F
:1006C000991FFC01E35DFE4F80819181B701681B9A
:1006D000790B80E090E00E94640A9B01AC010E94CB
:1006E00050094B015C01BE010D2E000C880B990BCB
:1006F0000E94660A2B013C01B70180E090E00E9455
:10070000640A6B017C01612F70E080E090E00E9440
:10071000640A20E030E040E05FE30E94F20A20E05B
:1007200030E0A9010E945009A50194010E94F20A3B
:100730009B01AC01C701B6010E944F099B01AC01AE
:10074000C301B2010E944F0920E030E040E251E4D1
:100750000E94F20A0E942E0A7B01C501B4010E9488
:100760002E0AAB01BC01C701BA010E941209162F63
:1007700001C010E0CD3B82E0D8070CF4CAC001C034
:100780001FEFF101C080D1808091560190915701F7
:100790008C159D0588F0E8E5F1E081E090E0382EC9
:1007A000E190F190EC14FD0408F458C001968E30ED
:1007B0009105A9F70AE501C000E01F3F09F44BC00D
:1007C000BE01DD0F880B990B0E94660A6B017C014C
:1007D000612F70E080E090E00E94640A4B015C01B0
:1007E000A701960160E070E081E694E40E944F0961
:1007F0009B01AC01C501B4010E94F20A4B015C01EE
:10080000602F70E080E090E00E94640A2B013C01C0
:1008100020E030E04FE254E4C701B6010E944F09E6
:100820009B01AC01C301B2010E94F20A9B01AC0121
:10083000C501B4010E94500920E030E048E453E4CF
:100840000E94BC0920E030E044E052E40E945009DC
:100850000E94350A60C061E2600F5DC0880F991F79
:10086000FC01EC5AFE4F80819181B701681B790B26
:1008700080E090E00E94640A9B01AC010E94500954
:100880004B015C01B601DD0C880B990B0E94660AD6
:100890002B013C01B70180E090E00E94640A6B01EB
:1008A0007C01632D70E080E090E00E94640A20E00B
:1008B00030E040E05FE30E94F20A20E030E0A9016E
:1008C0000E945009A50194010E94F20A9B01AC010B
:1008D000C701B6010E944F099B01AC01C301B201DF
:1008E0000E944F0920E030E040E251E40E94F20A09
:1008F0000E942E0A7B01C501B4010E942E0AAB01A1
:10090000BC01C701BA010E941209062F6F3F09F00E
:1009100054CF61E2610F862FDF91CF911F910F912C
:10092000FF90EF90DF90CF90BF90AF909F908F900F
:100930007F906F905F904F903F902F9008951F92FF
:100940000F920FB60F9211242F933F934F935F9303
:100950006F937F938F939F93AF93BF93EF93FF9387
:10096000209175013091760180917301909174010D
:10097000820F931F90937601809375018FEF90E023
:1009800090937401809373018FEF87BD8091510123
:1009900090915201A0915301B09154010196A11D73
:1009A000B11D8093510190935201A0935301B093D4
:1009B00054018091550181112DC080918401909145
:1009C000850120917501309176018217930710F50A
:1009D000809115018430F1F4E0910501F091060158
:1009E00009950097B9F00E947208882351F0E091B0
:1009F0000301F0910401099510927601109275019E
:100A000009C00E9485009C01332730937401209314
:100A1000730187BDFF91EF91BF91AF919F918F912E
:100A20007F916F915F914F913F912F910F900FBEEA
:100A30000F901F90189580FF02C0559A01C05598DD
:100A400081FF02C0549A01C0549882FF02C03B9AB1
:100A500001C03B9883FF02C03A9A01C03A9884FFD4
:100A600002C03D9A01C03D9885FF02C03C9A08959E
:100A70003C9808958C017B01D0E0CFEF84E0D82E24
:100A800098E1C92E29E2B22EE0911501F0E0E7309D
:100A9000F105D0F7EC5CFF4F0C942609F89480B771
:100AA000877F80BF80917A008F7780937A0014B817
:100AB00017B81AB815B818B81BB80FB6F894A89597
:100AC000C09260000FBEB0926000809160008064B0
:100AD0008093600083B7817F846083BFF89483B77D
:100AE000816083BF7894889583B78E7F83BF789425
:100AF00010925501529A5A9A80917A008068809398
:100B00007A0087E592E00197F1F700C0000080B716
:100B1000886180BF8FE30E941B05EFE1FEE43197FF
:100B2000F1F700C0000080915501882309F450C0FE
:100B300083E00E941B05FFEF20E782E0F150204098
:100B40008040E1F700C0000043C08CE00E941B051C
:100B5000EFECF7E03197F1F700C0000080E00E9471
:100B60001B05FFEF21EE84E0F15020408040E1F7CB
:100B70002CC00E940A038B3AE2E09E0724F08CE02E
:100B80000E941B0581CF8938F2E09F0714F080E3B3
:100B9000F7CF8736924014F08FE0F2CF83E0F0CFAA
:100BA000489916C081E00E941B058FEC97E00197E1
:100BB000F1F700C0000080E00E941B059FEFE1EE0E
:100BC000F4E09150E040F040E1F700C000005CCF5D
:100BD00080E0D6CFD11102C0F8010995D09215015D
:100BE000D1E0F701099550CF80911301811107C021
:100BF0001092B3001092B4001092140145CF90915E
:100C0000130180911401981709F43ECF80911301CC
:100C10008093140180911301813089F4C093B30053
:100C20001092B4008FE295E70197F1F700C0000041
:100C300080918B018093B3001092B40025CF8091F6
:100C400013011092B300C093B400823059F4EFE264
:100C5000F5E73197F1F700C000008091770110921D
:100C6000B30010C0C093B300C093B4008FE295E707
:100C70000197F1F700C0000080918A0190918901ED
:100C80009093B3008093B400FFCE1F920F920FB6E3
:100C90000F9211248F939F931092810010928500E0
:100CA0001092840081E080932E0180937201109253
:100CB000550110927C0093EA90937A0080937B0018
:100CC0009F918F910F900FBE0F901F9018951F92BC
:100CD0000F920FB60F9211240F931F932F933F93F0
:100CE0004F935F936F937F938F939F93AF93BF9334
:100CF000EF93FF93209184003091850041E0409371
:100D0000550180912E01882321F1109285001092C7
:100D10008400409381001092860110922E018091F0
:100D20007201882309F4AFC180917A0086FDFCCF5F
:100D300080917800909179009093500180934F01B9
:100D400081E080937C0093EA90937A0080937B000B
:100D50009AC1C9018758910984379940A0F010922F
:100D60008100109285001092840040932E014093E0
:100D700072011092550110927C0083EA80937A00F0
:100D800040937B0080C126583109A4EFB0E00E9457
:100D90002C098C0122273327083060F481E090E091
:100DA00001C0880F0A95EAF790918601892B8093FC
:100DB000860169C140932E0180917201882341F11F
:100DC00080917A0086FDFCCF809178009091790027
:100DD00090934E0180934D0110927C0083EA8093A2
:100DE0007A0081E080937B0090918601992359F0ED
:100DF00010928100109285001092840080937201FD
:100E00001092550140C11092720110924C013BC1E9
:100E100080914C01E82FF0E0E858FE4F9091860158
:100E200090838F5F80934C018C3009F02CC110921D
:100E300081001092850010928400409372011092FC
:100E40005501009182011091830188E791E00E9491
:100E500056080817190709F016C1E0918101E7FD4E
:100E60000AC0E0910701F09108016DE471E088E7A4
:100E700091E0099508C188E78E0F833030F05398D0
:100E800023981092B4001092B3008E2F90E0FC01D2
:100E9000E058F109EB30F10508F0F5C0E55CFF4FD3
:100EA0000C94260980916E008D7F80936E0016BC95
:100EB000E0E0F0E702C0E0E0F0E0099510921501F3
:100EC000E2C081E0B2C085E0B0C082E0AEC08091F7
:100ED0001501833009F4D7C080911501843009F4DD
:100EE000D2C0539A239A1092B4001092B30083E0B8
:100EF0009CC080917801823009F44BC080F4882333
:100F0000A9F0813009F082C08091790190917A0135
:100F100090938801809387011092130177C08330EA
:100F200009F449C0843009F458C070C0809115019B
:100F3000863009F06BC06091870180EB90E00E94E1
:100F4000670B6091880181EB90E00E94670B6091D4
:100F50008B0185E090E00E94670B6091770189E04A
:100F600090E00E94670B609189018CE090E00E9404
:100F7000670B60918A0184E190E00E94670B5398AF
:100F800023981092B4001092B30081E08093150171
:100F90003DC09091130180917B01913021F490919B
:100FA0008B01891799F11092140191E0909313012C
:100FB00080938B012BC09091130180917C01923022
:100FC00021F490917701891709F11092140192E0B0
:100FD000909313018093770119C0209113018091A0
:100FE0007E0190917D01233041F420918A0182138A
:100FF00004C020918901921749F01092140123E056
:10100000209313019093890180938A018091780144
:101010008823C9F1809115018630A9F1539A239A4A
:101020001092B4001092B30086E0809315012BC09B
:1010300080911501863081F0539A239A1092B40062
:101040001092B30080E00E941B05109213011092D1
:10105000140186E08093150181E090E00090780112
:1010600002C0880F991F0A94E2F7209187013091FE
:10107000880182239323892B21F081E0809313013F
:1010800002C010921301FF91EF91BF91AF919F9118
:101090008F917F916F915F914F913F912F911F9110
:1010A0000F910F900FBE0F901F901895FC019C019F
:1010B000265F3F4F8FEF9FEF41918427082E829547
:1010C000807F8025092E982F82958F70082686951F
:1010D00098278927880F880F880F8025E217F30744
:1010E00059F708950FB6F894A4B120914B012A2B1B
:1010F00024B921E030914B01203029F0000025B1C6
:10110000232B25B904C000000000000000C000002F
:1011100000000000309525B1232325B92EEA2A9539
:10112000F1F72BEE30B735FF0AC0A4B930914B016F
:10113000309525B1232325B90FBE80E00895000026
:101140002A9581F721E030914B01203029F00000F1
:1011500025B1232B25B904C000000000000000C009
:10116000000000000000309525B1232325B90000C0
:1011700024E52A95F1F7FC018CE0619170E0660F9F
:10118000771F616072609AE041E050E09A01262387
:101190003723232B30914B01203029F0000025B15B
:1011A000232B25B904C000000000000000C000008F
:1011B00000000000309525B1232325B9000021E56A
:1011C0002A95F1F7440F551F9A9501F78A95A9F6CC
:1011D00020B7206120BFA4B930914B01309525B1D3
:1011E000232325B90FBE81E008950E94420181E7C3
:1011F00090E0909308018093070180E890E090933D
:1012000006018093050183E890E0909304018093A8
:10121000030161EC70E08AE890E00E943A0580E00A
:1012200090E0089597FB072E16F4009407D077FD01
:1012300009D00E943B0907FC05D03EF490958195AA
:101240009F4F0895709561957F4F0895EE0FFF1F92
:101250000590F491E02D0994A29FB001B39FC001C5
:10126000A39F700D811D1124911DB29F700D811DD2
:101270001124911D0895AA1BBB1B51E107C0AA1F91
:10128000BB1FA617B70710F0A61BB70B881F991F27
:101290005A95A9F780959095BC01CD0108955058B5
:1012A000BB27AA270E9467090C94B80A0E94AA0AC1
:1012B00038F00E94B10A20F039F49F3F19F426F467
:1012C0000C94A70A0EF4E095E7FB0C94A10AE92F11
:1012D0000E94C90A58F3BA17620773078407950773
:1012E00020F079F4A6F50C94EB0A0EF4E0950B2EA1
:1012F000BA2FA02D0B01B90190010C01CA01A00168
:101300001124FF27591B99F0593F50F4503E68F1C2
:101310001A16F040A22F232F342F4427585FF3CF03
:10132000469537952795A795F0405395C9F77EF4D4
:101330001F16BA0B620B730B840BBAF09150A1F01D
:10134000FF0FBB1F661F771F881FC2F70EC0BA0FA3
:10135000621F731F841F48F4879577956795B7952B
:10136000F7959E3F08F0B0CF9395880F08F0992726
:10137000EE0F9795879508950E94D0090C94B80AAE
:101380000E94B10A58F00E94AA0A40F029F45F3F77
:1013900029F00C94A10A51110C94EC0A0C94A70AA0
:1013A0000E94C90A68F39923B1F3552391F3951B61
:1013B000550BBB27AA2762177307840738F09F5F76
:1013C0005F4F220F331F441FAA1FA9F335D00E2EE3
:1013D0003AF0E0E832D091505040E695001CCAF750
:1013E0002BD0FE2F29D0660F771F881FBB1F261713
:1013F00037074807AB07B0E809F0BB0B802DBF01EA
:10140000FF2793585F4F3AF09E3F510578F00C94B8
:10141000A10A0C94EC0A5F3FE4F3983ED4F386955E
:1014200077956795B795F7959F5FC9F7880F911DD9
:101430009695879597F90895E1E0660F771F881FC5
:10144000BB1F621773078407BA0720F0621B730B78
:10145000840BBA0BEE1F88F7E09508950E94350AB9
:101460006894B1110C94EC0A08950E94D10A88F096
:101470009F5798F0B92F9927B751B0F0E1F0660F58
:10148000771F881F991F1AF0BA95C9F714C0B13099
:1014900091F00E94EB0AB1E008950C94EB0A672FDB
:1014A000782F8827B85F39F0B93FCCF386957795C8
:1014B0006795B395D9F73EF49095809570956195B1
:1014C0007F4F8F4F9F4F0895E89409C097FB3EF4DC
:1014D00090958095709561957F4F8F4F9F4F992381
:1014E000A9F0F92F96E9BB279395F69587957795FF
:1014F0006795B795F111F8CFFAF4BB0F11F460FFBF
:101500001BC06F5F7F4F8F4F9F4F16C0882311F016
:1015100096E911C0772321F09EE8872F762F05C02A
:10152000662371F096E8862F70E060E02AF09A95C5
:10153000660F771F881FDAF7880F9695879597F9BA
:10154000089597F99F6780E870E060E008959FEF45
:1015500080EC089500240A9416161706180609064A
:10156000089500240A941216130614060506089519
:10157000092E0394000C11F4882352F0BB0F40F4A1
:10158000BF2B11F460FF04C06F5F7F4F8F4F9F4FE1
:10159000089557FD9058440F551F59F05F3F71F063
:1015A0004795880F97FB991F61F09F3F79F08795CA
:1015B0000895121613061406551FF2CF4695F1DF53
:1015C00008C0161617061806991FF1CF86957105E3
:1015D000610508940895E894BB2766277727CB0117
:1015E00097F908950E94050B0C94B80A0E94AA0A64
:1015F00038F00E94B10A20F0952311F00C94A10A52
:101600000C94A70A11240C94EC0A0E94C90A70F3E6
:10161000959FC1F3950F50E0551F629FF001729F97
:10162000BB27F00DB11D639FAA27F00DB11DAA1FA6
:10163000649F6627B00DA11D661F829F2227B00DF3
:10164000A11D621F739FB00DA11D621F839FA00D7E
:10165000611D221F749F3327A00D611D231F849FCE
:10166000600D211D822F762F6A2F11249F57504025
:101670009AF0F1F088234AF0EE0FFF1FBB1F661FA0
:10168000771F881F91505040A9F79E3F510580F069
:101690000C94A10A0C94EC0A5F3FE4F3983ED4F357
:1016A000869577956795B795F795E7959F5FC1F70D
:1016B000FE2B880F911D9695879597F90895F999B6
:1016C000FECF92BD81BDF89A992780B50895262F47
:1016D000F999FECF1FBA92BD81BD20BD0FB6F89417
:0E16E000FA9AF99A0FBE01960895F894FFCF7A
:0A16EE000400AA41013E013D010085
:00000001FF
