:100000000C9446000C946F000C946F000C946F00DD
:100010000C946F000C946F000C94D4010C946F003E
:100020000C946F000C946F000C946F000C94F2050C
:100030000C946F000C946F000C944C040C946F00A3
:100040000C946F000C946F000C946F000C946F0074
:100050000C946F000C946F000C946F000C941406B9
:100060000C946F000C946F00FB0452056605970515
:100070009E057D05A105FF06F007F00708070B07A1
:100080000E07100712071407C507260711241FBE05
:10009000CFEFD8E0DEBFCDBF14BE0FB6F894A89561
:1000A00080916000886180936000109260000FBEB4
:1000B00011E0A0E0B1E0ECE3F6E102C005900D92A2
:1000C000A830B107D9F721E0A8E0B1E001C01D9246
:1000D000A038B207E1F70E94A2080C941C0B0C9404
:1000E000000086E191E0089581E090E090930F0197
:1000F00080930E010895CF93DF93C6E1D1E0198676
:100100001882CE010E9403089B878A87DF91CF91D6
:10011000089520911401309115012817390709F12C
:100120009093150180931401009711F460E016C0BC
:100130008130910539F40E94FB0160917E0180912C
:100140007D010DC0029731F40E94FB0160E08091B7
:100150007F0105C00E94FB0160916B0180E00C945F
:10016000F601089580910E0190910F01019759F5C4
:1001700010920F0110920E0181E00E94C80484E6E3
:1001800090E00E94EB0180E00E94C8040E949B0264
:1001900090E0909309018093080163E070E00E9471
:1001A000B90890930B0180930A01009719F481E03C
:1001B00090E007C0019719F482E090E002C083E06C
:1001C00090E00E94890088EC90E00E94EB0185E1BC
:1001D0000C94C804089580E090E008950895DF929B
:1001E000EF92FF920F931F93CF93DF93F89414B87D
:1001F00017B81AB815B818B81BB8529A5A9A14BC3E
:1002000085E085BD8FEF87BD82E080936E00109200
:100210008000109281002FE83BE03093890020930A
:10022000880080936F005398239891EA9093B000D0
:100230008093B1001092B4001092B3008BE080BFA5
:1002400083E080937F0086E080937C0083E8809346
:100250007A0080917A00806480937A0080917A009D
:1002600086FDFCCF10927C0083EA80937A0081E0C7
:1002700080937B0081E090E00E94060B8F3F11F09D
:100280008093660010924901C1E0C0932201C0939F
:1002900066011092400110927A0180E990E00E947C
:1002A000060B80933F0180913F01887311F0C0934A
:1002B0003F0110926A01109269018FEF90E09093D4
:1002C00068018093670110924501109246011092D7
:1002D00047011092480181E08093130182E49FE07E
:1002E000909379018093780180EB90E00E94060B57
:1002F000C82F81EB90E00E94060B2C2F30E0382BAA
:1003000030937C0120937B0185E090E00E94060BF6
:1003100080937F0189E090E00E94060B80936B013F
:100320008CE090E00E94060B80937D0184E190E0D8
:100330000E94060B80937E010AE411E053E2E52E51
:1003400051E0F52EC0E2D0E0CE010E94060BD82E7F
:10035000CE0101960E94060B2D2D30E0322F222770
:10036000282BF801219331938F01CE01C0960E9472
:10037000060BD82ECE01C1960E94060B2D2D30E023
:10038000322F2227282BF701219331937F012296C8
:10039000CC33D105C9F67894DF91CF911F910F919D
:1003A000FF90EF90DF9008951F920F920FB60F927B
:1003B00011248F930FB6F894A895809160008861FE
:1003C00080936000109260000FBE8F910F900FBE5F
:1003D0000F901F901895009741F0EFECF7E03197E0
:1003E000F1F700C000000197F6CF08958093B300A5
:1003F0006093B40008958FEF8093B3008093B400AE
:100400008FE090E00C94EB018091490181111EC0B6
:10041000F89487E080937C0083E880937A00809151
:100420007A00806480937A0080917A0086FDFCCF08
:10043000809178009091790010927C0023EA2093BB
:100440007A0021E020937B00789408958FEF9FEF4E
:1004500008958091490181111EC0F89488EC809321
:100460007C0087E880937A0080917A008064809392
:100470007A0080917A0086FDFCCF8091780090917F
:10048000790010927C0023EA20937A0021E02093E7
:100490007B00789408958FEF9FEF0895CF93DF93BB
:1004A00020E030E080E0E3EAF1E0C6E0D3E8A1E05C
:1004B000B0E090E0F894C0937C00D0937A00409133
:1004C0007A00406440937A0040917A0046FDFCCF68
:1004D0004091780050917900417050917A005064B9
:1004E00050937A0050917A0056FDFCCF60917800CD
:1004F0007091790010927C00E0937A00F0937B0079
:1005000078949F5F6170461751F0442359F0AD0114
:10051000022E01C0440F0A94EAF7842B03C09038DE
:1005200049F6F3CF2F5F3F4F2830310509F0C1CF97
:10053000DF91CF9108958091000198E0899F90010B
:10054000112428279091100181E0890F80931001D8
:10055000822F829586958770282796959695822F6B
:100560008927809300010895809300010895809168
:100570004901811116C0F89486E080937C0083E8DD
:1005800080937A0080917A00806480937A008091D1
:100590007A0086FDFCCF8091780090917900789464
:1005A00008958FEF9FEF08952F923F924F925F92A1
:1005B0006F927F928F929F92AF92BF92CF92DF9273
:1005C000EF92FF920F931F93CF93DF931C01FC01D7
:1005D000C281D381C438F3E0DF070CF07EC0809184
:1005E0002301909124018C179D0708F46FC0E5E268
:1005F000F1E011E0819191918C179D0720F01F5F30
:100600001E30C1F71DE0812F90E0FC01EE0FFF1FAF
:10061000ED5DFE4FE080F180880F991FFC01EF5DDA
:10062000FE4F80819181B701681B790B80E090E0DB
:100630000E940B0A9B01AC010E94F7084B015C0170
:10064000BE010D2E000C880B990B0E940D0A2B0188
:100650003C01B70180E090E00E940B0A6B017C0135
:10066000612F70E080E090E00E940B0A20E030E013
:1006700040E05FE30E94990A20E030E0A9010E9477
:10068000F708A50194010E94990A9B01AC01C701DA
:10069000B6010E94F6089B01AC01C301B2010E94A1
:1006A000F60820E030E040E251E40E94990A0E94FE
:1006B000D5097B01C501B4010E94D509AB01BC017C
:1006C000C701BA010E94B908162F01C010E0CD3B46
:1006D00082E0D8070CF4CAC001C01FEFF101C0804E
:1006E000D18080914A0190914B018C159D0588F035
:1006F000ECE4F1E081E090E0382EE190F190EC1430
:10070000FD0408F458C001968E309105A9F70AE55A
:1007100001C000E01F3F09F44BC0BE01DD0F880B94
:10072000990B0E940D0A6B017C01612F70E080E043
:1007300090E00E940B0A4B015C01A701960160E06A
:1007400070E081E694E40E94F6089B01AC01C501CB
:10075000B4010E94990A4B015C01602F70E080E0B7
:1007600090E00E940B0A2B013C0120E030E04FE2B8
:1007700054E4C701B6010E94F6089B01AC01C30115
:10078000B2010E94990A9B01AC01C501B4010E940B
:10079000F70820E030E048E453E40E94630920E0D9
:1007A00030E044E052E40E94F7080E94DC0960C097
:1007B00061E2600F5DC0880F991FFC01E85BFE4F8E
:1007C00080819181B701681B790B80E090E00E94E5
:1007D0000B0A9B01AC010E94F7084B015C01B601BA
:1007E000DD0C880B990B0E940D0A2B013C01B7010F
:1007F00080E090E00E940B0A6B017C01632D70E0A9
:1008000080E090E00E940B0A20E030E040E05FE3EF
:100810000E94990A20E030E0A9010E94F708A50192
:1008200094010E94990A9B01AC01C701B6010E9484
:10083000F6089B01AC01C301B2010E94F60820E05A
:1008400030E040E251E40E94990A0E94D5097B0100
:10085000C501B4010E94D509AB01BC01C701BA01B1
:100860000E94B908062F6F3F09F054CF61E2610F73
:10087000862FDF91CF911F910F91FF90EF90DF9026
:10088000CF90BF90AF909F908F907F906F905F9030
:100890004F903F902F9008951F920F920FB60F9296
:1008A00011242F933F934F935F936F937F938F9375
:1008B0009F93AF93BF93EF93FF9320916901309182
:1008C0006A018091670190916801820F931F909354
:1008D0006A01809369018FEF90E0909368018093A3
:1008E00067018FEF87BD8091450190914601A091EE
:1008F0004701B09148010196A11DB11D80934501AA
:1009000090934601A0934701B0934801809149011B
:1009100081112DC080917801909179012091690118
:1009200030916A018217930710F58091130184308A
:10093000F1F4E0910301F091040109950097B9F0F9
:100940000E941F08882351F0E0910101F0910201FB
:10095000099510926A011092690109C00E948400F1
:100960009C013327309368012093670187BDFF9175
:10097000EF91BF91AF919F918F917F916F915F9117
:100980004F913F912F910F900FBE0F901F90189590
:1009900080FF02C0559A01C0559881FF02C0549A49
:1009A00001C0549882FF02C03B9A01C03B9883FF6C
:1009B00002C03A9A01C03A9884FF02C03D9A01C031
:1009C0003D9885FF02C03C9A08953C9808958C019B
:1009D0007B01D0E0CFEF84E0D82E98E1C92E29E248
:1009E000B22EE0911301F0E0E730F105D0F7EC5CB6
:1009F000FF4F0C94CD08F89480B7877F80BF80911B
:100A00007A008F7780937A0014B817B81AB815B89F
:100A100018B81BB80FB6F894A895C09260000FBE26
:100A2000B09260008091600080648093600083B722
:100A3000817F846083BFF89483B7816083BF78949B
:100A4000889583B78E7F83BF789410924901529A1C
:100A50005A9A80917A00806880937A0087E592E0C4
:100A60000197F1F700C0000080B7886180BF8FE375
:100A70000E94C804EFE1FEE43197F1F700C00000E6
:100A800080914901882309F450C083E00E94C80482
:100A9000FFEF20E782E0F15020408040E1F700C006
:100AA000000043C08CE00E94C804EFECF7E03197EF
:100AB000F1F700C0000080E00E94C804FFEF21EEC3
:100AC00084E0F15020408040E1F72CC00E94B70242
:100AD0008B3AE2E09E0724F08CE00E94C80481CFAC
:100AE0008938F2E09F0714F080E3F7CF8736924011
:100AF00014F08FE0F2CF83E0F0CF489916C081E088
:100B00000E94C8048FEC97E00197F1F700C0000045
:100B100080E00E94C8049FEFE1EEF4E09150E040D5
:100B2000F040E1F700C000005CCF80E0D6CFD111EB
:100B300002C0F8010995D0921301D1E0F70109959F
:100B400050CF80911101811107C01092B300109213
:100B5000B4001092120145CF9091110180911201C1
:100B6000981709F43ECF8091110180931201809172
:100B70001101813089F4C093B3001092B4008FE268
:100B800095E70197F1F700C0000080917F01809305
:100B9000B3001092B40025CF809111011092B300E0
:100BA000C093B400823059F4EFE2F5E73197F1F7E2
:100BB00000C0000080916B011092B30010C0C09380
:100BC000B300C093B4008FE295E70197F1F700C03E
:100BD000000080917E0190917D019093B3008093FD
:100BE000B400FFCE1F920F920FB60F9211248F9375
:100BF0009F9310928100109285001092840081E0F2
:100C000080932201809366011092490110927C002A
:100C100093EA90937A0080937B009F918F910F903D
:100C20000FBE0F901F9018951F920F920FB60F9244
:100C300011240F931F932F933F934F935F936F93C1
:100C40007F938F939F93AF93BF93EF93FF932091E5
:100C500084003091850041E0409349018091220158
:100C6000882321F110928500109284004093810026
:100C700010927A011092220180916601882309F472
:100C8000AFC180917A0086FDFCCF80917800909171
:100C90007900909344018093430181E080937C002C
:100CA00093EA90937A0080937B009AC1C901875898
:100CB000910984379940A0F010928100109285002C
:100CC00010928400409322014093660110924901E2
:100CD00010927C0083EA80937A0040937B0080C16D
:100CE00026583109A4EFB0E00E94D3088C012227D6
:100CF0003327083060F481E090E001C0880F0A9546
:100D0000EAF790917A01892B80937A0169C1409327
:100D1000220180916601882341F180917A0086FD4D
:100D2000FCCF80917800909179009093420180935C
:100D3000410110927C0083EA80937A0081E08093E5
:100D40007B0090917A01992359F0109281001092C2
:100D5000850010928400809366011092490140C181
:100D600010926601109240013BC180914001E82F32
:100D7000F0E0E459FE4F90917A0190838F5F809369
:100D800040018C3009F02CC1109281001092850036
:100D900010928400409366011092490100917601FF
:100DA000109177018CE691E00E940308081719075B
:100DB00009F016C1E0917501E7FD0AC0E091050157
:100DC000F091060161E471E08CE691E0099508C1BB
:100DD00088E78E0F833030F0539823981092B40038
:100DE0001092B3008E2F90E0FC01E058F109EB3037
:100DF000F10508F0F5C0E55CFF4F0C94CD0880913B
:100E00006E008D7F80936E0016BCE0E0F0E702C0BC
:100E1000E0E0F0E0099510921301E2C081E0B2C079
:100E200085E0B0C082E0AEC080911301833009F448
:100E3000D7C080911301843009F4D2C0539A239A09
:100E40001092B4001092B30083E09CC080916C01BA
:100E5000823009F44BC080F48823A9F0813009F076
:100E600082C080916D0190916E0190937C0180937E
:100E70007B011092110177C0833009F449C084309E
:100E800009F458C070C080911301863009F06BC01E
:100E900060917B0180EB90E00E940E0B60917C01E1
:100EA00081EB90E00E940E0B60917F0185E090E065
:100EB0000E940E0B60916B0189E090E00E940E0B86
:100EC00060917D018CE090E00E940E0B60917E01AC
:100ED00084E190E00E940E0B539823981092B40086
:100EE0001092B30081E0809313013DC090911101F5
:100EF00080916F01913021F490917F01891799F1D0
:100F00001092120191E09093110180937F012BC008
:100F10009091110180917001923021F490916B01B8
:100F2000891709F11092120192E0909311018093B8
:100F30006B0119C020911101809172019091710192
:100F4000233041F420917E01821304C020917D0161
:100F5000921749F01092120123E02093110190930F
:100F60007D0180937E0180916C018823C9F180917D
:100F700013018630A9F1539A239A1092B40010926B
:100F8000B30086E0809313012BC08091130186305B
:100F900081F0539A239A1092B4001092B30080E02B
:100FA0000E94C804109211011092120186E08093F1
:100FB000130181E090E000906C0102C0880F991F3E
:100FC0000A94E2F720917B0130917C0182239323E4
:100FD000892B21F081E08093110102C01092110150
:100FE000FF91EF91BF91AF919F918F917F916F9101
:100FF0005F914F913F912F911F910F910F900FBED5
:101000000F901F901895FC019C01265F3F4F8FEFBA
:101010009FEF41918427082E8295807F8025092E9D
:10102000982F82958F700826869598278927880F94
:10103000880F880F8025E217F30759F708950FB638
:10104000F894A4B120913F012A2B24B921E03091DA
:101050003F01203029F0000025B1232B25B904C021
:1010600000000000000000C00000000000003095FB
:1010700025B1232325B92EEA2A95F1F72BEE30B7B7
:1010800035FF0AC0A4B930913F01309525B1232323
:1010900025B90FBE80E0089500002A9581F721E070
:1010A00030913F01203029F0000025B1232B25B9D4
:1010B00004C000000000000000C0000000000000AC
:1010C000309525B1232325B9000024E52A95F1F7B1
:1010D000FC018CE0619170E0660F771F61607260C7
:1010E0009AE041E050E09A0126233723232B3091E8
:1010F0003F01203029F0000025B1232B25B904C081
:1011000000000000000000C000000000000030955A
:1011100025B1232325B9000021E52A95F1F7440FD5
:10112000551F9A9501F78A95A9F620B7206120BF2F
:10113000A4B930913F01309525B1232325B90FBEC5
:1011400081E008950E94EF0081E790E09093040110
:101150008093030184E790E0909302018093010162
:1011600062EB70E08BE790E00E94E70480E090E0A3
:10117000089597FB072E16F4009407D077FD09D049
:101180000E94E20807FC05D03EF4909581959F4FA0
:101190000895709561957F4F0895EE0FFF1F05909C
:1011A000F491E02D0994A29FB001B39FC001A39FC9
:1011B000700D811D1124911DB29F700D811D112490
:1011C000911D0895AA1BBB1B51E107C0AA1FBB1F9D
:1011D000A617B70710F0A61BB70B881F991F5A95C3
:1011E000A9F780959095BC01CD0108955058BB2773
:1011F000AA270E940E090C945F0A0E94510A38F037
:101200000E94580A20F039F49F3F19F426F40C94F8
:101210004E0A0EF4E095E7FB0C94480AE92F0E9471
:10122000700A58F3BA17620773078407950720F00E
:1012300079F4A6F50C94920A0EF4E0950B2EBA2FD1
:10124000A02D0B01B90190010C01CA01A0011124CC
:10125000FF27591B99F0593F50F4503E68F11A1678
:10126000F040A22F232F342F4427585FF3CF469509
:1012700037952795A795F0405395C9F77EF41F162B
:10128000BA0B620B730B840BBAF09150A1F0FF0FF5
:10129000BB1F661F771F881FC2F70EC0BA0F621FE1
:1012A000731F841F48F4879577956795B795F795D1
:1012B0009E3F08F0B0CF9395880F08F09927EE0F66
:1012C0009795879508950E9477090C945F0A0E946C
:1012D000580A58F00E94510A40F029F45F3F29F063
:1012E0000C94480A51110C94930A0C944E0A0E94D3
:1012F000700A68F39923B1F3552391F3951B550BAD
:10130000BB27AA2762177307840738F09F5F5F4FD8
:10131000220F331F441FAA1FA9F335D00E2E3AF017
:10132000E0E832D091505040E695001CCAF72BD02F
:10133000FE2F29D0660F771F881FBB1F2617370780
:101340004807AB07B0E809F0BB0B802DBF01FF27B2
:1013500093585F4F3AF09E3F510578F00C94480A3D
:101360000C94930A5F3FE4F3983ED4F38695779507
:101370006795B795F7959F5FC9F7880F911D96956B
:10138000879597F90895E1E0660F771F881FBB1FC7
:10139000621773078407BA0720F0621B730B840B74
:1013A000BA0BEE1F88F7E09508950E94DC09689457
:1013B000B1110C94930A08950E94780A88F09F57FF
:1013C00098F0B92F9927B751B0F0E1F0660F771F69
:1013D000881F991F1AF0BA95C9F714C0B13091F05F
:1013E0000E94920AB1E008950C94920A672F782F18
:1013F0008827B85F39F0B93FCCF386957795679524
:10140000B395D9F73EF490958095709561957F4F8F
:101410008F4F9F4F0895E89409C097FB3EF4909535
:101420008095709561957F4F8F4F9F4F9923A9F0BD
:10143000F92F96E9BB279395F6958795779567954C
:10144000B795F111F8CFFAF4BB0F11F460FF1BC090
:101450006F5F7F4F8F4F9F4F16C0882311F096E923
:1014600011C0772321F09EE8872F762F05C06623D1
:1014700071F096E8862F70E060E02AF09A95660F8A
:10148000771F881FDAF7880F9695879597F9089543
:1014900097F99F6780E870E060E008959FEF80EC27
:1014A000089500240A9416161706180609060895CA
:1014B00000240A9412161306140605060895092E30
:1014C0000394000C11F4882352F0BB0F40F4BF2B9F
:1014D00011F460FF04C06F5F7F4F8F4F9F4F0895DF
:1014E00057FD9058440F551F59F05F3F71F04795D5
:1014F000880F97FB991F61F09F3F79F087950895BA
:10150000121613061406551FF2CF4695F1DF08C0D8
:10151000161617061806991FF1CF869571056105F5
:1015200008940895E894BB2766277727CB0197F99D
:1015300008950E94AC0A0C945F0A0E94510A38F088
:101540000E94580A20F0952311F00C94480A0C943C
:101550004E0A11240C94930A0E94700A70F3959F0E
:10156000C1F3950F50E0551F629FF001729FBB279A
:10157000F00DB11D639FAA27F00DB11DAA1F649F36
:101580006627B00DA11D661F829F2227B00DA11DE9
:10159000621F739FB00DA11D621F839FA00D611D6F
:1015A000221F749F3327A00D611D231F849F600D90
:1015B000211D822F762F6A2F11249F5750409AF0B9
:1015C000F1F088234AF0EE0FFF1FBB1F661F771F45
:1015D000881F91505040A9F79E3F510580F00C9410
:1015E000480A0C94930A5F3FE4F3983ED4F386953F
:1015F00077956795B795F795E7959F5FC1F7FE2BB0
:10160000880F911D9695879597F90895F999FECFC2
:1016100092BD81BDF89A992780B50895262FF99932
:10162000FECF1FBA92BD81BD20BD0FB6F894FA9AC5
:0C163000F99A0FBE01960895F894FFCFC0
:08163C00AAEE00EB00EA000039
:00000001FF
