:100000000C9446000C946F000C946F000C946F00DD
:100010000C946F000C946F000C942D020C946F00E4
:100020000C946F000C946F000C946F000C944B06B2
:100030000C946F000C946F000C94A5040C946F004A
:100040000C946F000C946F000C946F000C946F0074
:100050000C946F000C946F000C946F000C946D0660
:100060000C946F000C946F005405AB05BF05F005B0
:10007000F705D605FA0558074908490861076407D6
:10008000670769076B076D071E087F0711241FBEEE
:10009000CFEFD8E0DEBFCDBF14BE0FB6F894A89561
:1000A00080916000886180936000109260000FBEB4
:1000B00011E0A0E0B1E0E0E7F7E102C005900D92A9
:1000C000AA30B107D9F721E0AAE0B1E001C01D9242
:1000D000AE37B207E1F70E94FB080C94B60B0C9404
:1000E000000084E191E0089581E090E090930F0199
:1000F00080930E0108950E94540260917C018091CA
:100100007B010C944F02CF92DF92EF92FF92CF933C
:10011000DF93C12CD12C7601C0E0D0E00E945D02BB
:100120008F3F2FEF920749F0092E000CAA0BBB0B53
:10013000C80ED91EEA1EFB1E2196CC3281E0D807DC
:100140006CF39E01DD0F440B550BC701B6010E94F5
:100150002609C901DF91CF91FF90EF90DF90CF90FA
:100160000895CF93DF93C4E1D1E0198681E08883BD
:10017000CE010E945C089B878A870E94830090932F
:100180000B0180930A01DF91CF910895009711F43C
:1001900060E011C08130910511F40C947B0002974E
:1001A00031F40E94540260E080917D0105C00E94FC
:1001B00054026091690180E00C944F02009719F499
:1001C0000E947B0018C08130910519F482E090E014
:1001D00004C0029729F483E090E00E94C6000BC09F
:1001E00085E00E94210580E090E00E94C6008CED31
:1001F00095E00E94440284E690E00C9444028091D1
:100200000E0190910F01019701F510920F011092CC
:100210000E0181E00E9421050E94F40290E090937B
:100220000D0180930C0180910001909101010E94C9
:10023000DE0080910C0190910D0163E070E00E945E
:10024000120990930101809300010C948300809126
:100250000A0190910B01895E9340439768F480E016
:1002600090E00E94C60085E10E9421058AEF90E09F
:100270000E9444020E94FF000E94FF0090930B0125
:1002800080930A010895089580E090E0089508950C
:10029000DF92EF92FF920F931F93CF93DF93F89427
:1002A00014B817B81AB815B818B81BB8529A5A9A91
:1002B00014BC85E085BD8FEF87BD82E080936E0022
:1002C00010928000109281002FE83BE0309389006B
:1002D0002093880080936F005398239891EA90931D
:1002E000B0008093B1001092B4001092B3008BE084
:1002F00080BF83E080937F0086E080937C0083E86A
:1003000080937A0080917A00806480937A00809153
:100310007A0086FDFCCF10927C0083EA80937A00FD
:1003200081E080937B0081E090E00E94A00B8F3FF2
:1003300011F08093660010924701C1E0C093200144
:10034000C093640110923E011092780180E990E020
:100350000E94A00B80933D0180913D01887311F0B4
:10036000C0933D0110926801109267018FEF90E0F9
:1003700090936601809365011092430110924401AD
:10038000109245011092460181E08093130182E4AE
:100390009FE0909377018093760180EB90E00E943C
:1003A000A00BC82F81EB90E00E94A00B2C2F30E017
:1003B000382B30937A012093790185E090E00E94F8
:1003C000A00B80937D0189E090E00E94A00B8093B8
:1003D00069018CE090E00E94A00B80937B0184E196
:1003E00090E00E94A00B80937C0108E411E051E2B0
:1003F000E52E51E0F52EC0E2D0E0CE010E94A00B28
:10040000D82ECE0101960E94A00B2D2D30E0322F68
:100410002227282BF801219331938F01CE01C0961A
:100420000E94A00BD82ECE01C1960E94A00B2D2DAC
:1004300030E0322F2227282BF701219331937F01BF
:100440002296CC33D105C9F67894DF91CF911F91D4
:100450000F91FF90EF90DF9008951F920F920FB6CB
:100460000F9211248F930FB6F894A8958091600095
:10047000886180936000109260000FBE8F910F9092
:100480000FBE0F901F901895009741F0EFECF7E02A
:100490003197F1F700C000000197F6CF08958093DF
:1004A000B3006093B40008958FEF8093B3008093FE
:1004B000B4008FE090E00C944402809147018111D8
:1004C0001EC0F89487E080937C0083E880937A00D4
:1004D00080917A00806480937A0080917A0086FD12
:1004E000FCCF809178009091790010927C0023EAF3
:1004F00020937A0021E020937B00789408958FEF79
:100500009FEF08958091470181111EC0F89488ECF7
:1005100080937C0087E880937A0080917A008064E1
:1005200080937A0080917A0086FDFCCF80917800DC
:100530009091790010927C0023EA20937A0021E0C8
:1005400020937B00789408958FEF9FEF0895CF93C9
:10055000DF9320E030E080E0E3EAF1E0C6E0D3E8BA
:10056000A1E0B0E090E0F894C0937C00D0937A00D2
:1005700040917A00406440937A0040917A0046FDB1
:10058000FCCF4091780050917900417050917A00F1
:10059000506450937A0050917A0056FDFCCF6091E0
:1005A00078007091790010927C00E0937A00F093CB
:1005B0007B0078949F5F6170461751F0442359F097
:1005C000AD01022E01C0440F0A94EAF7842B03C048
:1005D000903849F6F3CF2F5F3F4F2830310509F0AF
:1005E000C1CFDF91CF9108958091020198E0899F5A
:1005F0009001112428279091100181E0890F8093A8
:100600001001822F8295869587702827969596955A
:10061000822F892780930201089580930201089513
:1006200080914701811116C0F89486E080937C0088
:1006300083E880937A0080917A00806480937A00C6
:1006400080917A0086FDFCCF8091780090917900AE
:10065000789408958FEF9FEF08952F923F924F92D5
:100660005F926F927F928F929F92AF92BF92CF9242
:10067000DF92EF92FF920F931F93CF93DF931C01B2
:10068000FC01C281D381C438F3E0DF070CF07EC0E7
:1006900080912101909122018C179D0708F46FC071
:1006A000E3E2F1E011E0819191918C179D0720F038
:1006B0001F5F1E30C1F71DE0812F90E0FC01EE0F9F
:1006C000FF1FEF5DFE4FE080F180880F991FFC0156
:1006D000E15EFE4F80819181B701681B790B80E05C
:1006E00090E00E94A50A9B01AC010E9491094B0178
:1006F0005C01BE010D2E000C880B990B0E94A70A0D
:100700002B013C01B70180E090E00E94A50A6B013B
:100710007C01612F70E080E090E00E94A50A20E05B
:1007200030E040E05FE30E94330B20E030E0A901BD
:100730000E949109A50194010E94330B9B01AC0119
:10074000C701B6010E9490099B01AC01C301B2012F
:100750000E94900920E030E040E251E40E94330B17
:100760000E946F0A7B01C501B4010E946F0AAB01B0
:10077000BC01C701BA010E941209162F01C010E086
:10078000CD3B82E0D8070CF4CAC001C01FEFF101D5
:10079000C080D18080914801909149018C159D05C0
:1007A00088F0EAE4F1E081E090E0382EE190F19009
:1007B000EC14FD0408F458C001968E309105A9F799
:1007C0000AE501C000E01F3F09F44BC0BE01DD0F88
:1007D000880B990B0E94A70A6B017C01612F70E0C6
:1007E00080E090E00E94A50A4B015C01A701960100
:1007F00060E070E081E694E40E9490099B01AC0106
:10080000C501B4010E94330B4B015C01602F70E005
:1008100080E090E00E94A50A2B013C0120E030E03E
:100820004FE254E4C701B6010E9490099B01AC015C
:10083000C301B2010E94330B9B01AC01C501B4019D
:100840000E94910920E030E048E453E40E94FD0951
:1008500020E030E044E052E40E9491090E94760AD0
:1008600060C061E2600F5DC0880F991FFC01EA5B08
:10087000FE4F80819181B701681B790B80E090E089
:100880000E94A50A9B01AC010E9491094B015C01E9
:10089000B601DD0C880B990B0E94A70A2B013C01C5
:1008A000B70180E090E00E94A50A6B017C01632DF6
:1008B00070E080E090E00E94A50A20E030E040E097
:1008C0005FE30E94330B20E030E0A9010E94910910
:1008D000A50194010E94330B9B01AC01C701B60135
:1008E0000E9490099B01AC01C301B2010E949009D2
:1008F00020E030E040E251E40E94330B0E946F0A96
:100900007B01C501B4010E946F0AAB01BC01C701A4
:10091000BA010E941209062F6F3F09F054CF61E21D
:10092000610F862FDF91CF911F910F91FF90EF9074
:10093000DF90CF90BF90AF909F908F907F906F90FF
:100940005F904F903F902F9008951F920F920FB697
:100950000F9211242F933F934F935F936F937F9345
:100960008F939F93AF93BF93EF93FF932091670172
:10097000309168018091650190916601820F931F0B
:1009800090936801809367018FEF90E090936601E8
:10099000809365018FEF87BD809143019091440161
:1009A000A0914501B09146010196A11DB11D809312
:1009B000430190934401A0934501B0934601809177
:1009C000470181112DC0809176019091770120918E
:1009D0006701309168018217930710F58091130128
:1009E0008430F1F4E0910501F0910601099500973A
:1009F000B9F00E947808882351F0E0910301F0914A
:100A000004010995109268011092670109C00E94C3
:100A100086009C013327309366012093650187BDD2
:100A2000FF91EF91BF91AF919F918F917F916F91C6
:100A30005F914F913F912F910F900FBE0F901F909C
:100A4000189580FF02C0559A01C0559881FF02C0D9
:100A5000549A01C0549882FF02C03B9A01C03B984F
:100A600083FF02C03A9A01C03A9884FF02C03D9ABF
:100A700001C03D9885FF02C03C9A08953C980895B6
:100A80008C017B01D0E0CFEF84E0D82E98E1C92E15
:100A900029E2B22EE0911301F0E0E730F105D0F742
:100AA000EC5CFF4F0C944509F89480B7877F80BFBA
:100AB00080917A008F7780937A0014B817B81AB8AB
:100AC00015B818B81BB80FB6F894A895C092600076
:100AD0000FBEB092600080916000806480936000DF
:100AE00083B7817F846083BFF89483B7816083BFBD
:100AF0007894889583B78E7F83BF7894109247014E
:100B0000529A5A9A80917A00806880937A0087E599
:100B100092E00197F1F700C0000080B7886180BFC4
:100B20008FE30E942105EFE1FEE43197F1F700C069
:100B3000000080914701882309F450C083E00E949F
:100B40002105FFEF20E782E0F15020408040E1F7EF
:100B500000C0000043C08CE00E942105EFECF7E0EC
:100B60003197F1F700C0000080E00E942105FFEFFF
:100B700021EE84E0F15020408040E1F72CC00E943B
:100B800010038B3AE2E09E0724F08CE00E942105DE
:100B900081CF8938F2E09F0714F080E3F7CF8736E2
:100BA000924014F08FE0F2CF83E0F0CF489916C066
:100BB00081E00E9421058FEC97E00197F1F700C0DA
:100BC000000080E00E9421059FEFE1EEF4E09150EB
:100BD000E040F040E1F700C000005CCF80E0D6CFFD
:100BE000D11102C0F8010995D0921301D1E0F701AB
:100BF000099550CF80911101811107C01092B30067
:100C00001092B4001092120145CF90911101809181
:100C10001201981709F43ECF8091110180931201BF
:100C200080911101813089F4C093B3001092B40017
:100C30008FE295E70197F1F700C0000080917D01F8
:100C40008093B3001092B40025CF809111011092CF
:100C5000B300C093B400823059F4EFE2F5E7319766
:100C6000F1F700C00000809169011092B30010C03C
:100C7000C093B300C093B4008FE295E70197F1F7FA
:100C800000C0000080917C0190917B019093B300A3
:100C90008093B400FFCE1F920F920FB60F921124D3
:100CA0008F939F9310928100109285001092840080
:100CB00081E080932001809364011092470110929B
:100CC0007C0093EA90937A0080937B009F918F91B0
:100CD0000F900FBE0F901F9018951F920F920FB696
:100CE0000F9211240F931F932F933F934F935F9372
:100CF0006F937F938F939F93AF93BF93EF93FF93E4
:100D0000209184003091850041E04093470180911B
:100D10002001882321F110928500109284004093D5
:100D20008100109278011092200180916401882343
:100D300009F4AFC180917A0086FDFCCF80917800E4
:100D400090917900909342018093410181E08093DA
:100D50007C0093EA90937A0080937B009AC1C9014A
:100D60008758910984379940A0F010928100109221
:100D700085001092840040932001409364011092FA
:100D8000470110927C0083EA80937A0040937B00B5
:100D900080C126583109A4EFB0E00E944B098C01B4
:100DA00022273327083060F481E090E001C0880FEB
:100DB0000A95EAF790917801892B8093780169C1AF
:100DC0004093200180916401882341F180917A0051
:100DD00086FDFCCF8091780090917900909340013E
:100DE00080933F0110927C0083EA80937A0081E037
:100DF00080937B0090917801992359F010928100A3
:100E00001092850010928400809364011092470133
:100E100040C11092640110923E013BC180913E019D
:100E2000E82FF0E0E659FE4F9091780190838F5FB4
:100E300080933E018C3009F02CC1109281001092F9
:100E40008500109284004093640110924701009144
:100E50007401109175018AE691E00E945C08081700
:100E6000190709F016C1E0917301E7FD0AC0E0918E
:100E70000701F09108016FE371E08AE691E00995BE
:100E800008C188E78E0F833030F053982398109272
:100E9000B4001092B3008E2F90E0FC01E058F109ED
:100EA000EB30F10508F0F5C0E55CFF4F0C94450907
:100EB00080916E008D7F80936E0016BCE0E0F0E7BD
:100EC00002C0E0E0F0E0099510921301E2C081E079
:100ED000B2C085E0B0C082E0AEC080911301833023
:100EE00009F4D7C080911301843009F4D2C0539A19
:100EF000239A1092B4001092B30083E09CC08091BA
:100F00006A01823009F44BC080F48823A9F0813053
:100F100009F082C080916B0190916C0190937A01ED
:100F2000809379011092110177C0833009F449C090
:100F3000843009F458C070C080911301863009F0E4
:100F40006BC06091790180EB90E00E94A80B6091EA
:100F50007A0181EB90E00E94A80B60917D0185E011
:100F600090E00E94A80B6091690189E090E00E94E6
:100F7000A80B60917B018CE090E00E94A80B60912F
:100F80007C0184E190E00E94A80B53982398109272
:100F9000B4001092B30081E0809313013DC09091A2
:100FA000110180916D01913021F490917D0189179B
:100FB00099F11092120191E09093110180937D01BB
:100FC0002BC09091110180916E01923021F490918B
:100FD0006901891709F11092120192E090931101B1
:100FE0008093690119C02091110180917001909145
:100FF0006F01233041F420917C01821304C02091C1
:101000007B01921749F01092120123E02093110105
:1010100090937B0180937C0180916A018823C9F1C0
:10102000809113018630A9F1539A239A1092B4004B
:101030001092B30086E0809313012BC080911301BE
:10104000863081F0539A239A1092B4001092B30024
:1010500080E00E942105109211011092120186E099
:101060008093130181E090E000906A0102C0880F34
:10107000991F0A94E2F72091790130917A01822335
:101080009323892B21F081E08093110102C01092FB
:101090001101FF91EF91BF91AF919F918F917F913E
:1010A0006F915F914F913F912F911F910F910F90F1
:1010B0000FBE0F901F901895FC019C01265F3F4FBB
:1010C0008FEF9FEF41918427082E8295807F8025A6
:1010D000092E982F82958F70082686959827892744
:1010E000880F880F880F8025E217F30759F70895B6
:1010F0000FB6F894A4B120913D012A2B24B921E028
:1011000030913D01203029F0000025B1232B25B975
:1011100004C000000000000000C00000000000004B
:10112000309525B1232325B92EEA2A95F1F72BEE28
:1011300030B735FF0AC0A4B930913D01309525B1D3
:10114000232325B90FBE80E0089500002A9581F77A
:1011500021E030913D01203029F0000025B1232B02
:1011600025B904C000000000000000C0000000001D
:101170000000309525B1232325B9000024E52A95E8
:10118000F1F7FC018CE0619170E0660F771F616000
:1011900072609AE041E050E09A0126233723232B26
:1011A00030913D01203029F0000025B1232B25B9D5
:1011B00004C000000000000000C0000000000000AB
:1011C000309525B1232325B9000021E52A95F1F7B3
:1011D000440F551F9A9501F78A95A9F620B720610B
:1011E00020BFA4B930913D01309525B1232325B905
:1011F0000FBE81E008950E94480181E790E090933E
:1012000006018093050184E790E0909304018093A8
:10121000030167E271E081EB90E00E94400580E00D
:1012200090E0089597FB072E16F4009407D077FD01
:1012300009D00E945A0907FC05D03EF4909581958B
:101240009F4F0895709561957F4F0895052E97FBE8
:101250001EF400940E943D0957FD07D00E946E09BC
:1012600007FC03D04EF40C943D0950954095309501
:1012700021953F4F4F4F5F4F089590958095709502
:1012800061957F4F8F4F9F4F0895EE0FFF1F059081
:10129000F491E02D0994A29FB001B39FC001A39FD8
:1012A000700D811D1124911DB29F700D811D11249F
:1012B000911D0895AA1BBB1B51E107C0AA1FBB1FAC
:1012C000A617B70710F0A61BB70B881F991F5A95D2
:1012D000A9F780959095BC01CD010895A1E21A2E41
:1012E000AA1BBB1BFD010DC0AA1FBB1FEE1FFF1FCA
:1012F000A217B307E407F50720F0A21BB30BE40B1A
:10130000F50B661F771F881F991F1A9469F7609560
:101310007095809590959B01AC01BD01CF0108951A
:101320005058BB27AA270E94A8090C94F90A0E94CA
:10133000EB0A38F00E94F20A20F039F49F3F19F4CA
:1013400026F40C94E80A0EF4E095E7FB0C94E20A0C
:10135000E92F0E940A0B58F3BA1762077307840734
:10136000950720F079F4A6F50C942C0B0EF4E0957B
:101370000B2EBA2FA02D0B01B90190010C01CA014F
:10138000A0011124FF27591B99F0593F50F4503EFA
:1013900068F11A16F040A22F232F342F4427585FEC
:1013A000F3CF469537952795A795F0405395C9F704
:1013B0007EF41F16BA0B620B730B840BBAF09150BC
:1013C000A1F0FF0FBB1F661F771F881FC2F70EC05B
:1013D000BA0F621F731F841F48F48795779567952E
:1013E000B795F7959E3F08F0B0CF9395880F08F01A
:1013F0009927EE0F9795879508950E94110A0C94EE
:10140000F90A0E94F20A58F00E94EB0A40F029F40F
:101410005F3F29F00C94E20A51110C942D0B0C94AF
:10142000E80A0E940A0B68F39923B1F3552391F35C
:10143000951B550BBB27AA2762177307840738F043
:101440009F5F5F4F220F331F441FAA1FA9F335D0A0
:101450000E2E3AF0E0E832D091505040E695001C54
:10146000CAF72BD0FE2F29D0660F771F881FBB1F0E
:10147000261737074807AB07B0E809F0BB0B802DEC
:10148000BF01FF2793585F4F3AF09E3F510578F018
:101490000C94E20A0C942D0B5F3FE4F3983ED4F3D6
:1014A000869577956795B795F7959F5FC9F7880FEC
:1014B000911D9695879597F90895E1E0660F771F3E
:1014C000881FBB1F621773078407BA0720F0621BCF
:1014D000730B840BBA0BEE1F88F7E09508950E94FA
:1014E000760A6894B1110C942D0B08950E94120B8A
:1014F00088F09F5798F0B92F9927B751B0F0E1F0D5
:10150000660F771F881F991F1AF0BA95C9F714C084
:10151000B13091F00E942C0BB1E008950C942C0B8B
:10152000672F782F8827B85F39F0B93FCCF38695BD
:1015300077956795B395D9F73EF49095809570951A
:1015400061957F4F8F4F9F4F0895E89409C097FB97
:101550003EF490958095709561957F4F8F4F9F4F8A
:101560009923A9F0F92F96E9BB279395F6958795CE
:1015700077956795B795F111F8CFFAF4BB0F11F491
:1015800060FF1BC06F5F7F4F8F4F9F4F16C0882338
:1015900011F096E911C0772321F09EE8872F762F6E
:1015A00005C0662371F096E8862F70E060E02AF0AF
:1015B0009A95660F771F881FDAF7880F969587959B
:1015C00097F9089597F99F6780E870E060E00895C3
:1015D0009FEF80EC089500240A941616170618064B
:1015E0000906089500240A94121613061406050627
:1015F0000895092E0394000C11F4882352F0BB0FB8
:1016000040F4BF2B11F460FF04C06F5F7F4F8F4F1A
:101610009F4F089557FD9058440F551F59F05F3F55
:1016200071F04795880F97FB991F61F09F3F79F004
:1016300087950895121613061406551FF2CF469586
:10164000F1DF08C0161617061806991FF1CF869508
:101650007105610508940895E894BB2766277727EC
:10166000CB0197F908950E94460B0C94F90A0E9449
:10167000EB0A38F00E94F20A20F0952311F00C9446
:10168000E20A0C94E80A11240C942D0B0E940A0B18
:1016900070F3959FC1F3950F50E0551F629FF001C5
:1016A000729FBB27F00DB11D639FAA27F00DB11DDE
:1016B000AA1F649F6627B00DA11D661F829F222767
:1016C000B00DA11D621F739FB00DA11D621F839FEE
:1016D000A00D611D221F749F3327A00D611D231FC4
:1016E000849F600D211D822F762F6A2F11249F5712
:1016F00050409AF0F1F088234AF0EE0FFF1FBB1F15
:10170000661F771F881F91505040A9F79E3F5105D3
:1017100080F00C94E20A0C942D0B5F3FE4F3983EAA
:10172000D4F3869577956795B795F795E7959F5F7D
:10173000C1F7FE2B880F911D9695879597F908950F
:10174000F999FECF92BD81BDF89A992780B5089589
:10175000262FF999FECF1FBA92BD81BD20BD0FB6CD
:10176000F894FA9AF99A0FBE01960895F894FFCF6B
:0A1770000400AA47014401430100F0
:00000001FF
